{
  "contractName": "Wine",
  "abi": [
    {
      "inputs": [],
      "stateMutability": "nonpayable",
      "type": "constructor"
    },
    {
      "anonymous": false,
      "inputs": [
        {
          "indexed": true,
          "internalType": "address",
          "name": "owner",
          "type": "address"
        },
        {
          "indexed": true,
          "internalType": "address",
          "name": "approved",
          "type": "address"
        },
        {
          "indexed": true,
          "internalType": "uint256",
          "name": "tokenId",
          "type": "uint256"
        }
      ],
      "name": "Approval",
      "type": "event"
    },
    {
      "anonymous": false,
      "inputs": [
        {
          "indexed": true,
          "internalType": "address",
          "name": "owner",
          "type": "address"
        },
        {
          "indexed": true,
          "internalType": "address",
          "name": "operator",
          "type": "address"
        },
        {
          "indexed": false,
          "internalType": "bool",
          "name": "approved",
          "type": "bool"
        }
      ],
      "name": "ApprovalForAll",
      "type": "event"
    },
    {
      "anonymous": false,
      "inputs": [
        {
          "indexed": true,
          "internalType": "address",
          "name": "from",
          "type": "address"
        },
        {
          "indexed": true,
          "internalType": "address",
          "name": "to",
          "type": "address"
        },
        {
          "indexed": true,
          "internalType": "uint256",
          "name": "tokenId",
          "type": "uint256"
        }
      ],
      "name": "Transfer",
      "type": "event"
    },
    {
      "inputs": [
        {
          "internalType": "address",
          "name": "to",
          "type": "address"
        },
        {
          "internalType": "uint256",
          "name": "tokenId",
          "type": "uint256"
        }
      ],
      "name": "approve",
      "outputs": [],
      "stateMutability": "nonpayable",
      "type": "function"
    },
    {
      "inputs": [
        {
          "internalType": "address",
          "name": "owner",
          "type": "address"
        }
      ],
      "name": "balanceOf",
      "outputs": [
        {
          "internalType": "uint256",
          "name": "",
          "type": "uint256"
        }
      ],
      "stateMutability": "view",
      "type": "function",
      "constant": true
    },
    {
      "inputs": [
        {
          "internalType": "uint256",
          "name": "tokenId",
          "type": "uint256"
        }
      ],
      "name": "getApproved",
      "outputs": [
        {
          "internalType": "address",
          "name": "",
          "type": "address"
        }
      ],
      "stateMutability": "view",
      "type": "function",
      "constant": true
    },
    {
      "inputs": [
        {
          "internalType": "string",
          "name": "",
          "type": "string"
        }
      ],
      "name": "imageExist",
      "outputs": [
        {
          "internalType": "bool",
          "name": "",
          "type": "bool"
        }
      ],
      "stateMutability": "view",
      "type": "function",
      "constant": true
    },
    {
      "inputs": [
        {
          "internalType": "uint256",
          "name": "",
          "type": "uint256"
        }
      ],
      "name": "imageHashes",
      "outputs": [
        {
          "internalType": "string",
          "name": "",
          "type": "string"
        }
      ],
      "stateMutability": "view",
      "type": "function",
      "constant": true
    },
    {
      "inputs": [],
      "name": "ipfsDataHash",
      "outputs": [
        {
          "internalType": "string",
          "name": "",
          "type": "string"
        }
      ],
      "stateMutability": "view",
      "type": "function",
      "constant": true
    },
    {
      "inputs": [
        {
          "internalType": "address",
          "name": "owner",
          "type": "address"
        },
        {
          "internalType": "address",
          "name": "operator",
          "type": "address"
        }
      ],
      "name": "isApprovedForAll",
      "outputs": [
        {
          "internalType": "bool",
          "name": "",
          "type": "bool"
        }
      ],
      "stateMutability": "view",
      "type": "function",
      "constant": true
    },
    {
      "inputs": [],
      "name": "name",
      "outputs": [
        {
          "internalType": "string",
          "name": "",
          "type": "string"
        }
      ],
      "stateMutability": "view",
      "type": "function",
      "constant": true
    },
    {
      "inputs": [
        {
          "internalType": "uint256",
          "name": "tokenId",
          "type": "uint256"
        }
      ],
      "name": "ownerOf",
      "outputs": [
        {
          "internalType": "address",
          "name": "",
          "type": "address"
        }
      ],
      "stateMutability": "view",
      "type": "function",
      "constant": true
    },
    {
      "inputs": [
        {
          "internalType": "address",
          "name": "from",
          "type": "address"
        },
        {
          "internalType": "address",
          "name": "to",
          "type": "address"
        },
        {
          "internalType": "uint256",
          "name": "tokenId",
          "type": "uint256"
        }
      ],
      "name": "safeTransferFrom",
      "outputs": [],
      "stateMutability": "nonpayable",
      "type": "function"
    },
    {
      "inputs": [
        {
          "internalType": "address",
          "name": "from",
          "type": "address"
        },
        {
          "internalType": "address",
          "name": "to",
          "type": "address"
        },
        {
          "internalType": "uint256",
          "name": "tokenId",
          "type": "uint256"
        },
        {
          "internalType": "bytes",
          "name": "_data",
          "type": "bytes"
        }
      ],
      "name": "safeTransferFrom",
      "outputs": [],
      "stateMutability": "nonpayable",
      "type": "function"
    },
    {
      "inputs": [
        {
          "internalType": "address",
          "name": "operator",
          "type": "address"
        },
        {
          "internalType": "bool",
          "name": "approved",
          "type": "bool"
        }
      ],
      "name": "setApprovalForAll",
      "outputs": [],
      "stateMutability": "nonpayable",
      "type": "function"
    },
    {
      "inputs": [],
      "name": "symbol",
      "outputs": [
        {
          "internalType": "string",
          "name": "",
          "type": "string"
        }
      ],
      "stateMutability": "view",
      "type": "function",
      "constant": true
    },
    {
      "inputs": [
        {
          "internalType": "uint256",
          "name": "index",
          "type": "uint256"
        }
      ],
      "name": "tokenByIndex",
      "outputs": [
        {
          "internalType": "uint256",
          "name": "",
          "type": "uint256"
        }
      ],
      "stateMutability": "view",
      "type": "function",
      "constant": true
    },
    {
      "inputs": [
        {
          "internalType": "address",
          "name": "owner",
          "type": "address"
        },
        {
          "internalType": "uint256",
          "name": "index",
          "type": "uint256"
        }
      ],
      "name": "tokenOfOwnerByIndex",
      "outputs": [
        {
          "internalType": "uint256",
          "name": "",
          "type": "uint256"
        }
      ],
      "stateMutability": "view",
      "type": "function",
      "constant": true
    },
    {
      "inputs": [],
      "name": "totalSupply",
      "outputs": [
        {
          "internalType": "uint256",
          "name": "",
          "type": "uint256"
        }
      ],
      "stateMutability": "view",
      "type": "function",
      "constant": true
    },
    {
      "inputs": [
        {
          "internalType": "address",
          "name": "from",
          "type": "address"
        },
        {
          "internalType": "address",
          "name": "to",
          "type": "address"
        },
        {
          "internalType": "uint256",
          "name": "tokenId",
          "type": "uint256"
        }
      ],
      "name": "transferFrom",
      "outputs": [],
      "stateMutability": "nonpayable",
      "type": "function"
    },
    {
      "inputs": [],
      "name": "wineCount",
      "outputs": [
        {
          "internalType": "uint256",
          "name": "",
          "type": "uint256"
        }
      ],
      "stateMutability": "view",
      "type": "function",
      "constant": true
    },
    {
      "inputs": [
        {
          "internalType": "uint256",
          "name": "",
          "type": "uint256"
        }
      ],
      "name": "wineData",
      "outputs": [
        {
          "internalType": "string",
          "name": "",
          "type": "string"
        }
      ],
      "stateMutability": "view",
      "type": "function",
      "constant": true
    },
    {
      "inputs": [
        {
          "internalType": "string",
          "name": "",
          "type": "string"
        }
      ],
      "name": "wineExist",
      "outputs": [
        {
          "internalType": "bool",
          "name": "",
          "type": "bool"
        }
      ],
      "stateMutability": "view",
      "type": "function",
      "constant": true
    },
    {
      "inputs": [
        {
          "internalType": "uint256",
          "name": "",
          "type": "uint256"
        }
      ],
      "name": "wineHashes",
      "outputs": [
        {
          "internalType": "string",
          "name": "",
          "type": "string"
        }
      ],
      "stateMutability": "view",
      "type": "function",
      "constant": true
    },
    {
      "inputs": [
        {
          "internalType": "bytes4",
          "name": "interfaceId",
          "type": "bytes4"
        }
      ],
      "name": "supportsInterface",
      "outputs": [
        {
          "internalType": "bool",
          "name": "",
          "type": "bool"
        }
      ],
      "stateMutability": "view",
      "type": "function",
      "constant": true
    },
    {
      "inputs": [
        {
          "internalType": "string",
          "name": "_wineHash",
          "type": "string"
        },
        {
          "internalType": "string",
          "name": "_imageHash",
          "type": "string"
        }
      ],
      "name": "mint",
      "outputs": [],
      "stateMutability": "nonpayable",
      "type": "function"
    },
    {
      "inputs": [],
      "name": "getData",
      "outputs": [
        {
          "internalType": "string",
          "name": "",
          "type": "string"
        }
      ],
      "stateMutability": "view",
      "type": "function",
      "constant": true
    },
    {
      "inputs": [],
      "name": "getMintedImages",
      "outputs": [
        {
          "internalType": "string[]",
          "name": "",
          "type": "string[]"
        }
      ],
      "stateMutability": "view",
      "type": "function",
      "constant": true
    },
    {
      "inputs": [
        {
          "internalType": "uint256",
          "name": "tokenId",
          "type": "uint256"
        }
      ],
      "name": "tokenURI",
      "outputs": [
        {
          "internalType": "string",
          "name": "",
          "type": "string"
        }
      ],
      "stateMutability": "view",
      "type": "function",
      "constant": true
    }
  ],
  "bytecode": "0x60806040526000600a556040518060600160405280602e815260200162003a2b602e9139601090805190602001906200003a929190620000ef565b503480156200004857600080fd5b506040518060400160405280600481526020017f57696e65000000000000000000000000000000000000000000000000000000008152506040518060400160405280600481526020017f57494e45000000000000000000000000000000000000000000000000000000008152508160009080519060200190620000cd929190620000ef565b508060019080519060200190620000e6929190620000ef565b50505062000204565b828054620000fd906200019f565b90600052602060002090601f0160209004810192826200012157600085556200016d565b82601f106200013c57805160ff19168380011785556200016d565b828001600101855582156200016d579182015b828111156200016c5782518255916020019190600101906200014f565b5b5090506200017c919062000180565b5090565b5b808211156200019b57600081600090555060010162000181565b5090565b60006002820490506001821680620001b857607f821691505b60208210811415620001cf57620001ce620001d5565b5b50919050565b7f4e487b7100000000000000000000000000000000000000000000000000000000600052602260045260246000fd5b61381780620002146000396000f3fe608060405234801561001057600080fd5b50600436106101ab576000357c01000000000000000000000000000000000000000000000000000000009004806359b07c26116100fb57806395d89b41116100b4578063b1e4ba9c1161008e578063b1e4ba9c14610500578063b88d4fde1461051e578063c87b56dd1461053a578063e985e9c51461056a576101ab565b806395d89b4114610496578063a22cb465146104b4578063a8d4ab6c146104d0576101ab565b806359b07c261461039c5780636352211e146103cc5780636b9aac96146103fc57806370a082311461041a5780637e8a3dbe1461044a5780638aa0fdad1461047a576101ab565b8063236bfc73116101685780633bc5de30116101425780633bc5de301461030257806342842e0e146103205780634f6ccce71461033c57806357a152411461036c576101ab565b8063236bfc731461029857806323b872dd146102b65780632f745c59146102d2576101ab565b806301ffc9a7146101b057806306fdde03146101e0578063081812fc146101fe578063095ea7b31461022e578063174aafb81461024a57806318160ddd1461027a575b600080fd5b6101ca60048036038101906101c59190612810565b61059a565b6040516101d79190613196565b60405180910390f35b6101e86105ac565b6040516101f591906131b1565b60405180910390f35b6102186004803603810190610213919061290f565b61063e565b604051610225919061310d565b60405180910390f35b610248600480360381019061024391906127d4565b6106c3565b005b610264600480360381019061025f9190612862565b6107db565b6040516102719190613196565b60405180910390f35b610282610811565b60405161028f91906133f3565b60405180910390f35b6102a061081e565b6040516102ad9190613174565b60405180910390f35b6102d060048036038101906102cb91906126ce565b6108f7565b005b6102ec60048036038101906102e791906127d4565b610957565b6040516102f991906133f3565b60405180910390f35b61030a6109fc565b60405161031791906131b1565b60405180910390f35b61033a600480360381019061033591906126ce565b610a8e565b005b6103566004803603810190610351919061290f565b610aae565b60405161036391906133f3565b60405180910390f35b61038660048036038101906103819190612862565b610b45565b6040516103939190613196565b60405180910390f35b6103b660048036038101906103b1919061290f565b610b7b565b6040516103c391906131b1565b60405180910390f35b6103e660048036038101906103e1919061290f565b610c27565b6040516103f3919061310d565b60405180910390f35b610404610cd9565b60405161041191906133f3565b60405180910390f35b610434600480360381019061042f9190612669565b610cdf565b60405161044191906133f3565b60405180910390f35b610464600480360381019061045f919061290f565b610d97565b60405161047191906131b1565b60405180910390f35b610494600480360381019061048f91906128a3565b610e37565b005b61049e61105a565b6040516104ab91906131b1565b60405180910390f35b6104ce60048036038101906104c99190612798565b6110ec565b005b6104ea60048036038101906104e5919061290f565b61126d565b6040516104f791906131b1565b60405180910390f35b610508611319565b60405161051591906131b1565b60405180910390f35b6105386004803603810190610533919061271d565b6113a7565b005b610554600480360381019061054f919061290f565b611409565b60405161056191906131b1565b60405180910390f35b610584600480360381019061057f9190612692565b6114e2565b6040516105919190613196565b60405180910390f35b60006105a582611576565b9050919050565b6060600080546105bb9061366c565b80601f01602080910402602001604051908101604052809291908181526020018280546105e79061366c565b80156106345780601f1061060957610100808354040283529160200191610634565b820191906000526020600020905b81548152906001019060200180831161061757829003601f168201915b5050505050905090565b6000610649826115f0565b610688576040517f08c379a000000000000000000000000000000000000000000000000000000000815260040161067f90613333565b60405180910390fd5b6004600083815260200190815260200160002060009054906101000a900473ffffffffffffffffffffffffffffffffffffffff169050919050565b60006106ce82610c27565b90508073ffffffffffffffffffffffffffffffffffffffff168373ffffffffffffffffffffffffffffffffffffffff16141561073f576040517f08c379a000000000000000000000000000000000000000000000000000000000815260040161073690613373565b60405180910390fd5b8073ffffffffffffffffffffffffffffffffffffffff1661075e61165c565b73ffffffffffffffffffffffffffffffffffffffff16148061078d575061078c8161078761165c565b6114e2565b5b6107cc576040517f08c379a00000000000000000000000000000000000000000000000000000000081526004016107c3906132b3565b60405180910390fd5b6107d68383611664565b505050565b600d818051602081018201805184825260208301602085012081835280955050505050506000915054906101000a900460ff1681565b6000600880549050905090565b6060600f805480602002602001604051908101604052809291908181526020016000905b828210156108ee5783829060005260206000200180546108619061366c565b80601f016020809104026020016040519081016040528092919081815260200182805461088d9061366c565b80156108da5780601f106108af576101008083540402835291602001916108da565b820191906000526020600020905b8154815290600101906020018083116108bd57829003601f168201915b505050505081526020019060010190610842565b50505050905090565b61090861090261165c565b8261171d565b610947576040517f08c379a000000000000000000000000000000000000000000000000000000000815260040161093e90613393565b60405180910390fd5b6109528383836117fb565b505050565b600061096283610cdf565b82106109a3576040517f08c379a000000000000000000000000000000000000000000000000000000000815260040161099a906131d3565b60405180910390fd5b600660008473ffffffffffffffffffffffffffffffffffffffff1673ffffffffffffffffffffffffffffffffffffffff168152602001908152602001600020600083815260200190815260200160002054905092915050565b606060108054610a0b9061366c565b80601f0160208091040260200160405190810160405280929190818152602001828054610a379061366c565b8015610a845780601f10610a5957610100808354040283529160200191610a84565b820191906000526020600020905b815481529060010190602001808311610a6757829003601f168201915b5050505050905090565b610aa9838383604051806020016040528060008152506113a7565b505050565b6000610ab8610811565b8210610af9576040517f08c379a0000000000000000000000000000000000000000000000000000000008152600401610af0906133b3565b60405180910390fd5b60088281548110610b33577f4e487b7100000000000000000000000000000000000000000000000000000000600052603260045260246000fd5b90600052602060002001549050919050565b600c818051602081018201805184825260208301602085012081835280955050505050506000915054906101000a900460ff1681565b600e8181548110610b8b57600080fd5b906000526020600020016000915090508054610ba69061366c565b80601f0160208091040260200160405190810160405280929190818152602001828054610bd29061366c565b8015610c1f5780601f10610bf457610100808354040283529160200191610c1f565b820191906000526020600020905b815481529060010190602001808311610c0257829003601f168201915b505050505081565b6000806002600084815260200190815260200160002060009054906101000a900473ffffffffffffffffffffffffffffffffffffffff169050600073ffffffffffffffffffffffffffffffffffffffff168173ffffffffffffffffffffffffffffffffffffffff161415610cd0576040517f08c379a0000000000000000000000000000000000000000000000000000000008152600401610cc7906132f3565b60405180910390fd5b80915050919050565b600a5481565b60008073ffffffffffffffffffffffffffffffffffffffff168273ffffffffffffffffffffffffffffffffffffffff161415610d50576040517f08c379a0000000000000000000000000000000000000000000000000000000008152600401610d47906132d3565b60405180910390fd5b600360008373ffffffffffffffffffffffffffffffffffffffff1673ffffffffffffffffffffffffffffffffffffffff168152602001908152602001600020549050919050565b600b6020528060005260406000206000915090508054610db69061366c565b80601f0160208091040260200160405190810160405280929190818152602001828054610de29061366c565b8015610e2f5780601f10610e0457610100808354040283529160200191610e2f565b820191906000526020600020905b815481529060010190602001808311610e1257829003601f168201915b505050505081565b600c82604051610e4791906130d2565b908152602001604051809103902060009054906101000a900460ff1615610ea3576040517f08c379a0000000000000000000000000000000000000000000000000000000008152600401610e9a906133d3565b60405180910390fd5b600d81604051610eb391906130d2565b908152602001604051809103902060009054906101000a900460ff1615610f0f576040517f08c379a0000000000000000000000000000000000000000000000000000000008152600401610f0690613273565b60405180910390fd5b600e82908060018154018082558091505060019003906000526020600020016000909190919091509080519060200190610f4a92919061248d565b50600f81908060018154018082558091505060019003906000526020600020016000909190919091509080519060200190610f8692919061248d565b5060006001600f80549050610f9b9190613582565b9050610fa73382611a57565b82600b60008381526020019081526020016000209080519060200190610fce92919061248d565b506001600d83604051610fe191906130d2565b908152602001604051809103902060006101000a81548160ff0219169083151502179055506001600c8460405161101891906130d2565b908152602001604051809103902060006101000a81548160ff021916908315150217905550600a60008154809291906110509061369e565b9190505550505050565b6060600180546110699061366c565b80601f01602080910402602001604051908101604052809291908181526020018280546110959061366c565b80156110e25780601f106110b7576101008083540402835291602001916110e2565b820191906000526020600020905b8154815290600101906020018083116110c557829003601f168201915b5050505050905090565b6110f461165c565b73ffffffffffffffffffffffffffffffffffffffff168273ffffffffffffffffffffffffffffffffffffffff161415611162576040517f08c379a000000000000000000000000000000000000000000000000000000000815260040161115990613253565b60405180910390fd5b806005600061116f61165c565b73ffffffffffffffffffffffffffffffffffffffff1673ffffffffffffffffffffffffffffffffffffffff16815260200190815260200160002060008473ffffffffffffffffffffffffffffffffffffffff1673ffffffffffffffffffffffffffffffffffffffff16815260200190815260200160002060006101000a81548160ff0219169083151502179055508173ffffffffffffffffffffffffffffffffffffffff1661121c61165c565b73ffffffffffffffffffffffffffffffffffffffff167f17307eab39ab6107e8899845ad3d59bd9653f200f220920489ca2b5937696c31836040516112619190613196565b60405180910390a35050565b600f818154811061127d57600080fd5b9060005260206000200160009150905080546112989061366c565b80601f01602080910402602001604051908101604052809291908181526020018280546112c49061366c565b80156113115780601f106112e657610100808354040283529160200191611311565b820191906000526020600020905b8154815290600101906020018083116112f457829003601f168201915b505050505081565b601080546113269061366c565b80601f01602080910402602001604051908101604052809291908181526020018280546113529061366c565b801561139f5780601f106113745761010080835404028352916020019161139f565b820191906000526020600020905b81548152906001019060200180831161138257829003601f168201915b505050505081565b6113b86113b261165c565b8361171d565b6113f7576040517f08c379a00000000000000000000000000000000000000000000000000000000081526004016113ee90613393565b60405180910390fd5b61140384848484611c25565b50505050565b60606000611415611c81565b90506000600b600085815260200190815260200160002080546114379061366c565b80601f01602080910402602001604051908101604052809291908181526020018280546114639061366c565b80156114b05780601f10611485576101008083540402835291602001916114b0565b820191906000526020600020905b81548152906001019060200180831161149357829003601f168201915b5050505050905081816040516020016114ca9291906130e9565b60405160208183030381529060405292505050919050565b6000600560008473ffffffffffffffffffffffffffffffffffffffff1673ffffffffffffffffffffffffffffffffffffffff16815260200190815260200160002060008373ffffffffffffffffffffffffffffffffffffffff1673ffffffffffffffffffffffffffffffffffffffff16815260200190815260200160002060009054906101000a900460ff16905092915050565b60007f780e9d63000000000000000000000000000000000000000000000000000000007bffffffffffffffffffffffffffffffffffffffffffffffffffffffff1916827bffffffffffffffffffffffffffffffffffffffffffffffffffffffff191614806115e957506115e882611cbe565b5b9050919050565b60008073ffffffffffffffffffffffffffffffffffffffff166002600084815260200190815260200160002060009054906101000a900473ffffffffffffffffffffffffffffffffffffffff1673ffffffffffffffffffffffffffffffffffffffff1614159050919050565b600033905090565b816004600083815260200190815260200160002060006101000a81548173ffffffffffffffffffffffffffffffffffffffff021916908373ffffffffffffffffffffffffffffffffffffffff160217905550808273ffffffffffffffffffffffffffffffffffffffff166116d783610c27565b73ffffffffffffffffffffffffffffffffffffffff167f8c5be1e5ebec7d5bd14f71427d1e84f3dd0314c0f7b2291e5b200ac8c7c3b92560405160405180910390a45050565b6000611728826115f0565b611767576040517f08c379a000000000000000000000000000000000000000000000000000000000815260040161175e90613293565b60405180910390fd5b600061177283610c27565b90508073ffffffffffffffffffffffffffffffffffffffff168473ffffffffffffffffffffffffffffffffffffffff1614806117e157508373ffffffffffffffffffffffffffffffffffffffff166117c98461063e565b73ffffffffffffffffffffffffffffffffffffffff16145b806117f257506117f181856114e2565b5b91505092915050565b8273ffffffffffffffffffffffffffffffffffffffff1661181b82610c27565b73ffffffffffffffffffffffffffffffffffffffff1614611871576040517f08c379a000000000000000000000000000000000000000000000000000000000815260040161186890613353565b60405180910390fd5b600073ffffffffffffffffffffffffffffffffffffffff168273ffffffffffffffffffffffffffffffffffffffff1614156118e1576040517f08c379a00000000000000000000000000000000000000000000000000000000081526004016118d890613233565b60405180910390fd5b6118ec838383611da0565b6118f7600082611664565b6001600360008573ffffffffffffffffffffffffffffffffffffffff1673ffffffffffffffffffffffffffffffffffffffff16815260200190815260200160002060008282546119479190613582565b925050819055506001600360008473ffffffffffffffffffffffffffffffffffffffff1673ffffffffffffffffffffffffffffffffffffffff168152602001908152602001600020600082825461199e919061352c565b92505081905550816002600083815260200190815260200160002060006101000a81548173ffffffffffffffffffffffffffffffffffffffff021916908373ffffffffffffffffffffffffffffffffffffffff160217905550808273ffffffffffffffffffffffffffffffffffffffff168473ffffffffffffffffffffffffffffffffffffffff167fddf252ad1be2c89b69c2b068fc378daa952ba7f163c4a11628f55a4df523b3ef60405160405180910390a4505050565b600073ffffffffffffffffffffffffffffffffffffffff168273ffffffffffffffffffffffffffffffffffffffff161415611ac7576040517f08c379a0000000000000000000000000000000000000000000000000000000008152600401611abe90613313565b60405180910390fd5b611ad0816115f0565b15611b10576040517f08c379a0000000000000000000000000000000000000000000000000000000008152600401611b0790613213565b60405180910390fd5b611b1c60008383611da0565b6001600360008473ffffffffffffffffffffffffffffffffffffffff1673ffffffffffffffffffffffffffffffffffffffff1681526020019081526020016000206000828254611b6c919061352c565b92505081905550816002600083815260200190815260200160002060006101000a81548173ffffffffffffffffffffffffffffffffffffffff021916908373ffffffffffffffffffffffffffffffffffffffff160217905550808273ffffffffffffffffffffffffffffffffffffffff16600073ffffffffffffffffffffffffffffffffffffffff167fddf252ad1be2c89b69c2b068fc378daa952ba7f163c4a11628f55a4df523b3ef60405160405180910390a45050565b611c308484846117fb565b611c3c84848484611db0565b611c7b576040517f08c379a0000000000000000000000000000000000000000000000000000000008152600401611c72906131f3565b60405180910390fd5b50505050565b60606040518060400160405280601581526020017f68747470733a2f2f697066732e696f2f697066732f0000000000000000000000815250905090565b60007f80ac58cd000000000000000000000000000000000000000000000000000000007bffffffffffffffffffffffffffffffffffffffffffffffffffffffff1916827bffffffffffffffffffffffffffffffffffffffffffffffffffffffff19161480611d8957507f5b5e139f000000000000000000000000000000000000000000000000000000007bffffffffffffffffffffffffffffffffffffffffffffffffffffffff1916827bffffffffffffffffffffffffffffffffffffffffffffffffffffffff1916145b80611d995750611d9882611f7f565b5b9050919050565b611dab838383611fe9565b505050565b6000611dd18473ffffffffffffffffffffffffffffffffffffffff166120fd565b15611f72578373ffffffffffffffffffffffffffffffffffffffff1663150b7a02611dfa61165c565b8786866040518563ffffffff167c0100000000000000000000000000000000000000000000000000000000028152600401611e389493929190613128565b602060405180830381600087803b158015611e5257600080fd5b505af1925050508015611e8357506040513d601f19601f82011682018060405250810190611e809190612839565b60015b611f06573d8060008114611eb3576040519150601f19603f3d011682016040523d82523d6000602084013e611eb8565b606091505b50600081511415611efe576040517f08c379a0000000000000000000000000000000000000000000000000000000008152600401611ef5906131f3565b60405180910390fd5b805181602001fd5b63150b7a027c0100000000000000000000000000000000000000000000000000000000027bffffffffffffffffffffffffffffffffffffffffffffffffffffffff1916817bffffffffffffffffffffffffffffffffffffffffffffffffffffffff191614915050611f77565b600190505b949350505050565b60007f01ffc9a7000000000000000000000000000000000000000000000000000000007bffffffffffffffffffffffffffffffffffffffffffffffffffffffff1916827bffffffffffffffffffffffffffffffffffffffffffffffffffffffff1916149050919050565b611ff4838383612110565b600073ffffffffffffffffffffffffffffffffffffffff168373ffffffffffffffffffffffffffffffffffffffff1614156120375761203281612115565b612076565b8173ffffffffffffffffffffffffffffffffffffffff168373ffffffffffffffffffffffffffffffffffffffff161461207557612074838261215e565b5b5b600073ffffffffffffffffffffffffffffffffffffffff168273ffffffffffffffffffffffffffffffffffffffff1614156120b9576120b4816122cb565b6120f8565b8273ffffffffffffffffffffffffffffffffffffffff168273ffffffffffffffffffffffffffffffffffffffff16146120f7576120f6828261240e565b5b5b505050565b600080823b905060008111915050919050565b505050565b6008805490506009600083815260200190815260200160002081905550600881908060018154018082558091505060019003906000526020600020016000909190919091505550565b6000600161216b84610cdf565b6121759190613582565b905060006007600084815260200190815260200160002054905081811461225a576000600660008673ffffffffffffffffffffffffffffffffffffffff1673ffffffffffffffffffffffffffffffffffffffff168152602001908152602001600020600084815260200190815260200160002054905080600660008773ffffffffffffffffffffffffffffffffffffffff1673ffffffffffffffffffffffffffffffffffffffff168152602001908152602001600020600084815260200190815260200160002081905550816007600083815260200190815260200160002081905550505b6007600084815260200190815260200160002060009055600660008573ffffffffffffffffffffffffffffffffffffffff1673ffffffffffffffffffffffffffffffffffffffff16815260200190815260200160002060008381526020019081526020016000206000905550505050565b600060016008805490506122df9190613582565b9050600060096000848152602001908152602001600020549050600060088381548110612335577f4e487b7100000000000000000000000000000000000000000000000000000000600052603260045260246000fd5b90600052602060002001549050806008838154811061237d577f4e487b7100000000000000000000000000000000000000000000000000000000600052603260045260246000fd5b9060005260206000200181905550816009600083815260200190815260200160002081905550600960008581526020019081526020016000206000905560088054806123f2577f4e487b7100000000000000000000000000000000000000000000000000000000600052603160045260246000fd5b6001900381819060005260206000200160009055905550505050565b600061241983610cdf565b905081600660008573ffffffffffffffffffffffffffffffffffffffff1673ffffffffffffffffffffffffffffffffffffffff168152602001908152602001600020600083815260200190815260200160002081905550806007600084815260200190815260200160002081905550505050565b8280546124999061366c565b90600052602060002090601f0160209004810192826124bb5760008555612502565b82601f106124d457805160ff1916838001178555612502565b82800160010185558215612502579182015b828111156125015782518255916020019190600101906124e6565b5b50905061250f9190612513565b5090565b5b8082111561252c576000816000905550600101612514565b5090565b600061254361253e8461343f565b61340e565b90508281526020810184848401111561255b57600080fd5b61256684828561362a565b509392505050565b600061258161257c8461346f565b61340e565b90508281526020810184848401111561259957600080fd5b6125a484828561362a565b509392505050565b6000813590506125bb81613785565b92915050565b6000813590506125d08161379c565b92915050565b6000813590506125e5816137b3565b92915050565b6000815190506125fa816137b3565b92915050565b600082601f83011261261157600080fd5b8135612621848260208601612530565b91505092915050565b600082601f83011261263b57600080fd5b813561264b84826020860161256e565b91505092915050565b600081359050612663816137ca565b92915050565b60006020828403121561267b57600080fd5b6000612689848285016125ac565b91505092915050565b600080604083850312156126a557600080fd5b60006126b3858286016125ac565b92505060206126c4858286016125ac565b9150509250929050565b6000806000606084860312156126e357600080fd5b60006126f1868287016125ac565b9350506020612702868287016125ac565b925050604061271386828701612654565b9150509250925092565b6000806000806080858703121561273357600080fd5b6000612741878288016125ac565b9450506020612752878288016125ac565b935050604061276387828801612654565b925050606085013567ffffffffffffffff81111561278057600080fd5b61278c87828801612600565b91505092959194509250565b600080604083850312156127ab57600080fd5b60006127b9858286016125ac565b92505060206127ca858286016125c1565b9150509250929050565b600080604083850312156127e757600080fd5b60006127f5858286016125ac565b925050602061280685828601612654565b9150509250929050565b60006020828403121561282257600080fd5b6000612830848285016125d6565b91505092915050565b60006020828403121561284b57600080fd5b6000612859848285016125eb565b91505092915050565b60006020828403121561287457600080fd5b600082013567ffffffffffffffff81111561288e57600080fd5b61289a8482850161262a565b91505092915050565b600080604083850312156128b657600080fd5b600083013567ffffffffffffffff8111156128d057600080fd5b6128dc8582860161262a565b925050602083013567ffffffffffffffff8111156128f957600080fd5b6129058582860161262a565b9150509250929050565b60006020828403121561292157600080fd5b600061292f84828501612654565b91505092915050565b60006129448383612a18565b905092915050565b612955816135b6565b82525050565b6000612966826134af565b61297081856134dd565b9350836020820285016129828561349f565b8060005b858110156129be578484038952815161299f8582612938565b94506129aa836134d0565b925060208a01995050600181019050612986565b50829750879550505050505092915050565b6129d9816135c8565b82525050565b60006129ea826134ba565b6129f481856134ee565b9350612a04818560208601613639565b612a0d81613774565b840191505092915050565b6000612a23826134c5565b612a2d81856134ff565b9350612a3d818560208601613639565b612a4681613774565b840191505092915050565b6000612a5c826134c5565b612a668185613510565b9350612a76818560208601613639565b612a7f81613774565b840191505092915050565b6000612a95826134c5565b612a9f8185613521565b9350612aaf818560208601613639565b80840191505092915050565b6000612ac8602b83613510565b91507f455243373231456e756d657261626c653a206f776e657220696e646578206f7560008301527f74206f6620626f756e64730000000000000000000000000000000000000000006020830152604082019050919050565b6000612b2e603283613510565b91507f4552433732313a207472616e7366657220746f206e6f6e20455243373231526560008301527f63656976657220696d706c656d656e74657200000000000000000000000000006020830152604082019050919050565b6000612b94601c83613510565b91507f4552433732313a20746f6b656e20616c7265616479206d696e746564000000006000830152602082019050919050565b6000612bd4602483613510565b91507f4552433732313a207472616e7366657220746f20746865207a65726f2061646460008301527f72657373000000000000000000000000000000000000000000000000000000006020830152604082019050919050565b6000612c3a601983613510565b91507f4552433732313a20617070726f766520746f2063616c6c6572000000000000006000830152602082019050919050565b6000612c7a601c83613510565b91507f496d6167652069732067657474696e67207573656420747769636573000000006000830152602082019050919050565b6000612cba602c83613510565b91507f4552433732313a206f70657261746f7220717565727920666f72206e6f6e657860008301527f697374656e7420746f6b656e00000000000000000000000000000000000000006020830152604082019050919050565b6000612d20603883613510565b91507f4552433732313a20617070726f76652063616c6c6572206973206e6f74206f7760008301527f6e6572206e6f7220617070726f76656420666f7220616c6c00000000000000006020830152604082019050919050565b6000612d86602a83613510565b91507f4552433732313a2062616c616e636520717565727920666f7220746865207a6560008301527f726f2061646472657373000000000000000000000000000000000000000000006020830152604082019050919050565b6000612dec602983613510565b91507f4552433732313a206f776e657220717565727920666f72206e6f6e657869737460008301527f656e7420746f6b656e00000000000000000000000000000000000000000000006020830152604082019050919050565b6000612e52602083613510565b91507f4552433732313a206d696e7420746f20746865207a65726f20616464726573736000830152602082019050919050565b6000612e92602c83613510565b91507f4552433732313a20617070726f76656420717565727920666f72206e6f6e657860008301527f697374656e7420746f6b656e00000000000000000000000000000000000000006020830152604082019050919050565b6000612ef8602983613510565b91507f4552433732313a207472616e73666572206f6620746f6b656e2074686174206960008301527f73206e6f74206f776e00000000000000000000000000000000000000000000006020830152604082019050919050565b6000612f5e602183613510565b91507f4552433732313a20617070726f76616c20746f2063757272656e74206f776e6560008301527f72000000000000000000000000000000000000000000000000000000000000006020830152604082019050919050565b6000612fc4603183613510565b91507f4552433732313a207472616e736665722063616c6c6572206973206e6f74206f60008301527f776e6572206e6f7220617070726f7665640000000000000000000000000000006020830152604082019050919050565b600061302a602c83613510565b91507f455243373231456e756d657261626c653a20676c6f62616c20696e646578206f60008301527f7574206f6620626f756e647300000000000000000000000000000000000000006020830152604082019050919050565b6000613090601383613510565b91507f57696e6520616c726561647920657869737473000000000000000000000000006000830152602082019050919050565b6130cc81613620565b82525050565b60006130de8284612a8a565b915081905092915050565b60006130f58285612a8a565b91506131018284612a8a565b91508190509392505050565b6000602082019050613122600083018461294c565b92915050565b600060808201905061313d600083018761294c565b61314a602083018661294c565b61315760408301856130c3565b818103606083015261316981846129df565b905095945050505050565b6000602082019050818103600083015261318e818461295b565b905092915050565b60006020820190506131ab60008301846129d0565b92915050565b600060208201905081810360008301526131cb8184612a51565b905092915050565b600060208201905081810360008301526131ec81612abb565b9050919050565b6000602082019050818103600083015261320c81612b21565b9050919050565b6000602082019050818103600083015261322c81612b87565b9050919050565b6000602082019050818103600083015261324c81612bc7565b9050919050565b6000602082019050818103600083015261326c81612c2d565b9050919050565b6000602082019050818103600083015261328c81612c6d565b9050919050565b600060208201905081810360008301526132ac81612cad565b9050919050565b600060208201905081810360008301526132cc81612d13565b9050919050565b600060208201905081810360008301526132ec81612d79565b9050919050565b6000602082019050818103600083015261330c81612ddf565b9050919050565b6000602082019050818103600083015261332c81612e45565b9050919050565b6000602082019050818103600083015261334c81612e85565b9050919050565b6000602082019050818103600083015261336c81612eeb565b9050919050565b6000602082019050818103600083015261338c81612f51565b9050919050565b600060208201905081810360008301526133ac81612fb7565b9050919050565b600060208201905081810360008301526133cc8161301d565b9050919050565b600060208201905081810360008301526133ec81613083565b9050919050565b600060208201905061340860008301846130c3565b92915050565b6000604051905081810181811067ffffffffffffffff8211171561343557613434613745565b5b8060405250919050565b600067ffffffffffffffff82111561345a57613459613745565b5b601f19601f8301169050602081019050919050565b600067ffffffffffffffff82111561348a57613489613745565b5b601f19601f8301169050602081019050919050565b6000819050602082019050919050565b600081519050919050565b600081519050919050565b600081519050919050565b6000602082019050919050565b600082825260208201905092915050565b600082825260208201905092915050565b600082825260208201905092915050565b600082825260208201905092915050565b600081905092915050565b600061353782613620565b915061354283613620565b9250827fffffffffffffffffffffffffffffffffffffffffffffffffffffffffffffffff03821115613577576135766136e7565b5b828201905092915050565b600061358d82613620565b915061359883613620565b9250828210156135ab576135aa6136e7565b5b828203905092915050565b60006135c182613600565b9050919050565b60008115159050919050565b60007fffffffff0000000000000000000000000000000000000000000000000000000082169050919050565b600073ffffffffffffffffffffffffffffffffffffffff82169050919050565b6000819050919050565b82818337600083830152505050565b60005b8381101561365757808201518184015260208101905061363c565b83811115613666576000848401525b50505050565b6000600282049050600182168061368457607f821691505b6020821081141561369857613697613716565b5b50919050565b60006136a982613620565b91507fffffffffffffffffffffffffffffffffffffffffffffffffffffffffffffffff8214156136dc576136db6136e7565b5b600182019050919050565b7f4e487b7100000000000000000000000000000000000000000000000000000000600052601160045260246000fd5b7f4e487b7100000000000000000000000000000000000000000000000000000000600052602260045260246000fd5b7f4e487b7100000000000000000000000000000000000000000000000000000000600052604160045260246000fd5b6000601f19601f8301169050919050565b61378e816135b6565b811461379957600080fd5b50565b6137a5816135c8565b81146137b057600080fd5b50565b6137bc816135d4565b81146137c757600080fd5b50565b6137d381613620565b81146137de57600080fd5b5056fea26469706673582212200063ddeb699a66a44de4b323e18ee4b9ca19b978a44222dab6739742b06bd5e464736f6c63430008000033516d5a313853793361766358796a6532513758345238365844366f435232546a38355855376653715443675a4268",
  "immutableReferences": {},
  "source": "pragma solidity ^0.8.0;\n\nimport \"@openzeppelin/contracts/token/ERC721/ERC721.sol\";\nimport \"@openzeppelin/contracts/token/ERC721/extensions/ERC721Enumerable.sol\";\n\nimport \"@openzeppelin/contracts/token/ERC20/IERC20.sol\";\n\n\n\n// import \"./ERC721Full.sol\";\n\ncontract Wine is ERC721, ERC721Enumerable {\n\n    // to keep the wine count\n    uint public wineCount = 0;\n    \n\n    // to keep the track of ipfshash with data\n    mapping(uint => string) public wineData;\n    \n    // to keep check if the wine exists or not\n    mapping(string => bool) public wineExist;\n\n     // to keep check if the same images is getting used\n    mapping(string => bool) public imageExist;\n\n    // array to store all the ipfs hashes\n\n    string[] public wineHashes;\n    string[] public imageHashes;\n\n\n    string public ipfsDataHash = \"QmZ18Sy3avcXyje2Q7X4R86XD6oCR2Tj85XU7fSqTCgZBh\";\n\n        constructor() ERC721(\"Wine\", \"WINE\") public {\n        }\n\n    function _beforeTokenTransfer(address from, address to, uint256 tokenId)\n    internal\n    override(ERC721, ERC721Enumerable)\n    {\n        super._beforeTokenTransfer(from, to, tokenId);\n    }\n\n    function supportsInterface(bytes4 interfaceId)\n    public\n    view\n    override(ERC721, ERC721Enumerable)\n    returns (bool)\n    {\n        return super.supportsInterface(interfaceId);\n    }\n\n    function mint(string memory _wineHash, string memory _imageHash) public {\n        require(!wineExist[_wineHash],\"Wine already exists\");\n        require(!imageExist[_imageHash],\"Image is getting used twices\");\n            wineHashes.push(_wineHash);\n            imageHashes.push(_imageHash);\n            uint _id = imageHashes.length - 1;\n            _mint(msg.sender,_id);\n            wineData[_id] = _wineHash;\n            imageExist[_imageHash] = true;\n            wineExist[_wineHash] = true;\n            wineCount ++; \n    }\n\n    function _baseURI() internal view virtual override returns (string memory) {\n        return \"https://ipfs.io/ipfs/\";\n    }\n\n    function getData() public view returns (string memory) {\n        return ipfsDataHash;\n    }\n\n    function getMintedImages() public view returns(string[] memory) {\n        return imageHashes;\n        }\n\n    function tokenURI(uint256 tokenId) public view virtual override returns (string memory) {\n        // require(_exists(tokenId), \"ERC721Metadata: URI query for nonexistent token\");\n\n        string memory baseURI = _baseURI();\n        string memory tokenHash = wineData[tokenId];\n        return string(abi.encodePacked(baseURI, tokenHash));\n        // return bytes(baseURI).length > 0 ? string(abi.encodePacked(baseURI, tokenId.toString())) : \"\";\n    }\n  \n}\n",
  "sourcePath": "/home/abhishek/Desktop/Code/BoredPhase2/contracts/Wine.sol",
  "compiler": {
    "name": "solc",
    "version": "0.8.0+commit.c7dfd78e.Linux.g++"
  },
  "schemaVersion": "3.4.3",
  "updatedAt": "2021-12-05T20:28:38.174Z",
  "networkType": "ethereum",
  "devdoc": {
    "kind": "dev",
    "methods": {
      "approve(address,uint256)": {
        "details": "See {IERC721-approve}."
      },
      "balanceOf(address)": {
        "details": "See {IERC721-balanceOf}."
      },
      "getApproved(uint256)": {
        "details": "See {IERC721-getApproved}."
      },
      "isApprovedForAll(address,address)": {
        "details": "See {IERC721-isApprovedForAll}."
      },
      "name()": {
        "details": "See {IERC721Metadata-name}."
      },
      "ownerOf(uint256)": {
        "details": "See {IERC721-ownerOf}."
      },
      "safeTransferFrom(address,address,uint256)": {
        "details": "See {IERC721-safeTransferFrom}."
      },
      "safeTransferFrom(address,address,uint256,bytes)": {
        "details": "See {IERC721-safeTransferFrom}."
      },
      "setApprovalForAll(address,bool)": {
        "details": "See {IERC721-setApprovalForAll}."
      },
      "symbol()": {
        "details": "See {IERC721Metadata-symbol}."
      },
      "tokenByIndex(uint256)": {
        "details": "See {IERC721Enumerable-tokenByIndex}."
      },
      "tokenOfOwnerByIndex(address,uint256)": {
        "details": "See {IERC721Enumerable-tokenOfOwnerByIndex}."
      },
      "tokenURI(uint256)": {
        "details": "See {IERC721Metadata-tokenURI}."
      },
      "totalSupply()": {
        "details": "See {IERC721Enumerable-totalSupply}."
      },
      "transferFrom(address,address,uint256)": {
        "details": "See {IERC721-transferFrom}."
      }
    },
    "version": 1
  },
  "userdoc": {
    "kind": "user",
    "methods": {},
    "version": 1
  }
}