{
  "contractName": "Wine",
  "abi": [
    {
      "inputs": [],
      "stateMutability": "nonpayable",
      "type": "constructor"
    },
    {
      "anonymous": false,
      "inputs": [
        {
          "indexed": true,
          "internalType": "address",
          "name": "owner",
          "type": "address"
        },
        {
          "indexed": true,
          "internalType": "address",
          "name": "approved",
          "type": "address"
        },
        {
          "indexed": true,
          "internalType": "uint256",
          "name": "tokenId",
          "type": "uint256"
        }
      ],
      "name": "Approval",
      "type": "event"
    },
    {
      "anonymous": false,
      "inputs": [
        {
          "indexed": true,
          "internalType": "address",
          "name": "owner",
          "type": "address"
        },
        {
          "indexed": true,
          "internalType": "address",
          "name": "operator",
          "type": "address"
        },
        {
          "indexed": false,
          "internalType": "bool",
          "name": "approved",
          "type": "bool"
        }
      ],
      "name": "ApprovalForAll",
      "type": "event"
    },
    {
      "anonymous": false,
      "inputs": [
        {
          "indexed": true,
          "internalType": "address",
          "name": "from",
          "type": "address"
        },
        {
          "indexed": true,
          "internalType": "address",
          "name": "to",
          "type": "address"
        },
        {
          "indexed": true,
          "internalType": "uint256",
          "name": "tokenId",
          "type": "uint256"
        }
      ],
      "name": "Transfer",
      "type": "event"
    },
    {
      "inputs": [
        {
          "internalType": "address",
          "name": "to",
          "type": "address"
        },
        {
          "internalType": "uint256",
          "name": "tokenId",
          "type": "uint256"
        }
      ],
      "name": "approve",
      "outputs": [],
      "stateMutability": "nonpayable",
      "type": "function"
    },
    {
      "inputs": [
        {
          "internalType": "address",
          "name": "owner",
          "type": "address"
        }
      ],
      "name": "balanceOf",
      "outputs": [
        {
          "internalType": "uint256",
          "name": "",
          "type": "uint256"
        }
      ],
      "stateMutability": "view",
      "type": "function",
      "constant": true
    },
    {
      "inputs": [
        {
          "internalType": "uint256",
          "name": "tokenId",
          "type": "uint256"
        }
      ],
      "name": "getApproved",
      "outputs": [
        {
          "internalType": "address",
          "name": "",
          "type": "address"
        }
      ],
      "stateMutability": "view",
      "type": "function",
      "constant": true
    },
    {
      "inputs": [
        {
          "internalType": "address",
          "name": "owner",
          "type": "address"
        },
        {
          "internalType": "address",
          "name": "operator",
          "type": "address"
        }
      ],
      "name": "isApprovedForAll",
      "outputs": [
        {
          "internalType": "bool",
          "name": "",
          "type": "bool"
        }
      ],
      "stateMutability": "view",
      "type": "function",
      "constant": true
    },
    {
      "inputs": [],
      "name": "name",
      "outputs": [
        {
          "internalType": "string",
          "name": "",
          "type": "string"
        }
      ],
      "stateMutability": "view",
      "type": "function",
      "constant": true
    },
    {
      "inputs": [
        {
          "internalType": "uint256",
          "name": "tokenId",
          "type": "uint256"
        }
      ],
      "name": "ownerOf",
      "outputs": [
        {
          "internalType": "address",
          "name": "",
          "type": "address"
        }
      ],
      "stateMutability": "view",
      "type": "function",
      "constant": true
    },
    {
      "inputs": [
        {
          "internalType": "address",
          "name": "from",
          "type": "address"
        },
        {
          "internalType": "address",
          "name": "to",
          "type": "address"
        },
        {
          "internalType": "uint256",
          "name": "tokenId",
          "type": "uint256"
        }
      ],
      "name": "safeTransferFrom",
      "outputs": [],
      "stateMutability": "nonpayable",
      "type": "function"
    },
    {
      "inputs": [
        {
          "internalType": "address",
          "name": "from",
          "type": "address"
        },
        {
          "internalType": "address",
          "name": "to",
          "type": "address"
        },
        {
          "internalType": "uint256",
          "name": "tokenId",
          "type": "uint256"
        },
        {
          "internalType": "bytes",
          "name": "_data",
          "type": "bytes"
        }
      ],
      "name": "safeTransferFrom",
      "outputs": [],
      "stateMutability": "nonpayable",
      "type": "function"
    },
    {
      "inputs": [
        {
          "internalType": "address",
          "name": "operator",
          "type": "address"
        },
        {
          "internalType": "bool",
          "name": "approved",
          "type": "bool"
        }
      ],
      "name": "setApprovalForAll",
      "outputs": [],
      "stateMutability": "nonpayable",
      "type": "function"
    },
    {
      "inputs": [],
      "name": "symbol",
      "outputs": [
        {
          "internalType": "string",
          "name": "",
          "type": "string"
        }
      ],
      "stateMutability": "view",
      "type": "function",
      "constant": true
    },
    {
      "inputs": [
        {
          "internalType": "uint256",
          "name": "index",
          "type": "uint256"
        }
      ],
      "name": "tokenByIndex",
      "outputs": [
        {
          "internalType": "uint256",
          "name": "",
          "type": "uint256"
        }
      ],
      "stateMutability": "view",
      "type": "function",
      "constant": true
    },
    {
      "inputs": [
        {
          "internalType": "address",
          "name": "owner",
          "type": "address"
        },
        {
          "internalType": "uint256",
          "name": "index",
          "type": "uint256"
        }
      ],
      "name": "tokenOfOwnerByIndex",
      "outputs": [
        {
          "internalType": "uint256",
          "name": "",
          "type": "uint256"
        }
      ],
      "stateMutability": "view",
      "type": "function",
      "constant": true
    },
    {
      "inputs": [],
      "name": "totalSupply",
      "outputs": [
        {
          "internalType": "uint256",
          "name": "",
          "type": "uint256"
        }
      ],
      "stateMutability": "view",
      "type": "function",
      "constant": true
    },
    {
      "inputs": [
        {
          "internalType": "address",
          "name": "from",
          "type": "address"
        },
        {
          "internalType": "address",
          "name": "to",
          "type": "address"
        },
        {
          "internalType": "uint256",
          "name": "tokenId",
          "type": "uint256"
        }
      ],
      "name": "transferFrom",
      "outputs": [],
      "stateMutability": "nonpayable",
      "type": "function"
    },
    {
      "inputs": [],
      "name": "wineCount",
      "outputs": [
        {
          "internalType": "uint256",
          "name": "",
          "type": "uint256"
        }
      ],
      "stateMutability": "view",
      "type": "function",
      "constant": true
    },
    {
      "inputs": [
        {
          "internalType": "uint256",
          "name": "",
          "type": "uint256"
        }
      ],
      "name": "wineData",
      "outputs": [
        {
          "internalType": "string",
          "name": "",
          "type": "string"
        }
      ],
      "stateMutability": "view",
      "type": "function",
      "constant": true
    },
    {
      "inputs": [
        {
          "internalType": "string",
          "name": "",
          "type": "string"
        }
      ],
      "name": "wineExist",
      "outputs": [
        {
          "internalType": "bool",
          "name": "",
          "type": "bool"
        }
      ],
      "stateMutability": "view",
      "type": "function",
      "constant": true
    },
    {
      "inputs": [
        {
          "internalType": "uint256",
          "name": "",
          "type": "uint256"
        }
      ],
      "name": "wineHashes",
      "outputs": [
        {
          "internalType": "string",
          "name": "",
          "type": "string"
        }
      ],
      "stateMutability": "view",
      "type": "function",
      "constant": true
    },
    {
      "inputs": [
        {
          "internalType": "bytes4",
          "name": "interfaceId",
          "type": "bytes4"
        }
      ],
      "name": "supportsInterface",
      "outputs": [
        {
          "internalType": "bool",
          "name": "",
          "type": "bool"
        }
      ],
      "stateMutability": "view",
      "type": "function",
      "constant": true
    },
    {
      "inputs": [
        {
          "internalType": "string",
          "name": "_wineHash",
          "type": "string"
        }
      ],
      "name": "mint",
      "outputs": [],
      "stateMutability": "payable",
      "type": "function",
      "payable": true
    },
    {
      "inputs": [
        {
          "internalType": "uint256",
          "name": "tokenId",
          "type": "uint256"
        }
      ],
      "name": "tokenURI",
      "outputs": [
        {
          "internalType": "string",
          "name": "",
          "type": "string"
        }
      ],
      "stateMutability": "view",
      "type": "function",
      "constant": true
    },
    {
      "inputs": [],
      "name": "sendMe100",
      "outputs": [
        {
          "internalType": "uint256",
          "name": "",
          "type": "uint256"
        }
      ],
      "stateMutability": "view",
      "type": "function",
      "constant": true
    }
  ],
  "bytecode": "0x60806040526000600a553480156200001657600080fd5b506040518060400160405280600481526020017f57696e65000000000000000000000000000000000000000000000000000000008152506040518060400160405280600481526020017f57494e450000000000000000000000000000000000000000000000000000000081525081600090805190602001906200009b929190620000bd565b508060019080519060200190620000b4929190620000bd565b505050620001d2565b828054620000cb906200016d565b90600052602060002090601f016020900481019282620000ef57600085556200013b565b82601f106200010a57805160ff19168380011785556200013b565b828001600101855582156200013b579182015b828111156200013a5782518255916020019190600101906200011d565b5b5090506200014a91906200014e565b5090565b5b80821115620001695760008160009055506001016200014f565b5090565b600060028204905060018216806200018657607f821691505b602082108114156200019d576200019c620001a3565b5b50919050565b7f4e487b7100000000000000000000000000000000000000000000000000000000600052602260045260246000fd5b61345180620001e26000396000f3fe608060405260043610610152576000357c0100000000000000000000000000000000000000000000000000000000900480636352211e116100c8578063a22cb4651161008c578063a22cb465146104a3578063b88d4fde146104cc578063c87b56dd146104f5578063d85d3d2714610532578063de096d611461054e578063e985e9c51461057957610152565b80636352211e146103965780636b9aac96146103d357806370a08231146103fe5780637e8a3dbe1461043b57806395d89b411461047857610152565b806323b872dd1161011a57806323b872dd146102505780632f745c591461027957806342842e0e146102b65780634f6ccce7146102df57806357a152411461031c57806359b07c261461035957610152565b806301ffc9a71461015757806306fdde0314610194578063081812fc146101bf578063095ea7b3146101fc57806318160ddd14610225575b600080fd5b34801561016357600080fd5b5061017e60048036038101906101799190612595565b6105b6565b60405161018b9190612e1a565b60405180910390f35b3480156101a057600080fd5b506101a96105c8565b6040516101b69190612e35565b60405180910390f35b3480156101cb57600080fd5b506101e660048036038101906101e19190612628565b61065a565b6040516101f39190612db3565b60405180910390f35b34801561020857600080fd5b50610223600480360381019061021e9190612559565b6106df565b005b34801561023157600080fd5b5061023a6107f7565b6040516102479190613077565b60405180910390f35b34801561025c57600080fd5b5061027760048036038101906102729190612453565b610804565b005b34801561028557600080fd5b506102a0600480360381019061029b9190612559565b610864565b6040516102ad9190613077565b60405180910390f35b3480156102c257600080fd5b506102dd60048036038101906102d89190612453565b610909565b005b3480156102eb57600080fd5b5061030660048036038101906103019190612628565b610929565b6040516103139190613077565b60405180910390f35b34801561032857600080fd5b50610343600480360381019061033e91906125e7565b6109c0565b6040516103509190612e1a565b60405180910390f35b34801561036557600080fd5b50610380600480360381019061037b9190612628565b6109f6565b60405161038d9190612e35565b60405180910390f35b3480156103a257600080fd5b506103bd60048036038101906103b89190612628565b610aa2565b6040516103ca9190612db3565b60405180910390f35b3480156103df57600080fd5b506103e8610b54565b6040516103f59190613077565b60405180910390f35b34801561040a57600080fd5b50610425600480360381019061042091906123ee565b610b5a565b6040516104329190613077565b60405180910390f35b34801561044757600080fd5b50610462600480360381019061045d9190612628565b610c12565b60405161046f9190612e35565b60405180910390f35b34801561048457600080fd5b5061048d610cb2565b60405161049a9190612e35565b60405180910390f35b3480156104af57600080fd5b506104ca60048036038101906104c5919061251d565b610d44565b005b3480156104d857600080fd5b506104f360048036038101906104ee91906124a2565b610ec5565b005b34801561050157600080fd5b5061051c60048036038101906105179190612628565b610f27565b6040516105299190612e35565b60405180910390f35b61054c600480360381019061054791906125e7565b611000565b005b34801561055a57600080fd5b5061056361118d565b6040516105709190613077565b60405180910390f35b34801561058557600080fd5b506105a0600480360381019061059b9190612417565b611252565b6040516105ad9190612e1a565b60405180910390f35b60006105c1826112e6565b9050919050565b6060600080546105d7906132a6565b80601f0160208091040260200160405190810160405280929190818152602001828054610603906132a6565b80156106505780601f1061062557610100808354040283529160200191610650565b820191906000526020600020905b81548152906001019060200180831161063357829003601f168201915b5050505050905090565b600061066582611360565b6106a4576040517f08c379a000000000000000000000000000000000000000000000000000000000815260040161069b90612f97565b60405180910390fd5b6004600083815260200190815260200160002060009054906101000a900473ffffffffffffffffffffffffffffffffffffffff169050919050565b60006106ea82610aa2565b90508073ffffffffffffffffffffffffffffffffffffffff168373ffffffffffffffffffffffffffffffffffffffff16141561075b576040517f08c379a000000000000000000000000000000000000000000000000000000000815260040161075290612fd7565b60405180910390fd5b8073ffffffffffffffffffffffffffffffffffffffff1661077a6113cc565b73ffffffffffffffffffffffffffffffffffffffff1614806107a957506107a8816107a36113cc565b611252565b5b6107e8576040517f08c379a00000000000000000000000000000000000000000000000000000000081526004016107df90612f17565b60405180910390fd5b6107f283836113d4565b505050565b6000600880549050905090565b61081561080f6113cc565b8261148d565b610854576040517f08c379a000000000000000000000000000000000000000000000000000000000815260040161084b90612ff7565b60405180910390fd5b61085f83838361156b565b505050565b600061086f83610b5a565b82106108b0576040517f08c379a00000000000000000000000000000000000000000000000000000000081526004016108a790612e57565b60405180910390fd5b600660008473ffffffffffffffffffffffffffffffffffffffff1673ffffffffffffffffffffffffffffffffffffffff168152602001908152602001600020600083815260200190815260200160002054905092915050565b61092483838360405180602001604052806000815250610ec5565b505050565b60006109336107f7565b8210610974576040517f08c379a000000000000000000000000000000000000000000000000000000000815260040161096b90613017565b60405180910390fd5b600882815481106109ae577f4e487b7100000000000000000000000000000000000000000000000000000000600052603260045260246000fd5b90600052602060002001549050919050565b600c818051602081018201805184825260208301602085012081835280955050505050506000915054906101000a900460ff1681565b600d8181548110610a0657600080fd5b906000526020600020016000915090508054610a21906132a6565b80601f0160208091040260200160405190810160405280929190818152602001828054610a4d906132a6565b8015610a9a5780601f10610a6f57610100808354040283529160200191610a9a565b820191906000526020600020905b815481529060010190602001808311610a7d57829003601f168201915b505050505081565b6000806002600084815260200190815260200160002060009054906101000a900473ffffffffffffffffffffffffffffffffffffffff169050600073ffffffffffffffffffffffffffffffffffffffff168173ffffffffffffffffffffffffffffffffffffffff161415610b4b576040517f08c379a0000000000000000000000000000000000000000000000000000000008152600401610b4290612f57565b60405180910390fd5b80915050919050565b600a5481565b60008073ffffffffffffffffffffffffffffffffffffffff168273ffffffffffffffffffffffffffffffffffffffff161415610bcb576040517f08c379a0000000000000000000000000000000000000000000000000000000008152600401610bc290612f37565b60405180910390fd5b600360008373ffffffffffffffffffffffffffffffffffffffff1673ffffffffffffffffffffffffffffffffffffffff168152602001908152602001600020549050919050565b600b6020528060005260406000206000915090508054610c31906132a6565b80601f0160208091040260200160405190810160405280929190818152602001828054610c5d906132a6565b8015610caa5780601f10610c7f57610100808354040283529160200191610caa565b820191906000526020600020905b815481529060010190602001808311610c8d57829003601f168201915b505050505081565b606060018054610cc1906132a6565b80601f0160208091040260200160405190810160405280929190818152602001828054610ced906132a6565b8015610d3a5780601f10610d0f57610100808354040283529160200191610d3a565b820191906000526020600020905b815481529060010190602001808311610d1d57829003601f168201915b5050505050905090565b610d4c6113cc565b73ffffffffffffffffffffffffffffffffffffffff168273ffffffffffffffffffffffffffffffffffffffff161415610dba576040517f08c379a0000000000000000000000000000000000000000000000000000000008152600401610db190612ed7565b60405180910390fd5b8060056000610dc76113cc565b73ffffffffffffffffffffffffffffffffffffffff1673ffffffffffffffffffffffffffffffffffffffff16815260200190815260200160002060008473ffffffffffffffffffffffffffffffffffffffff1673ffffffffffffffffffffffffffffffffffffffff16815260200190815260200160002060006101000a81548160ff0219169083151502179055508173ffffffffffffffffffffffffffffffffffffffff16610e746113cc565b73ffffffffffffffffffffffffffffffffffffffff167f17307eab39ab6107e8899845ad3d59bd9653f200f220920489ca2b5937696c3183604051610eb99190612e1a565b60405180910390a35050565b610ed6610ed06113cc565b8361148d565b610f15576040517f08c379a0000000000000000000000000000000000000000000000000000000008152600401610f0c90612ff7565b60405180910390fd5b610f21848484846117c7565b50505050565b60606000610f33611823565b90506000600b60008581526020019081526020016000208054610f55906132a6565b80601f0160208091040260200160405190810160405280929190818152602001828054610f81906132a6565b8015610fce5780601f10610fa357610100808354040283529160200191610fce565b820191906000526020600020905b815481529060010190602001808311610fb157829003601f168201915b505050505090508181604051602001610fe8929190612d8f565b60405160208183030381529060405292505050919050565b66470de4df82000034101561104a576040517f08c379a000000000000000000000000000000000000000000000000000000000815260040161104190613037565b60405180910390fd5b600c8160405161105a9190612d78565b908152602001604051809103902060009054906101000a900460ff16156110b6576040517f08c379a00000000000000000000000000000000000000000000000000000000081526004016110ad90613057565b60405180910390fd5b600d819080600181540180825580915050600190039060005260206000200160009091909190915090805190602001906110f19291906121fd565b5060006001600d8054905061110691906131bc565b90506111123382611860565b81600b600083815260200190815260200160002090805190602001906111399291906121fd565b506001600c8360405161114c9190612d78565b908152602001604051809103902060006101000a81548160ff021916908315150217905550600a6000815480929190611184906132d8565b91905055505050565b600080737ffb3d637014488b63fb9858e279385685afc1e273ffffffffffffffffffffffffffffffffffffffff166370a08231306040518263ffffffff167c01000000000000000000000000000000000000000000000000000000000281526004016111f99190612db3565b60206040518083038186803b15801561121157600080fd5b505afa158015611225573d6000803e3d6000fd5b505050506040513d601f19601f820116820180604052508101906112499190612651565b90508091505090565b6000600560008473ffffffffffffffffffffffffffffffffffffffff1673ffffffffffffffffffffffffffffffffffffffff16815260200190815260200160002060008373ffffffffffffffffffffffffffffffffffffffff1673ffffffffffffffffffffffffffffffffffffffff16815260200190815260200160002060009054906101000a900460ff16905092915050565b60007f780e9d63000000000000000000000000000000000000000000000000000000007bffffffffffffffffffffffffffffffffffffffffffffffffffffffff1916827bffffffffffffffffffffffffffffffffffffffffffffffffffffffff19161480611359575061135882611a2e565b5b9050919050565b60008073ffffffffffffffffffffffffffffffffffffffff166002600084815260200190815260200160002060009054906101000a900473ffffffffffffffffffffffffffffffffffffffff1673ffffffffffffffffffffffffffffffffffffffff1614159050919050565b600033905090565b816004600083815260200190815260200160002060006101000a81548173ffffffffffffffffffffffffffffffffffffffff021916908373ffffffffffffffffffffffffffffffffffffffff160217905550808273ffffffffffffffffffffffffffffffffffffffff1661144783610aa2565b73ffffffffffffffffffffffffffffffffffffffff167f8c5be1e5ebec7d5bd14f71427d1e84f3dd0314c0f7b2291e5b200ac8c7c3b92560405160405180910390a45050565b600061149882611360565b6114d7576040517f08c379a00000000000000000000000000000000000000000000000000000000081526004016114ce90612ef7565b60405180910390fd5b60006114e283610aa2565b90508073ffffffffffffffffffffffffffffffffffffffff168473ffffffffffffffffffffffffffffffffffffffff16148061155157508373ffffffffffffffffffffffffffffffffffffffff166115398461065a565b73ffffffffffffffffffffffffffffffffffffffff16145b8061156257506115618185611252565b5b91505092915050565b8273ffffffffffffffffffffffffffffffffffffffff1661158b82610aa2565b73ffffffffffffffffffffffffffffffffffffffff16146115e1576040517f08c379a00000000000000000000000000000000000000000000000000000000081526004016115d890612fb7565b60405180910390fd5b600073ffffffffffffffffffffffffffffffffffffffff168273ffffffffffffffffffffffffffffffffffffffff161415611651576040517f08c379a000000000000000000000000000000000000000000000000000000000815260040161164890612eb7565b60405180910390fd5b61165c838383611b10565b6116676000826113d4565b6001600360008573ffffffffffffffffffffffffffffffffffffffff1673ffffffffffffffffffffffffffffffffffffffff16815260200190815260200160002060008282546116b791906131bc565b925050819055506001600360008473ffffffffffffffffffffffffffffffffffffffff1673ffffffffffffffffffffffffffffffffffffffff168152602001908152602001600020600082825461170e9190613166565b92505081905550816002600083815260200190815260200160002060006101000a81548173ffffffffffffffffffffffffffffffffffffffff021916908373ffffffffffffffffffffffffffffffffffffffff160217905550808273ffffffffffffffffffffffffffffffffffffffff168473ffffffffffffffffffffffffffffffffffffffff167fddf252ad1be2c89b69c2b068fc378daa952ba7f163c4a11628f55a4df523b3ef60405160405180910390a4505050565b6117d284848461156b565b6117de84848484611b20565b61181d576040517f08c379a000000000000000000000000000000000000000000000000000000000815260040161181490612e77565b60405180910390fd5b50505050565b60606040518060400160405280601581526020017f68747470733a2f2f697066732e696f2f697066732f0000000000000000000000815250905090565b600073ffffffffffffffffffffffffffffffffffffffff168273ffffffffffffffffffffffffffffffffffffffff1614156118d0576040517f08c379a00000000000000000000000000000000000000000000000000000000081526004016118c790612f77565b60405180910390fd5b6118d981611360565b15611919576040517f08c379a000000000000000000000000000000000000000000000000000000000815260040161191090612e97565b60405180910390fd5b61192560008383611b10565b6001600360008473ffffffffffffffffffffffffffffffffffffffff1673ffffffffffffffffffffffffffffffffffffffff16815260200190815260200160002060008282546119759190613166565b92505081905550816002600083815260200190815260200160002060006101000a81548173ffffffffffffffffffffffffffffffffffffffff021916908373ffffffffffffffffffffffffffffffffffffffff160217905550808273ffffffffffffffffffffffffffffffffffffffff16600073ffffffffffffffffffffffffffffffffffffffff167fddf252ad1be2c89b69c2b068fc378daa952ba7f163c4a11628f55a4df523b3ef60405160405180910390a45050565b60007f80ac58cd000000000000000000000000000000000000000000000000000000007bffffffffffffffffffffffffffffffffffffffffffffffffffffffff1916827bffffffffffffffffffffffffffffffffffffffffffffffffffffffff19161480611af957507f5b5e139f000000000000000000000000000000000000000000000000000000007bffffffffffffffffffffffffffffffffffffffffffffffffffffffff1916827bffffffffffffffffffffffffffffffffffffffffffffffffffffffff1916145b80611b095750611b0882611cef565b5b9050919050565b611b1b838383611d59565b505050565b6000611b418473ffffffffffffffffffffffffffffffffffffffff16611e6d565b15611ce2578373ffffffffffffffffffffffffffffffffffffffff1663150b7a02611b6a6113cc565b8786866040518563ffffffff167c0100000000000000000000000000000000000000000000000000000000028152600401611ba89493929190612dce565b602060405180830381600087803b158015611bc257600080fd5b505af1925050508015611bf357506040513d601f19601f82011682018060405250810190611bf091906125be565b60015b611c76573d8060008114611c23576040519150601f19603f3d011682016040523d82523d6000602084013e611c28565b606091505b50600081511415611c6e576040517f08c379a0000000000000000000000000000000000000000000000000000000008152600401611c6590612e77565b60405180910390fd5b805181602001fd5b63150b7a027c0100000000000000000000000000000000000000000000000000000000027bffffffffffffffffffffffffffffffffffffffffffffffffffffffff1916817bffffffffffffffffffffffffffffffffffffffffffffffffffffffff191614915050611ce7565b600190505b949350505050565b60007f01ffc9a7000000000000000000000000000000000000000000000000000000007bffffffffffffffffffffffffffffffffffffffffffffffffffffffff1916827bffffffffffffffffffffffffffffffffffffffffffffffffffffffff1916149050919050565b611d64838383611e80565b600073ffffffffffffffffffffffffffffffffffffffff168373ffffffffffffffffffffffffffffffffffffffff161415611da757611da281611e85565b611de6565b8173ffffffffffffffffffffffffffffffffffffffff168373ffffffffffffffffffffffffffffffffffffffff1614611de557611de48382611ece565b5b5b600073ffffffffffffffffffffffffffffffffffffffff168273ffffffffffffffffffffffffffffffffffffffff161415611e2957611e248161203b565b611e68565b8273ffffffffffffffffffffffffffffffffffffffff168273ffffffffffffffffffffffffffffffffffffffff1614611e6757611e66828261217e565b5b5b505050565b600080823b905060008111915050919050565b505050565b6008805490506009600083815260200190815260200160002081905550600881908060018154018082558091505060019003906000526020600020016000909190919091505550565b60006001611edb84610b5a565b611ee591906131bc565b9050600060076000848152602001908152602001600020549050818114611fca576000600660008673ffffffffffffffffffffffffffffffffffffffff1673ffffffffffffffffffffffffffffffffffffffff168152602001908152602001600020600084815260200190815260200160002054905080600660008773ffffffffffffffffffffffffffffffffffffffff1673ffffffffffffffffffffffffffffffffffffffff168152602001908152602001600020600084815260200190815260200160002081905550816007600083815260200190815260200160002081905550505b6007600084815260200190815260200160002060009055600660008573ffffffffffffffffffffffffffffffffffffffff1673ffffffffffffffffffffffffffffffffffffffff16815260200190815260200160002060008381526020019081526020016000206000905550505050565b6000600160088054905061204f91906131bc565b90506000600960008481526020019081526020016000205490506000600883815481106120a5577f4e487b7100000000000000000000000000000000000000000000000000000000600052603260045260246000fd5b9060005260206000200154905080600883815481106120ed577f4e487b7100000000000000000000000000000000000000000000000000000000600052603260045260246000fd5b906000526020600020018190555081600960008381526020019081526020016000208190555060096000858152602001908152602001600020600090556008805480612162577f4e487b7100000000000000000000000000000000000000000000000000000000600052603160045260246000fd5b6001900381819060005260206000200160009055905550505050565b600061218983610b5a565b905081600660008573ffffffffffffffffffffffffffffffffffffffff1673ffffffffffffffffffffffffffffffffffffffff168152602001908152602001600020600083815260200190815260200160002081905550806007600084815260200190815260200160002081905550505050565b828054612209906132a6565b90600052602060002090601f01602090048101928261222b5760008555612272565b82601f1061224457805160ff1916838001178555612272565b82800160010185558215612272579182015b82811115612271578251825591602001919060010190612256565b5b50905061227f9190612283565b5090565b5b8082111561229c576000816000905550600101612284565b5090565b60006122b36122ae846130c3565b613092565b9050828152602081018484840111156122cb57600080fd5b6122d6848285613264565b509392505050565b60006122f16122ec846130f3565b613092565b90508281526020810184848401111561230957600080fd5b612314848285613264565b509392505050565b60008135905061232b816133bf565b92915050565b600081359050612340816133d6565b92915050565b600081359050612355816133ed565b92915050565b60008151905061236a816133ed565b92915050565b600082601f83011261238157600080fd5b81356123918482602086016122a0565b91505092915050565b600082601f8301126123ab57600080fd5b81356123bb8482602086016122de565b91505092915050565b6000813590506123d381613404565b92915050565b6000815190506123e881613404565b92915050565b60006020828403121561240057600080fd5b600061240e8482850161231c565b91505092915050565b6000806040838503121561242a57600080fd5b60006124388582860161231c565b92505060206124498582860161231c565b9150509250929050565b60008060006060848603121561246857600080fd5b60006124768682870161231c565b93505060206124878682870161231c565b9250506040612498868287016123c4565b9150509250925092565b600080600080608085870312156124b857600080fd5b60006124c68782880161231c565b94505060206124d78782880161231c565b93505060406124e8878288016123c4565b925050606085013567ffffffffffffffff81111561250557600080fd5b61251187828801612370565b91505092959194509250565b6000806040838503121561253057600080fd5b600061253e8582860161231c565b925050602061254f85828601612331565b9150509250929050565b6000806040838503121561256c57600080fd5b600061257a8582860161231c565b925050602061258b858286016123c4565b9150509250929050565b6000602082840312156125a757600080fd5b60006125b584828501612346565b91505092915050565b6000602082840312156125d057600080fd5b60006125de8482850161235b565b91505092915050565b6000602082840312156125f957600080fd5b600082013567ffffffffffffffff81111561261357600080fd5b61261f8482850161239a565b91505092915050565b60006020828403121561263a57600080fd5b6000612648848285016123c4565b91505092915050565b60006020828403121561266357600080fd5b6000612671848285016123d9565b91505092915050565b612683816131f0565b82525050565b61269281613202565b82525050565b60006126a382613123565b6126ad8185613139565b93506126bd818560208601613273565b6126c6816133ae565b840191505092915050565b60006126dc8261312e565b6126e6818561314a565b93506126f6818560208601613273565b6126ff816133ae565b840191505092915050565b60006127158261312e565b61271f818561315b565b935061272f818560208601613273565b80840191505092915050565b6000612748602b8361314a565b91507f455243373231456e756d657261626c653a206f776e657220696e646578206f7560008301527f74206f6620626f756e64730000000000000000000000000000000000000000006020830152604082019050919050565b60006127ae60328361314a565b91507f4552433732313a207472616e7366657220746f206e6f6e20455243373231526560008301527f63656976657220696d706c656d656e74657200000000000000000000000000006020830152604082019050919050565b6000612814601c8361314a565b91507f4552433732313a20746f6b656e20616c7265616479206d696e746564000000006000830152602082019050919050565b600061285460248361314a565b91507f4552433732313a207472616e7366657220746f20746865207a65726f2061646460008301527f72657373000000000000000000000000000000000000000000000000000000006020830152604082019050919050565b60006128ba60198361314a565b91507f4552433732313a20617070726f766520746f2063616c6c6572000000000000006000830152602082019050919050565b60006128fa602c8361314a565b91507f4552433732313a206f70657261746f7220717565727920666f72206e6f6e657860008301527f697374656e7420746f6b656e00000000000000000000000000000000000000006020830152604082019050919050565b600061296060388361314a565b91507f4552433732313a20617070726f76652063616c6c6572206973206e6f74206f7760008301527f6e6572206e6f7220617070726f76656420666f7220616c6c00000000000000006020830152604082019050919050565b60006129c6602a8361314a565b91507f4552433732313a2062616c616e636520717565727920666f7220746865207a6560008301527f726f2061646472657373000000000000000000000000000000000000000000006020830152604082019050919050565b6000612a2c60298361314a565b91507f4552433732313a206f776e657220717565727920666f72206e6f6e657869737460008301527f656e7420746f6b656e00000000000000000000000000000000000000000000006020830152604082019050919050565b6000612a9260208361314a565b91507f4552433732313a206d696e7420746f20746865207a65726f20616464726573736000830152602082019050919050565b6000612ad2602c8361314a565b91507f4552433732313a20617070726f76656420717565727920666f72206e6f6e657860008301527f697374656e7420746f6b656e00000000000000000000000000000000000000006020830152604082019050919050565b6000612b3860298361314a565b91507f4552433732313a207472616e73666572206f6620746f6b656e2074686174206960008301527f73206e6f74206f776e00000000000000000000000000000000000000000000006020830152604082019050919050565b6000612b9e60218361314a565b91507f4552433732313a20617070726f76616c20746f2063757272656e74206f776e6560008301527f72000000000000000000000000000000000000000000000000000000000000006020830152604082019050919050565b6000612c0460318361314a565b91507f4552433732313a207472616e736665722063616c6c6572206973206e6f74206f60008301527f776e6572206e6f7220617070726f7665640000000000000000000000000000006020830152604082019050919050565b6000612c6a602c8361314a565b91507f455243373231456e756d657261626c653a20676c6f62616c20696e646578206f60008301527f7574206f6620626f756e647300000000000000000000000000000000000000006020830152604082019050919050565b6000612cd060218361314a565b91507f4e6f7420656e6f756768204554482073656e743b20636865636b20707269636560008301527f21000000000000000000000000000000000000000000000000000000000000006020830152604082019050919050565b6000612d3660138361314a565b91507f57696e6520616c726561647920657869737473000000000000000000000000006000830152602082019050919050565b612d728161325a565b82525050565b6000612d84828461270a565b915081905092915050565b6000612d9b828561270a565b9150612da7828461270a565b91508190509392505050565b6000602082019050612dc8600083018461267a565b92915050565b6000608082019050612de3600083018761267a565b612df0602083018661267a565b612dfd6040830185612d69565b8181036060830152612e0f8184612698565b905095945050505050565b6000602082019050612e2f6000830184612689565b92915050565b60006020820190508181036000830152612e4f81846126d1565b905092915050565b60006020820190508181036000830152612e708161273b565b9050919050565b60006020820190508181036000830152612e90816127a1565b9050919050565b60006020820190508181036000830152612eb081612807565b9050919050565b60006020820190508181036000830152612ed081612847565b9050919050565b60006020820190508181036000830152612ef0816128ad565b9050919050565b60006020820190508181036000830152612f10816128ed565b9050919050565b60006020820190508181036000830152612f3081612953565b9050919050565b60006020820190508181036000830152612f50816129b9565b9050919050565b60006020820190508181036000830152612f7081612a1f565b9050919050565b60006020820190508181036000830152612f9081612a85565b9050919050565b60006020820190508181036000830152612fb081612ac5565b9050919050565b60006020820190508181036000830152612fd081612b2b565b9050919050565b60006020820190508181036000830152612ff081612b91565b9050919050565b6000602082019050818103600083015261301081612bf7565b9050919050565b6000602082019050818103600083015261303081612c5d565b9050919050565b6000602082019050818103600083015261305081612cc3565b9050919050565b6000602082019050818103600083015261307081612d29565b9050919050565b600060208201905061308c6000830184612d69565b92915050565b6000604051905081810181811067ffffffffffffffff821117156130b9576130b861337f565b5b8060405250919050565b600067ffffffffffffffff8211156130de576130dd61337f565b5b601f19601f8301169050602081019050919050565b600067ffffffffffffffff82111561310e5761310d61337f565b5b601f19601f8301169050602081019050919050565b600081519050919050565b600081519050919050565b600082825260208201905092915050565b600082825260208201905092915050565b600081905092915050565b60006131718261325a565b915061317c8361325a565b9250827fffffffffffffffffffffffffffffffffffffffffffffffffffffffffffffffff038211156131b1576131b0613321565b5b828201905092915050565b60006131c78261325a565b91506131d28361325a565b9250828210156131e5576131e4613321565b5b828203905092915050565b60006131fb8261323a565b9050919050565b60008115159050919050565b60007fffffffff0000000000000000000000000000000000000000000000000000000082169050919050565b600073ffffffffffffffffffffffffffffffffffffffff82169050919050565b6000819050919050565b82818337600083830152505050565b60005b83811015613291578082015181840152602081019050613276565b838111156132a0576000848401525b50505050565b600060028204905060018216806132be57607f821691505b602082108114156132d2576132d1613350565b5b50919050565b60006132e38261325a565b91507fffffffffffffffffffffffffffffffffffffffffffffffffffffffffffffffff82141561331657613315613321565b5b600182019050919050565b7f4e487b7100000000000000000000000000000000000000000000000000000000600052601160045260246000fd5b7f4e487b7100000000000000000000000000000000000000000000000000000000600052602260045260246000fd5b7f4e487b7100000000000000000000000000000000000000000000000000000000600052604160045260246000fd5b6000601f19601f8301169050919050565b6133c8816131f0565b81146133d357600080fd5b50565b6133df81613202565b81146133ea57600080fd5b50565b6133f68161320e565b811461340157600080fd5b50565b61340d8161325a565b811461341857600080fd5b5056fea264697066735822122029078a389144d421d1ae2724dd716aa0da5343e610777fe7fd488ef02a6ad6e364736f6c63430008000033",
  "immutableReferences": {},
  "source": "pragma solidity ^0.8.0;\r\n\r\nimport \"@openzeppelin/contracts/token/ERC721/ERC721.sol\";\r\nimport \"@openzeppelin/contracts/token/ERC721/extensions/ERC721Enumerable.sol\";\r\n\r\nimport \"@openzeppelin/contracts/token/ERC20/IERC20.sol\";\r\n\r\n\r\n\r\n// import \"./ERC721Full.sol\";\r\n\r\ncontract Wine is ERC721, ERC721Enumerable {\r\n\r\n    // to keep the wine count\r\n    uint public wineCount = 0;\r\n    \r\n\r\n    // to keep the track of ipfshash with data\r\n    mapping(uint => string) public wineData;\r\n    \r\n    // to keep check if the wine exists or not\r\n    mapping(string => bool) public wineExist;\r\n\r\n    // array to store all the ipfs hashes\r\n\r\n    string[] public wineHashes;\r\n\r\n    constructor() ERC721(\"Wine\", \"WINE\") public {\r\n    }\r\n\r\n    function _beforeTokenTransfer(address from, address to, uint256 tokenId)\r\n    internal\r\n    override(ERC721, ERC721Enumerable)\r\n    {\r\n        super._beforeTokenTransfer(from, to, tokenId);\r\n    }\r\n\r\n    function supportsInterface(bytes4 interfaceId)\r\n    public\r\n    view\r\n    override(ERC721, ERC721Enumerable)\r\n    returns (bool)\r\n    {\r\n        return super.supportsInterface(interfaceId);\r\n    }\r\n\r\n    function mint(string memory _wineHash) public payable {\r\n        require(msg.value >= 20000000000000000, \"Not enough ETH sent; check price!\");\r\n        require(!wineExist[_wineHash],\"Wine already exists\");\r\n            wineHashes.push(_wineHash);\r\n            uint _id = wineHashes.length - 1;\r\n            _mint(msg.sender,_id);\r\n            wineData[_id] = _wineHash;\r\n            wineExist[_wineHash] = true;\r\n            wineCount ++;\r\n    }\r\n\r\n    function _baseURI() internal view virtual override returns (string memory) {\r\n        return \"https://ipfs.io/ipfs/\";\r\n    }\r\n\r\n    function tokenURI(uint256 tokenId) public view virtual override returns (string memory) {\r\n        // require(_exists(tokenId), \"ERC721Metadata: URI query for nonexistent token\");\r\n\r\n        string memory baseURI = _baseURI();\r\n        string memory tokenHash = wineData[tokenId];\r\n        return string(abi.encodePacked(baseURI, tokenHash));\r\n        // return bytes(baseURI).length > 0 ? string(abi.encodePacked(baseURI, tokenId.toString())) : \"\";\r\n    }\r\n\r\n    function sendMe100() public view returns(uint) {\r\n        uint myTokenBalance = IERC20(0x7FFB3d637014488b63fb9858E279385685AFc1e2).balanceOf(address(this));\r\n        return myTokenBalance;\r\n        // IERC20(0x05Cb7d63483B513887D3fC3fdE38930989312FD0).transferFrom(msg.sender, address(this), 100);\r\n  // success\r\n        }\r\n\r\n    \r\n\r\n  \r\n}\r\n\r\n// make an array so that we can fetch the object on UI part.\r\n// make a mapping to keep track of the ipfs hash\r\n",
  "sourcePath": "C:\\Users\\work\\Desktop\\Code\\BoredPhase2\\contracts\\Wine.sol",
  "compiler": {
    "name": "solc",
    "version": "0.8.0+commit.c7dfd78e.Linux.g++"
  },
  "schemaVersion": "3.4.3",
  "updatedAt": "2021-12-04T22:16:30.410Z",
  "networkType": "ethereum",
  "devdoc": {
    "kind": "dev",
    "methods": {
      "approve(address,uint256)": {
        "details": "See {IERC721-approve}."
      },
      "balanceOf(address)": {
        "details": "See {IERC721-balanceOf}."
      },
      "getApproved(uint256)": {
        "details": "See {IERC721-getApproved}."
      },
      "isApprovedForAll(address,address)": {
        "details": "See {IERC721-isApprovedForAll}."
      },
      "name()": {
        "details": "See {IERC721Metadata-name}."
      },
      "ownerOf(uint256)": {
        "details": "See {IERC721-ownerOf}."
      },
      "safeTransferFrom(address,address,uint256)": {
        "details": "See {IERC721-safeTransferFrom}."
      },
      "safeTransferFrom(address,address,uint256,bytes)": {
        "details": "See {IERC721-safeTransferFrom}."
      },
      "setApprovalForAll(address,bool)": {
        "details": "See {IERC721-setApprovalForAll}."
      },
      "symbol()": {
        "details": "See {IERC721Metadata-symbol}."
      },
      "tokenByIndex(uint256)": {
        "details": "See {IERC721Enumerable-tokenByIndex}."
      },
      "tokenOfOwnerByIndex(address,uint256)": {
        "details": "See {IERC721Enumerable-tokenOfOwnerByIndex}."
      },
      "tokenURI(uint256)": {
        "details": "See {IERC721Metadata-tokenURI}."
      },
      "totalSupply()": {
        "details": "See {IERC721Enumerable-totalSupply}."
      },
      "transferFrom(address,address,uint256)": {
        "details": "See {IERC721-transferFrom}."
      }
    },
    "version": 1
  },
  "userdoc": {
    "kind": "user",
    "methods": {},
    "version": 1
  }
}