{
  "contractName": "Wine",
  "abi": [
    {
      "inputs": [],
      "stateMutability": "nonpayable",
      "type": "constructor"
    },
    {
      "anonymous": false,
      "inputs": [
        {
          "indexed": true,
          "internalType": "address",
          "name": "owner",
          "type": "address"
        },
        {
          "indexed": true,
          "internalType": "address",
          "name": "approved",
          "type": "address"
        },
        {
          "indexed": true,
          "internalType": "uint256",
          "name": "tokenId",
          "type": "uint256"
        }
      ],
      "name": "Approval",
      "type": "event"
    },
    {
      "anonymous": false,
      "inputs": [
        {
          "indexed": true,
          "internalType": "address",
          "name": "owner",
          "type": "address"
        },
        {
          "indexed": true,
          "internalType": "address",
          "name": "operator",
          "type": "address"
        },
        {
          "indexed": false,
          "internalType": "bool",
          "name": "approved",
          "type": "bool"
        }
      ],
      "name": "ApprovalForAll",
      "type": "event"
    },
    {
      "anonymous": false,
      "inputs": [
        {
          "indexed": true,
          "internalType": "address",
          "name": "from",
          "type": "address"
        },
        {
          "indexed": true,
          "internalType": "address",
          "name": "to",
          "type": "address"
        },
        {
          "indexed": true,
          "internalType": "uint256",
          "name": "tokenId",
          "type": "uint256"
        }
      ],
      "name": "Transfer",
      "type": "event"
    },
    {
      "anonymous": false,
      "inputs": [
        {
          "indexed": false,
          "internalType": "string[]",
          "name": "wineHash",
          "type": "string[]"
        }
      ],
      "name": "WineHash",
      "type": "event"
    },
    {
      "inputs": [
        {
          "internalType": "address",
          "name": "to",
          "type": "address"
        },
        {
          "internalType": "uint256",
          "name": "tokenId",
          "type": "uint256"
        }
      ],
      "name": "approve",
      "outputs": [],
      "stateMutability": "nonpayable",
      "type": "function"
    },
    {
      "inputs": [
        {
          "internalType": "address",
          "name": "owner",
          "type": "address"
        }
      ],
      "name": "balanceOf",
      "outputs": [
        {
          "internalType": "uint256",
          "name": "",
          "type": "uint256"
        }
      ],
      "stateMutability": "view",
      "type": "function",
      "constant": true
    },
    {
      "inputs": [
        {
          "internalType": "uint256",
          "name": "tokenId",
          "type": "uint256"
        }
      ],
      "name": "getApproved",
      "outputs": [
        {
          "internalType": "address",
          "name": "",
          "type": "address"
        }
      ],
      "stateMutability": "view",
      "type": "function",
      "constant": true
    },
    {
      "inputs": [
        {
          "internalType": "string",
          "name": "",
          "type": "string"
        }
      ],
      "name": "imageExist",
      "outputs": [
        {
          "internalType": "bool",
          "name": "",
          "type": "bool"
        }
      ],
      "stateMutability": "view",
      "type": "function",
      "constant": true
    },
    {
      "inputs": [
        {
          "internalType": "uint256",
          "name": "",
          "type": "uint256"
        }
      ],
      "name": "imageHashes",
      "outputs": [
        {
          "internalType": "string",
          "name": "",
          "type": "string"
        }
      ],
      "stateMutability": "view",
      "type": "function",
      "constant": true
    },
    {
      "inputs": [],
      "name": "ipfsDataHash",
      "outputs": [
        {
          "internalType": "string",
          "name": "",
          "type": "string"
        }
      ],
      "stateMutability": "view",
      "type": "function",
      "constant": true
    },
    {
      "inputs": [
        {
          "internalType": "address",
          "name": "owner",
          "type": "address"
        },
        {
          "internalType": "address",
          "name": "operator",
          "type": "address"
        }
      ],
      "name": "isApprovedForAll",
      "outputs": [
        {
          "internalType": "bool",
          "name": "",
          "type": "bool"
        }
      ],
      "stateMutability": "view",
      "type": "function",
      "constant": true
    },
    {
      "inputs": [],
      "name": "name",
      "outputs": [
        {
          "internalType": "string",
          "name": "",
          "type": "string"
        }
      ],
      "stateMutability": "view",
      "type": "function",
      "constant": true
    },
    {
      "inputs": [
        {
          "internalType": "uint256",
          "name": "tokenId",
          "type": "uint256"
        }
      ],
      "name": "ownerOf",
      "outputs": [
        {
          "internalType": "address",
          "name": "",
          "type": "address"
        }
      ],
      "stateMutability": "view",
      "type": "function",
      "constant": true
    },
    {
      "inputs": [
        {
          "internalType": "address",
          "name": "from",
          "type": "address"
        },
        {
          "internalType": "address",
          "name": "to",
          "type": "address"
        },
        {
          "internalType": "uint256",
          "name": "tokenId",
          "type": "uint256"
        }
      ],
      "name": "safeTransferFrom",
      "outputs": [],
      "stateMutability": "nonpayable",
      "type": "function"
    },
    {
      "inputs": [
        {
          "internalType": "address",
          "name": "from",
          "type": "address"
        },
        {
          "internalType": "address",
          "name": "to",
          "type": "address"
        },
        {
          "internalType": "uint256",
          "name": "tokenId",
          "type": "uint256"
        },
        {
          "internalType": "bytes",
          "name": "_data",
          "type": "bytes"
        }
      ],
      "name": "safeTransferFrom",
      "outputs": [],
      "stateMutability": "nonpayable",
      "type": "function"
    },
    {
      "inputs": [
        {
          "internalType": "address",
          "name": "operator",
          "type": "address"
        },
        {
          "internalType": "bool",
          "name": "approved",
          "type": "bool"
        }
      ],
      "name": "setApprovalForAll",
      "outputs": [],
      "stateMutability": "nonpayable",
      "type": "function"
    },
    {
      "inputs": [],
      "name": "symbol",
      "outputs": [
        {
          "internalType": "string",
          "name": "",
          "type": "string"
        }
      ],
      "stateMutability": "view",
      "type": "function",
      "constant": true
    },
    {
      "inputs": [
        {
          "internalType": "uint256",
          "name": "index",
          "type": "uint256"
        }
      ],
      "name": "tokenByIndex",
      "outputs": [
        {
          "internalType": "uint256",
          "name": "",
          "type": "uint256"
        }
      ],
      "stateMutability": "view",
      "type": "function",
      "constant": true
    },
    {
      "inputs": [
        {
          "internalType": "address",
          "name": "owner",
          "type": "address"
        },
        {
          "internalType": "uint256",
          "name": "index",
          "type": "uint256"
        }
      ],
      "name": "tokenOfOwnerByIndex",
      "outputs": [
        {
          "internalType": "uint256",
          "name": "",
          "type": "uint256"
        }
      ],
      "stateMutability": "view",
      "type": "function",
      "constant": true
    },
    {
      "inputs": [],
      "name": "totalSupply",
      "outputs": [
        {
          "internalType": "uint256",
          "name": "",
          "type": "uint256"
        }
      ],
      "stateMutability": "view",
      "type": "function",
      "constant": true
    },
    {
      "inputs": [
        {
          "internalType": "address",
          "name": "from",
          "type": "address"
        },
        {
          "internalType": "address",
          "name": "to",
          "type": "address"
        },
        {
          "internalType": "uint256",
          "name": "tokenId",
          "type": "uint256"
        }
      ],
      "name": "transferFrom",
      "outputs": [],
      "stateMutability": "nonpayable",
      "type": "function"
    },
    {
      "inputs": [],
      "name": "wineCount",
      "outputs": [
        {
          "internalType": "uint256",
          "name": "",
          "type": "uint256"
        }
      ],
      "stateMutability": "view",
      "type": "function",
      "constant": true
    },
    {
      "inputs": [
        {
          "internalType": "uint256",
          "name": "",
          "type": "uint256"
        }
      ],
      "name": "wineData",
      "outputs": [
        {
          "internalType": "string",
          "name": "",
          "type": "string"
        }
      ],
      "stateMutability": "view",
      "type": "function",
      "constant": true
    },
    {
      "inputs": [
        {
          "internalType": "string",
          "name": "",
          "type": "string"
        }
      ],
      "name": "wineExist",
      "outputs": [
        {
          "internalType": "bool",
          "name": "",
          "type": "bool"
        }
      ],
      "stateMutability": "view",
      "type": "function",
      "constant": true
    },
    {
      "inputs": [
        {
          "internalType": "uint256",
          "name": "",
          "type": "uint256"
        }
      ],
      "name": "wineHashes",
      "outputs": [
        {
          "internalType": "string",
          "name": "",
          "type": "string"
        }
      ],
      "stateMutability": "view",
      "type": "function",
      "constant": true
    },
    {
      "inputs": [
        {
          "internalType": "bytes4",
          "name": "interfaceId",
          "type": "bytes4"
        }
      ],
      "name": "supportsInterface",
      "outputs": [
        {
          "internalType": "bool",
          "name": "",
          "type": "bool"
        }
      ],
      "stateMutability": "view",
      "type": "function",
      "constant": true
    },
    {
      "inputs": [
        {
          "internalType": "string[]",
          "name": "_wineHash",
          "type": "string[]"
        },
        {
          "internalType": "string[]",
          "name": "_imageHash",
          "type": "string[]"
        },
        {
          "internalType": "uint256",
          "name": "wineAmount",
          "type": "uint256"
        }
      ],
      "name": "mint",
      "outputs": [],
      "stateMutability": "nonpayable",
      "type": "function"
    },
    {
      "inputs": [],
      "name": "getData",
      "outputs": [
        {
          "internalType": "string",
          "name": "",
          "type": "string"
        }
      ],
      "stateMutability": "view",
      "type": "function",
      "constant": true
    },
    {
      "inputs": [],
      "name": "getMintedImages",
      "outputs": [
        {
          "internalType": "string[]",
          "name": "",
          "type": "string[]"
        }
      ],
      "stateMutability": "view",
      "type": "function",
      "constant": true
    },
    {
      "inputs": [
        {
          "internalType": "string[]",
          "name": "_wineHash",
          "type": "string[]"
        },
        {
          "internalType": "string[]",
          "name": "_imageHash",
          "type": "string[]"
        },
        {
          "internalType": "uint256",
          "name": "wineAmount",
          "type": "uint256"
        }
      ],
      "name": "getMintedImages",
      "outputs": [
        {
          "internalType": "string[]",
          "name": "",
          "type": "string[]"
        }
      ],
      "stateMutability": "nonpayable",
      "type": "function"
    },
    {
      "inputs": [
        {
          "internalType": "uint256",
          "name": "tokenId",
          "type": "uint256"
        }
      ],
      "name": "tokenURI",
      "outputs": [
        {
          "internalType": "string",
          "name": "",
          "type": "string"
        }
      ],
      "stateMutability": "view",
      "type": "function",
      "constant": true
    }
  ],
  "bytecode": "0x60806040526000600a556040518060600160405280602e81526020016200426c602e9139601090805190602001906200003a929190620000ef565b503480156200004857600080fd5b506040518060400160405280600481526020017f57696e65000000000000000000000000000000000000000000000000000000008152506040518060400160405280600481526020017f57494e45000000000000000000000000000000000000000000000000000000008152508160009080519060200190620000cd929190620000ef565b508060019080519060200190620000e6929190620000ef565b50505062000204565b828054620000fd906200019f565b90600052602060002090601f0160209004810192826200012157600085556200016d565b82601f106200013c57805160ff19168380011785556200016d565b828001600101855582156200016d579182015b828111156200016c5782518255916020019190600101906200014f565b5b5090506200017c919062000180565b5090565b5b808211156200019b57600081600090555060010162000181565b5090565b60006002820490506001821680620001b857607f821691505b60208210811415620001cf57620001ce620001d5565b5b50919050565b7f4e487b7100000000000000000000000000000000000000000000000000000000600052602260045260246000fd5b61405880620002146000396000f3fe608060405234801561001057600080fd5b50600436106101c6576000357c01000000000000000000000000000000000000000000000000000000009004806357a1524111610116578063a22cb465116100b4578063b88d4fde1161008e578063b88d4fde1461054d578063c87b56dd14610569578063e985e9c514610599578063f3c54663146105c9576101c6565b8063a22cb465146104e3578063a8d4ab6c146104ff578063b1e4ba9c1461052f576101c6565b80636b9aac96116100f05780636b9aac961461044757806370a08231146104655780637e8a3dbe1461049557806395d89b41146104c5576101c6565b806357a15241146103b757806359b07c26146103e75780636352211e14610417576101c6565b8063236bfc73116101835780633bc5de301161015d5780633bc5de301461031d57806342842e0e1461033b5780634328013a146103575780634f6ccce714610387576101c6565b8063236bfc73146102b357806323b872dd146102d15780632f745c59146102ed576101c6565b806301ffc9a7146101cb57806306fdde03146101fb578063081812fc14610219578063095ea7b314610249578063174aafb81461026557806318160ddd14610295575b600080fd5b6101e560048036038101906101e0919061303f565b6105e5565b6040516101f29190613980565b60405180910390f35b6102036105f7565b604051610210919061399b565b60405180910390f35b610233600480360381019061022e91906130d2565b610689565b60405161024091906138f7565b60405180910390f35b610263600480360381019061025e9190612f7a565b61070e565b005b61027f600480360381019061027a9190613091565b610826565b60405161028c9190613980565b60405180910390f35b61029d61085c565b6040516102aa9190613bdd565b60405180910390f35b6102bb610869565b6040516102c8919061395e565b60405180910390f35b6102eb60048036038101906102e69190612e74565b610942565b005b61030760048036038101906103029190612f7a565b6109a2565b6040516103149190613bdd565b60405180910390f35b610325610a47565b604051610332919061399b565b60405180910390f35b61035560048036038101906103509190612e74565b610ad9565b005b610371600480360381019061036c9190612fb6565b610af9565b60405161037e919061395e565b60405180910390f35b6103a1600480360381019061039c91906130d2565b610ffa565b6040516103ae9190613bdd565b60405180910390f35b6103d160048036038101906103cc9190613091565b611091565b6040516103de9190613980565b60405180910390f35b61040160048036038101906103fc91906130d2565b6110c7565b60405161040e919061399b565b60405180910390f35b610431600480360381019061042c91906130d2565b611173565b60405161043e91906138f7565b60405180910390f35b61044f611225565b60405161045c9190613bdd565b60405180910390f35b61047f600480360381019061047a9190612e0f565b61122b565b60405161048c9190613bdd565b60405180910390f35b6104af60048036038101906104aa91906130d2565b6112e3565b6040516104bc919061399b565b60405180910390f35b6104cd611383565b6040516104da919061399b565b60405180910390f35b6104fd60048036038101906104f89190612f3e565b611415565b005b610519600480360381019061051491906130d2565b611596565b604051610526919061399b565b60405180910390f35b610537611642565b604051610544919061399b565b60405180910390f35b61056760048036038101906105629190612ec3565b6116d0565b005b610583600480360381019061057e91906130d2565b611732565b604051610590919061399b565b60405180910390f35b6105b360048036038101906105ae9190612e38565b61180b565b6040516105c09190613980565b60405180910390f35b6105e360048036038101906105de9190612fb6565b61189f565b005b60006105f082611cd2565b9050919050565b60606000805461060690613ead565b80601f016020809104026020016040519081016040528092919081815260200182805461063290613ead565b801561067f5780601f106106545761010080835404028352916020019161067f565b820191906000526020600020905b81548152906001019060200180831161066257829003601f168201915b5050505050905090565b600061069482611d4c565b6106d3576040517f08c379a00000000000000000000000000000000000000000000000000000000081526004016106ca90613b1d565b60405180910390fd5b6004600083815260200190815260200160002060009054906101000a900473ffffffffffffffffffffffffffffffffffffffff169050919050565b600061071982611173565b90508073ffffffffffffffffffffffffffffffffffffffff168373ffffffffffffffffffffffffffffffffffffffff16141561078a576040517f08c379a000000000000000000000000000000000000000000000000000000000815260040161078190613b5d565b60405180910390fd5b8073ffffffffffffffffffffffffffffffffffffffff166107a9611db8565b73ffffffffffffffffffffffffffffffffffffffff1614806107d857506107d7816107d2611db8565b61180b565b5b610817576040517f08c379a000000000000000000000000000000000000000000000000000000000815260040161080e90613a9d565b60405180910390fd5b6108218383611dc0565b505050565b600d818051602081018201805184825260208301602085012081835280955050505050506000915054906101000a900460ff1681565b6000600880549050905090565b6060600f805480602002602001604051908101604052809291908181526020016000905b828210156109395783829060005260206000200180546108ac90613ead565b80601f01602080910402602001604051908101604052809291908181526020018280546108d890613ead565b80156109255780601f106108fa57610100808354040283529160200191610925565b820191906000526020600020905b81548152906001019060200180831161090857829003601f168201915b50505050508152602001906001019061088d565b50505050905090565b61095361094d611db8565b82611e79565b610992576040517f08c379a000000000000000000000000000000000000000000000000000000000815260040161098990613b7d565b60405180910390fd5b61099d838383611f57565b505050565b60006109ad8361122b565b82106109ee576040517f08c379a00000000000000000000000000000000000000000000000000000000081526004016109e5906139bd565b60405180910390fd5b600660008473ffffffffffffffffffffffffffffffffffffffff1673ffffffffffffffffffffffffffffffffffffffff168152602001908152602001600020600083815260200190815260200160002054905092915050565b606060108054610a5690613ead565b80601f0160208091040260200160405190810160405280929190818152602001828054610a8290613ead565b8015610acf5780601f10610aa457610100808354040283529160200191610acf565b820191906000526020600020905b815481529060010190602001808311610ab257829003601f168201915b5050505050905090565b610af4838383604051806020016040528060008152506116d0565b505050565b606060005b82811015610f1c57600c878783818110610b41577f4e487b7100000000000000000000000000000000000000000000000000000000600052603260045260246000fd5b9050602002810190610b539190613bf8565b604051610b619291906138ba565b908152602001604051809103902060009054906101000a900460ff1615610bbd576040517f08c379a0000000000000000000000000000000000000000000000000000000008152600401610bb490613bbd565b60405180910390fd5b600d858583818110610bf8577f4e487b7100000000000000000000000000000000000000000000000000000000600052603260045260246000fd5b9050602002810190610c0a9190613bf8565b604051610c189291906138ba565b908152602001604051809103902060009054906101000a900460ff1615610c74576040517f08c379a0000000000000000000000000000000000000000000000000000000008152600401610c6b90613a5d565b60405180910390fd5b600e878783818110610caf577f4e487b7100000000000000000000000000000000000000000000000000000000600052603260045260246000fd5b9050602002810190610cc19190613bf8565b90918060018154018082558091505060019003906000526020600020016000909192909192909192909192509190610cfa929190612be9565b50600f858583818110610d36577f4e487b7100000000000000000000000000000000000000000000000000000000600052603260045260246000fd5b9050602002810190610d489190613bf8565b90918060018154018082558091505060019003906000526020600020016000909192909192909192909192509190610d81929190612be9565b5060006001600f80549050610d969190613dc3565b9050878783818110610dd1577f4e487b7100000000000000000000000000000000000000000000000000000000600052603260045260246000fd5b9050602002810190610de39190613bf8565b600b60008481526020019081526020016000209190610e03929190612be9565b506001600d878785818110610e41577f4e487b7100000000000000000000000000000000000000000000000000000000600052603260045260246000fd5b9050602002810190610e539190613bf8565b604051610e619291906138ba565b908152602001604051809103902060006101000a81548160ff0219169083151502179055506001600c898985818110610ec3577f4e487b7100000000000000000000000000000000000000000000000000000000600052603260045260246000fd5b9050602002810190610ed59190613bf8565b604051610ee39291906138ba565b908152602001604051809103902060006101000a81548160ff021916908315150217905550508080610f1490613edf565b915050610afe565b50600e805480602002602001604051908101604052809291908181526020016000905b82821015610feb578382906000526020600020018054610f5e90613ead565b80601f0160208091040260200160405190810160405280929190818152602001828054610f8a90613ead565b8015610fd75780601f10610fac57610100808354040283529160200191610fd7565b820191906000526020600020905b815481529060010190602001808311610fba57829003601f168201915b505050505081526020019060010190610f3f565b50505050905095945050505050565b600061100461085c565b8210611045576040517f08c379a000000000000000000000000000000000000000000000000000000000815260040161103c90613b9d565b60405180910390fd5b6008828154811061107f577f4e487b7100000000000000000000000000000000000000000000000000000000600052603260045260246000fd5b90600052602060002001549050919050565b600c818051602081018201805184825260208301602085012081835280955050505050506000915054906101000a900460ff1681565b600e81815481106110d757600080fd5b9060005260206000200160009150905080546110f290613ead565b80601f016020809104026020016040519081016040528092919081815260200182805461111e90613ead565b801561116b5780601f106111405761010080835404028352916020019161116b565b820191906000526020600020905b81548152906001019060200180831161114e57829003601f168201915b505050505081565b6000806002600084815260200190815260200160002060009054906101000a900473ffffffffffffffffffffffffffffffffffffffff169050600073ffffffffffffffffffffffffffffffffffffffff168173ffffffffffffffffffffffffffffffffffffffff16141561121c576040517f08c379a000000000000000000000000000000000000000000000000000000000815260040161121390613add565b60405180910390fd5b80915050919050565b600a5481565b60008073ffffffffffffffffffffffffffffffffffffffff168273ffffffffffffffffffffffffffffffffffffffff16141561129c576040517f08c379a000000000000000000000000000000000000000000000000000000000815260040161129390613abd565b60405180910390fd5b600360008373ffffffffffffffffffffffffffffffffffffffff1673ffffffffffffffffffffffffffffffffffffffff168152602001908152602001600020549050919050565b600b602052806000526040600020600091509050805461130290613ead565b80601f016020809104026020016040519081016040528092919081815260200182805461132e90613ead565b801561137b5780601f106113505761010080835404028352916020019161137b565b820191906000526020600020905b81548152906001019060200180831161135e57829003601f168201915b505050505081565b60606001805461139290613ead565b80601f01602080910402602001604051908101604052809291908181526020018280546113be90613ead565b801561140b5780601f106113e05761010080835404028352916020019161140b565b820191906000526020600020905b8154815290600101906020018083116113ee57829003601f168201915b5050505050905090565b61141d611db8565b73ffffffffffffffffffffffffffffffffffffffff168273ffffffffffffffffffffffffffffffffffffffff16141561148b576040517f08c379a000000000000000000000000000000000000000000000000000000000815260040161148290613a3d565b60405180910390fd5b8060056000611498611db8565b73ffffffffffffffffffffffffffffffffffffffff1673ffffffffffffffffffffffffffffffffffffffff16815260200190815260200160002060008473ffffffffffffffffffffffffffffffffffffffff1673ffffffffffffffffffffffffffffffffffffffff16815260200190815260200160002060006101000a81548160ff0219169083151502179055508173ffffffffffffffffffffffffffffffffffffffff16611545611db8565b73ffffffffffffffffffffffffffffffffffffffff167f17307eab39ab6107e8899845ad3d59bd9653f200f220920489ca2b5937696c318360405161158a9190613980565b60405180910390a35050565b600f81815481106115a657600080fd5b9060005260206000200160009150905080546115c190613ead565b80601f01602080910402602001604051908101604052809291908181526020018280546115ed90613ead565b801561163a5780601f1061160f5761010080835404028352916020019161163a565b820191906000526020600020905b81548152906001019060200180831161161d57829003601f168201915b505050505081565b6010805461164f90613ead565b80601f016020809104026020016040519081016040528092919081815260200182805461167b90613ead565b80156116c85780601f1061169d576101008083540402835291602001916116c8565b820191906000526020600020905b8154815290600101906020018083116116ab57829003601f168201915b505050505081565b6116e16116db611db8565b83611e79565b611720576040517f08c379a000000000000000000000000000000000000000000000000000000000815260040161171790613b7d565b60405180910390fd5b61172c848484846121b3565b50505050565b6060600061173e61220f565b90506000600b6000858152602001908152602001600020805461176090613ead565b80601f016020809104026020016040519081016040528092919081815260200182805461178c90613ead565b80156117d95780601f106117ae576101008083540402835291602001916117d9565b820191906000526020600020905b8154815290600101906020018083116117bc57829003601f168201915b5050505050905081816040516020016117f39291906138d3565b60405160208183030381529060405292505050919050565b6000600560008473ffffffffffffffffffffffffffffffffffffffff1673ffffffffffffffffffffffffffffffffffffffff16815260200190815260200160002060008373ffffffffffffffffffffffffffffffffffffffff1673ffffffffffffffffffffffffffffffffffffffff16815260200190815260200160002060009054906101000a900460ff16905092915050565b60005b81811015611cca57600c8686838181106118e5577f4e487b7100000000000000000000000000000000000000000000000000000000600052603260045260246000fd5b90506020028101906118f79190613bf8565b6040516119059291906138ba565b908152602001604051809103902060009054906101000a900460ff1615611961576040517f08c379a000000000000000000000000000000000000000000000000000000000815260040161195890613bbd565b60405180910390fd5b600d84848381811061199c577f4e487b7100000000000000000000000000000000000000000000000000000000600052603260045260246000fd5b90506020028101906119ae9190613bf8565b6040516119bc9291906138ba565b908152602001604051809103902060009054906101000a900460ff1615611a18576040517f08c379a0000000000000000000000000000000000000000000000000000000008152600401611a0f90613a5d565b60405180910390fd5b600e868683818110611a53577f4e487b7100000000000000000000000000000000000000000000000000000000600052603260045260246000fd5b9050602002810190611a659190613bf8565b90918060018154018082558091505060019003906000526020600020016000909192909192909192909192509190611a9e929190612be9565b50600f848483818110611ada577f4e487b7100000000000000000000000000000000000000000000000000000000600052603260045260246000fd5b9050602002810190611aec9190613bf8565b90918060018154018082558091505060019003906000526020600020016000909192909192909192909192509190611b25929190612be9565b5060006001600f80549050611b3a9190613dc3565b9050611b46338261224c565b868683818110611b7f577f4e487b7100000000000000000000000000000000000000000000000000000000600052603260045260246000fd5b9050602002810190611b919190613bf8565b600b60008481526020019081526020016000209190611bb1929190612be9565b506001600d868685818110611bef577f4e487b7100000000000000000000000000000000000000000000000000000000600052603260045260246000fd5b9050602002810190611c019190613bf8565b604051611c0f9291906138ba565b908152602001604051809103902060006101000a81548160ff0219169083151502179055506001600c888885818110611c71577f4e487b7100000000000000000000000000000000000000000000000000000000600052603260045260246000fd5b9050602002810190611c839190613bf8565b604051611c919291906138ba565b908152602001604051809103902060006101000a81548160ff021916908315150217905550508080611cc290613edf565b9150506118a2565b505050505050565b60007f780e9d63000000000000000000000000000000000000000000000000000000007bffffffffffffffffffffffffffffffffffffffffffffffffffffffff1916827bffffffffffffffffffffffffffffffffffffffffffffffffffffffff19161480611d455750611d448261241a565b5b9050919050565b60008073ffffffffffffffffffffffffffffffffffffffff166002600084815260200190815260200160002060009054906101000a900473ffffffffffffffffffffffffffffffffffffffff1673ffffffffffffffffffffffffffffffffffffffff1614159050919050565b600033905090565b816004600083815260200190815260200160002060006101000a81548173ffffffffffffffffffffffffffffffffffffffff021916908373ffffffffffffffffffffffffffffffffffffffff160217905550808273ffffffffffffffffffffffffffffffffffffffff16611e3383611173565b73ffffffffffffffffffffffffffffffffffffffff167f8c5be1e5ebec7d5bd14f71427d1e84f3dd0314c0f7b2291e5b200ac8c7c3b92560405160405180910390a45050565b6000611e8482611d4c565b611ec3576040517f08c379a0000000000000000000000000000000000000000000000000000000008152600401611eba90613a7d565b60405180910390fd5b6000611ece83611173565b90508073ffffffffffffffffffffffffffffffffffffffff168473ffffffffffffffffffffffffffffffffffffffff161480611f3d57508373ffffffffffffffffffffffffffffffffffffffff16611f2584610689565b73ffffffffffffffffffffffffffffffffffffffff16145b80611f4e5750611f4d818561180b565b5b91505092915050565b8273ffffffffffffffffffffffffffffffffffffffff16611f7782611173565b73ffffffffffffffffffffffffffffffffffffffff1614611fcd576040517f08c379a0000000000000000000000000000000000000000000000000000000008152600401611fc490613b3d565b60405180910390fd5b600073ffffffffffffffffffffffffffffffffffffffff168273ffffffffffffffffffffffffffffffffffffffff16141561203d576040517f08c379a000000000000000000000000000000000000000000000000000000000815260040161203490613a1d565b60405180910390fd5b6120488383836124fc565b612053600082611dc0565b6001600360008573ffffffffffffffffffffffffffffffffffffffff1673ffffffffffffffffffffffffffffffffffffffff16815260200190815260200160002060008282546120a39190613dc3565b925050819055506001600360008473ffffffffffffffffffffffffffffffffffffffff1673ffffffffffffffffffffffffffffffffffffffff16815260200190815260200160002060008282546120fa9190613d6d565b92505081905550816002600083815260200190815260200160002060006101000a81548173ffffffffffffffffffffffffffffffffffffffff021916908373ffffffffffffffffffffffffffffffffffffffff160217905550808273ffffffffffffffffffffffffffffffffffffffff168473ffffffffffffffffffffffffffffffffffffffff167fddf252ad1be2c89b69c2b068fc378daa952ba7f163c4a11628f55a4df523b3ef60405160405180910390a4505050565b6121be848484611f57565b6121ca8484848461250c565b612209576040517f08c379a0000000000000000000000000000000000000000000000000000000008152600401612200906139dd565b60405180910390fd5b50505050565b60606040518060400160405280601581526020017f68747470733a2f2f697066732e696f2f697066732f0000000000000000000000815250905090565b600073ffffffffffffffffffffffffffffffffffffffff168273ffffffffffffffffffffffffffffffffffffffff1614156122bc576040517f08c379a00000000000000000000000000000000000000000000000000000000081526004016122b390613afd565b60405180910390fd5b6122c581611d4c565b15612305576040517f08c379a00000000000000000000000000000000000000000000000000000000081526004016122fc906139fd565b60405180910390fd5b612311600083836124fc565b6001600360008473ffffffffffffffffffffffffffffffffffffffff1673ffffffffffffffffffffffffffffffffffffffff16815260200190815260200160002060008282546123619190613d6d565b92505081905550816002600083815260200190815260200160002060006101000a81548173ffffffffffffffffffffffffffffffffffffffff021916908373ffffffffffffffffffffffffffffffffffffffff160217905550808273ffffffffffffffffffffffffffffffffffffffff16600073ffffffffffffffffffffffffffffffffffffffff167fddf252ad1be2c89b69c2b068fc378daa952ba7f163c4a11628f55a4df523b3ef60405160405180910390a45050565b60007f80ac58cd000000000000000000000000000000000000000000000000000000007bffffffffffffffffffffffffffffffffffffffffffffffffffffffff1916827bffffffffffffffffffffffffffffffffffffffffffffffffffffffff191614806124e557507f5b5e139f000000000000000000000000000000000000000000000000000000007bffffffffffffffffffffffffffffffffffffffffffffffffffffffff1916827bffffffffffffffffffffffffffffffffffffffffffffffffffffffff1916145b806124f557506124f4826126db565b5b9050919050565b612507838383612745565b505050565b600061252d8473ffffffffffffffffffffffffffffffffffffffff16612859565b156126ce578373ffffffffffffffffffffffffffffffffffffffff1663150b7a02612556611db8565b8786866040518563ffffffff167c01000000000000000000000000000000000000000000000000000000000281526004016125949493929190613912565b602060405180830381600087803b1580156125ae57600080fd5b505af19250505080156125df57506040513d601f19601f820116820180604052508101906125dc9190613068565b60015b612662573d806000811461260f576040519150601f19603f3d011682016040523d82523d6000602084013e612614565b606091505b5060008151141561265a576040517f08c379a0000000000000000000000000000000000000000000000000000000008152600401612651906139dd565b60405180910390fd5b805181602001fd5b63150b7a027c0100000000000000000000000000000000000000000000000000000000027bffffffffffffffffffffffffffffffffffffffffffffffffffffffff1916817bffffffffffffffffffffffffffffffffffffffffffffffffffffffff1916149150506126d3565b600190505b949350505050565b60007f01ffc9a7000000000000000000000000000000000000000000000000000000007bffffffffffffffffffffffffffffffffffffffffffffffffffffffff1916827bffffffffffffffffffffffffffffffffffffffffffffffffffffffff1916149050919050565b61275083838361286c565b600073ffffffffffffffffffffffffffffffffffffffff168373ffffffffffffffffffffffffffffffffffffffff1614156127935761278e81612871565b6127d2565b8173ffffffffffffffffffffffffffffffffffffffff168373ffffffffffffffffffffffffffffffffffffffff16146127d1576127d083826128ba565b5b5b600073ffffffffffffffffffffffffffffffffffffffff168273ffffffffffffffffffffffffffffffffffffffff1614156128155761281081612a27565b612854565b8273ffffffffffffffffffffffffffffffffffffffff168273ffffffffffffffffffffffffffffffffffffffff1614612853576128528282612b6a565b5b5b505050565b600080823b905060008111915050919050565b505050565b6008805490506009600083815260200190815260200160002081905550600881908060018154018082558091505060019003906000526020600020016000909190919091505550565b600060016128c78461122b565b6128d19190613dc3565b90506000600760008481526020019081526020016000205490508181146129b6576000600660008673ffffffffffffffffffffffffffffffffffffffff1673ffffffffffffffffffffffffffffffffffffffff168152602001908152602001600020600084815260200190815260200160002054905080600660008773ffffffffffffffffffffffffffffffffffffffff1673ffffffffffffffffffffffffffffffffffffffff168152602001908152602001600020600084815260200190815260200160002081905550816007600083815260200190815260200160002081905550505b6007600084815260200190815260200160002060009055600660008573ffffffffffffffffffffffffffffffffffffffff1673ffffffffffffffffffffffffffffffffffffffff16815260200190815260200160002060008381526020019081526020016000206000905550505050565b60006001600880549050612a3b9190613dc3565b9050600060096000848152602001908152602001600020549050600060088381548110612a91577f4e487b7100000000000000000000000000000000000000000000000000000000600052603260045260246000fd5b906000526020600020015490508060088381548110612ad9577f4e487b7100000000000000000000000000000000000000000000000000000000600052603260045260246000fd5b906000526020600020018190555081600960008381526020019081526020016000208190555060096000858152602001908152602001600020600090556008805480612b4e577f4e487b7100000000000000000000000000000000000000000000000000000000600052603160045260246000fd5b6001900381819060005260206000200160009055905550505050565b6000612b758361122b565b905081600660008573ffffffffffffffffffffffffffffffffffffffff1673ffffffffffffffffffffffffffffffffffffffff168152602001908152602001600020600083815260200190815260200160002081905550806007600084815260200190815260200160002081905550505050565b828054612bf590613ead565b90600052602060002090601f016020900481019282612c175760008555612c5e565b82601f10612c3057803560ff1916838001178555612c5e565b82800160010185558215612c5e579182015b82811115612c5d578235825591602001919060010190612c42565b5b509050612c6b9190612c6f565b5090565b5b80821115612c88576000816000905550600101612c70565b5090565b6000612c9f612c9a84613c80565b613c4f565b905082815260208101848484011115612cb757600080fd5b612cc2848285613e6b565b509392505050565b6000612cdd612cd884613cb0565b613c4f565b905082815260208101848484011115612cf557600080fd5b612d00848285613e6b565b509392505050565b600081359050612d1781613fc6565b92915050565b60008083601f840112612d2f57600080fd5b8235905067ffffffffffffffff811115612d4857600080fd5b602083019150836020820283011115612d6057600080fd5b9250929050565b600081359050612d7681613fdd565b92915050565b600081359050612d8b81613ff4565b92915050565b600081519050612da081613ff4565b92915050565b600082601f830112612db757600080fd5b8135612dc7848260208601612c8c565b91505092915050565b600082601f830112612de157600080fd5b8135612df1848260208601612cca565b91505092915050565b600081359050612e098161400b565b92915050565b600060208284031215612e2157600080fd5b6000612e2f84828501612d08565b91505092915050565b60008060408385031215612e4b57600080fd5b6000612e5985828601612d08565b9250506020612e6a85828601612d08565b9150509250929050565b600080600060608486031215612e8957600080fd5b6000612e9786828701612d08565b9350506020612ea886828701612d08565b9250506040612eb986828701612dfa565b9150509250925092565b60008060008060808587031215612ed957600080fd5b6000612ee787828801612d08565b9450506020612ef887828801612d08565b9350506040612f0987828801612dfa565b925050606085013567ffffffffffffffff811115612f2657600080fd5b612f3287828801612da6565b91505092959194509250565b60008060408385031215612f5157600080fd5b6000612f5f85828601612d08565b9250506020612f7085828601612d67565b9150509250929050565b60008060408385031215612f8d57600080fd5b6000612f9b85828601612d08565b9250506020612fac85828601612dfa565b9150509250929050565b600080600080600060608688031215612fce57600080fd5b600086013567ffffffffffffffff811115612fe857600080fd5b612ff488828901612d1d565b9550955050602086013567ffffffffffffffff81111561301357600080fd5b61301f88828901612d1d565b9350935050604061303288828901612dfa565b9150509295509295909350565b60006020828403121561305157600080fd5b600061305f84828501612d7c565b91505092915050565b60006020828403121561307a57600080fd5b600061308884828501612d91565b91505092915050565b6000602082840312156130a357600080fd5b600082013567ffffffffffffffff8111156130bd57600080fd5b6130c984828501612dd0565b91505092915050565b6000602082840312156130e457600080fd5b60006130f284828501612dfa565b91505092915050565b60006131078383613200565b905092915050565b61311881613df7565b82525050565b600061312982613cf0565b6131338185613d1e565b93508360208202850161314585613ce0565b8060005b85811015613181578484038952815161316285826130fb565b945061316d83613d11565b925060208a01995050600181019050613149565b50829750879550505050505092915050565b61319c81613e09565b82525050565b60006131ad82613cfb565b6131b78185613d2f565b93506131c7818560208601613e7a565b6131d081613fb5565b840191505092915050565b60006131e78385613d62565b93506131f4838584613e6b565b82840190509392505050565b600061320b82613d06565b6132158185613d40565b9350613225818560208601613e7a565b61322e81613fb5565b840191505092915050565b600061324482613d06565b61324e8185613d51565b935061325e818560208601613e7a565b61326781613fb5565b840191505092915050565b600061327d82613d06565b6132878185613d62565b9350613297818560208601613e7a565b80840191505092915050565b60006132b0602b83613d51565b91507f455243373231456e756d657261626c653a206f776e657220696e646578206f7560008301527f74206f6620626f756e64730000000000000000000000000000000000000000006020830152604082019050919050565b6000613316603283613d51565b91507f4552433732313a207472616e7366657220746f206e6f6e20455243373231526560008301527f63656976657220696d706c656d656e74657200000000000000000000000000006020830152604082019050919050565b600061337c601c83613d51565b91507f4552433732313a20746f6b656e20616c7265616479206d696e746564000000006000830152602082019050919050565b60006133bc602483613d51565b91507f4552433732313a207472616e7366657220746f20746865207a65726f2061646460008301527f72657373000000000000000000000000000000000000000000000000000000006020830152604082019050919050565b6000613422601983613d51565b91507f4552433732313a20617070726f766520746f2063616c6c6572000000000000006000830152602082019050919050565b6000613462601c83613d51565b91507f496d6167652069732067657474696e67207573656420747769636573000000006000830152602082019050919050565b60006134a2602c83613d51565b91507f4552433732313a206f70657261746f7220717565727920666f72206e6f6e657860008301527f697374656e7420746f6b656e00000000000000000000000000000000000000006020830152604082019050919050565b6000613508603883613d51565b91507f4552433732313a20617070726f76652063616c6c6572206973206e6f74206f7760008301527f6e6572206e6f7220617070726f76656420666f7220616c6c00000000000000006020830152604082019050919050565b600061356e602a83613d51565b91507f4552433732313a2062616c616e636520717565727920666f7220746865207a6560008301527f726f2061646472657373000000000000000000000000000000000000000000006020830152604082019050919050565b60006135d4602983613d51565b91507f4552433732313a206f776e657220717565727920666f72206e6f6e657869737460008301527f656e7420746f6b656e00000000000000000000000000000000000000000000006020830152604082019050919050565b600061363a602083613d51565b91507f4552433732313a206d696e7420746f20746865207a65726f20616464726573736000830152602082019050919050565b600061367a602c83613d51565b91507f4552433732313a20617070726f76656420717565727920666f72206e6f6e657860008301527f697374656e7420746f6b656e00000000000000000000000000000000000000006020830152604082019050919050565b60006136e0602983613d51565b91507f4552433732313a207472616e73666572206f6620746f6b656e2074686174206960008301527f73206e6f74206f776e00000000000000000000000000000000000000000000006020830152604082019050919050565b6000613746602183613d51565b91507f4552433732313a20617070726f76616c20746f2063757272656e74206f776e6560008301527f72000000000000000000000000000000000000000000000000000000000000006020830152604082019050919050565b60006137ac603183613d51565b91507f4552433732313a207472616e736665722063616c6c6572206973206e6f74206f60008301527f776e6572206e6f7220617070726f7665640000000000000000000000000000006020830152604082019050919050565b6000613812602c83613d51565b91507f455243373231456e756d657261626c653a20676c6f62616c20696e646578206f60008301527f7574206f6620626f756e647300000000000000000000000000000000000000006020830152604082019050919050565b6000613878601383613d51565b91507f57696e6520616c726561647920657869737473000000000000000000000000006000830152602082019050919050565b6138b481613e61565b82525050565b60006138c78284866131db565b91508190509392505050565b60006138df8285613272565b91506138eb8284613272565b91508190509392505050565b600060208201905061390c600083018461310f565b92915050565b6000608082019050613927600083018761310f565b613934602083018661310f565b61394160408301856138ab565b818103606083015261395381846131a2565b905095945050505050565b60006020820190508181036000830152613978818461311e565b905092915050565b60006020820190506139956000830184613193565b92915050565b600060208201905081810360008301526139b58184613239565b905092915050565b600060208201905081810360008301526139d6816132a3565b9050919050565b600060208201905081810360008301526139f681613309565b9050919050565b60006020820190508181036000830152613a168161336f565b9050919050565b60006020820190508181036000830152613a36816133af565b9050919050565b60006020820190508181036000830152613a5681613415565b9050919050565b60006020820190508181036000830152613a7681613455565b9050919050565b60006020820190508181036000830152613a9681613495565b9050919050565b60006020820190508181036000830152613ab6816134fb565b9050919050565b60006020820190508181036000830152613ad681613561565b9050919050565b60006020820190508181036000830152613af6816135c7565b9050919050565b60006020820190508181036000830152613b168161362d565b9050919050565b60006020820190508181036000830152613b368161366d565b9050919050565b60006020820190508181036000830152613b56816136d3565b9050919050565b60006020820190508181036000830152613b7681613739565b9050919050565b60006020820190508181036000830152613b968161379f565b9050919050565b60006020820190508181036000830152613bb681613805565b9050919050565b60006020820190508181036000830152613bd68161386b565b9050919050565b6000602082019050613bf260008301846138ab565b92915050565b60008083356001602003843603038112613c1157600080fd5b80840192508235915067ffffffffffffffff821115613c2f57600080fd5b602083019250600182023603831315613c4757600080fd5b509250929050565b6000604051905081810181811067ffffffffffffffff82111715613c7657613c75613f86565b5b8060405250919050565b600067ffffffffffffffff821115613c9b57613c9a613f86565b5b601f19601f8301169050602081019050919050565b600067ffffffffffffffff821115613ccb57613cca613f86565b5b601f19601f8301169050602081019050919050565b6000819050602082019050919050565b600081519050919050565b600081519050919050565b600081519050919050565b6000602082019050919050565b600082825260208201905092915050565b600082825260208201905092915050565b600082825260208201905092915050565b600082825260208201905092915050565b600081905092915050565b6000613d7882613e61565b9150613d8383613e61565b9250827fffffffffffffffffffffffffffffffffffffffffffffffffffffffffffffffff03821115613db857613db7613f28565b5b828201905092915050565b6000613dce82613e61565b9150613dd983613e61565b925082821015613dec57613deb613f28565b5b828203905092915050565b6000613e0282613e41565b9050919050565b60008115159050919050565b60007fffffffff0000000000000000000000000000000000000000000000000000000082169050919050565b600073ffffffffffffffffffffffffffffffffffffffff82169050919050565b6000819050919050565b82818337600083830152505050565b60005b83811015613e98578082015181840152602081019050613e7d565b83811115613ea7576000848401525b50505050565b60006002820490506001821680613ec557607f821691505b60208210811415613ed957613ed8613f57565b5b50919050565b6000613eea82613e61565b91507fffffffffffffffffffffffffffffffffffffffffffffffffffffffffffffffff821415613f1d57613f1c613f28565b5b600182019050919050565b7f4e487b7100000000000000000000000000000000000000000000000000000000600052601160045260246000fd5b7f4e487b7100000000000000000000000000000000000000000000000000000000600052602260045260246000fd5b7f4e487b7100000000000000000000000000000000000000000000000000000000600052604160045260246000fd5b6000601f19601f8301169050919050565b613fcf81613df7565b8114613fda57600080fd5b50565b613fe681613e09565b8114613ff157600080fd5b50565b613ffd81613e15565b811461400857600080fd5b50565b61401481613e61565b811461401f57600080fd5b5056fea26469706673582212200ea983c6f7ec198ccf4603c680812744bbfa4783e5350d07acaa29dd50f7e0e164736f6c63430008000033516d5a313853793361766358796a6532513758345238365844366f435232546a38355855376653715443675a4268",
  "immutableReferences": {},
  "source": "pragma solidity ^0.8.0;\n\nimport \"@openzeppelin/contracts/token/ERC721/ERC721.sol\";\nimport \"@openzeppelin/contracts/token/ERC721/extensions/ERC721Enumerable.sol\";\n\nimport \"@openzeppelin/contracts/token/ERC20/IERC20.sol\";\n\n\n\n// import \"./ERC721Full.sol\";\n\ncontract Wine is ERC721, ERC721Enumerable {\n\n    // to keep the wine count\n    uint public wineCount = 0;\n    \n\n    // to keep the track of ipfshash with data\n    mapping(uint => string) public wineData;\n    \n    // to keep check if the wine exists or not\n    mapping(string => bool) public wineExist;\n\n     // to keep check if the same images is getting used\n    mapping(string => bool) public imageExist;\n\n    // array to store all the ipfs hashes\n\n    string[] public wineHashes;\n    string[] public imageHashes;\n\n    event WineHash(string[] wineHash); \n\n    string public ipfsDataHash = \"QmZ18Sy3avcXyje2Q7X4R86XD6oCR2Tj85XU7fSqTCgZBh\";\n\n        constructor() ERC721(\"Wine\", \"WINE\") public {\n        }\n\n    function _beforeTokenTransfer(address from, address to, uint256 tokenId)\n    internal\n    override(ERC721, ERC721Enumerable)\n    {\n        super._beforeTokenTransfer(from, to, tokenId);\n    }\n\n    function supportsInterface(bytes4 interfaceId)\n    public\n    view\n    override(ERC721, ERC721Enumerable)\n    returns (bool)\n    {\n        return super.supportsInterface(interfaceId);\n    }\n\n    function getMintedImages(string[] calldata _wineHash, string[] calldata _imageHash, uint wineAmount) public returns(string[] memory) {\n            for(uint i=0;i<wineAmount;i++){\n                require(!wineExist[_wineHash[i]],\"Wine already exists\");\n                require(!imageExist[_imageHash[i]],\"Image is getting used twices\");\n                wineHashes.push(_wineHash[i]);\n                imageHashes.push(_imageHash[i]);\n                uint _id = imageHashes.length - 1;\n                // _mint(msg.sender,_id);\n                wineData[_id] = _wineHash[i];\n                imageExist[_imageHash[i]] = true;\n                wineExist[_wineHash[i]] = true;\n            }\n        return wineHashes;\n        }\n\n\n    function mint(string[] calldata _wineHash, string[] calldata _imageHash, uint wineAmount) public {\n        // WineHash(_wineHash);\n        // require(!wineExist[_wineHash],\"Wine already exists\");\n        // require(!imageExist[_imageHash],\"Image is getting used twices\");\n        //     wineHashes.push(_wineHash);\n        //     imageHashes.push(_imageHash);\n        //     uint _id = imageHashes.length - 1;\n        //     _mint(msg.sender,_id);\n        //     wineData[_id] = _wineHash;\n        //     imageExist[_imageHash] = true;\n        //     wineExist[_wineHash] = true;\n        //     wineCount ++; \n        for(uint i=0;i<wineAmount;i++){\n            require(!wineExist[_wineHash[i]],\"Wine already exists\");\n            require(!imageExist[_imageHash[i]],\"Image is getting used twices\");\n            wineHashes.push(_wineHash[i]);\n            imageHashes.push(_imageHash[i]);\n            uint _id = imageHashes.length - 1;\n            _mint(msg.sender,_id);\n            wineData[_id] = _wineHash[i];\n            imageExist[_imageHash[i]] = true;\n            wineExist[_wineHash[i]] = true;\n        }\n\n    }\n\n    function _baseURI() internal view virtual override returns (string memory) {\n        return \"https://ipfs.io/ipfs/\";\n    }\n\n    function getData() public view returns (string memory) {\n        return ipfsDataHash;\n    }\n\n    function getMintedImages() public view returns(string[] memory) {\n        return imageHashes;\n        }\n\n    function tokenURI(uint256 tokenId) public view virtual override returns (string memory) {\n        // require(_exists(tokenId), \"ERC721Metadata: URI query for nonexistent token\");\n\n        string memory baseURI = _baseURI();\n        string memory tokenHash = wineData[tokenId];\n        return string(abi.encodePacked(baseURI, tokenHash));\n        // return bytes(baseURI).length > 0 ? string(abi.encodePacked(baseURI, tokenId.toString())) : \"\";\n    }\n  \n}\n\n",
  "sourcePath": "/home/abhishek/Desktop/Code/BoredPhase2/contracts/Wine.sol",
  "compiler": {
    "name": "solc",
    "version": "0.8.0+commit.c7dfd78e.Linux.g++"
  },
  "schemaVersion": "3.4.3",
  "updatedAt": "2021-12-08T19:24:50.268Z",
  "networkType": "ethereum",
  "devdoc": {
    "kind": "dev",
    "methods": {
      "approve(address,uint256)": {
        "details": "See {IERC721-approve}."
      },
      "balanceOf(address)": {
        "details": "See {IERC721-balanceOf}."
      },
      "getApproved(uint256)": {
        "details": "See {IERC721-getApproved}."
      },
      "isApprovedForAll(address,address)": {
        "details": "See {IERC721-isApprovedForAll}."
      },
      "name()": {
        "details": "See {IERC721Metadata-name}."
      },
      "ownerOf(uint256)": {
        "details": "See {IERC721-ownerOf}."
      },
      "safeTransferFrom(address,address,uint256)": {
        "details": "See {IERC721-safeTransferFrom}."
      },
      "safeTransferFrom(address,address,uint256,bytes)": {
        "details": "See {IERC721-safeTransferFrom}."
      },
      "setApprovalForAll(address,bool)": {
        "details": "See {IERC721-setApprovalForAll}."
      },
      "symbol()": {
        "details": "See {IERC721Metadata-symbol}."
      },
      "tokenByIndex(uint256)": {
        "details": "See {IERC721Enumerable-tokenByIndex}."
      },
      "tokenOfOwnerByIndex(address,uint256)": {
        "details": "See {IERC721Enumerable-tokenOfOwnerByIndex}."
      },
      "tokenURI(uint256)": {
        "details": "See {IERC721Metadata-tokenURI}."
      },
      "totalSupply()": {
        "details": "See {IERC721Enumerable-totalSupply}."
      },
      "transferFrom(address,address,uint256)": {
        "details": "See {IERC721-transferFrom}."
      }
    },
    "version": 1
  },
  "userdoc": {
    "kind": "user",
    "methods": {},
    "version": 1
  }
}