{
  "contractName": "Wine",
  "abi": [
    {
      "inputs": [],
      "stateMutability": "nonpayable",
      "type": "constructor"
    },
    {
      "anonymous": false,
      "inputs": [
        {
          "indexed": true,
          "internalType": "address",
          "name": "owner",
          "type": "address"
        },
        {
          "indexed": true,
          "internalType": "address",
          "name": "approved",
          "type": "address"
        },
        {
          "indexed": true,
          "internalType": "uint256",
          "name": "tokenId",
          "type": "uint256"
        }
      ],
      "name": "Approval",
      "type": "event"
    },
    {
      "anonymous": false,
      "inputs": [
        {
          "indexed": true,
          "internalType": "address",
          "name": "owner",
          "type": "address"
        },
        {
          "indexed": true,
          "internalType": "address",
          "name": "operator",
          "type": "address"
        },
        {
          "indexed": false,
          "internalType": "bool",
          "name": "approved",
          "type": "bool"
        }
      ],
      "name": "ApprovalForAll",
      "type": "event"
    },
    {
      "anonymous": false,
      "inputs": [
        {
          "indexed": true,
          "internalType": "address",
          "name": "from",
          "type": "address"
        },
        {
          "indexed": true,
          "internalType": "address",
          "name": "to",
          "type": "address"
        },
        {
          "indexed": true,
          "internalType": "uint256",
          "name": "tokenId",
          "type": "uint256"
        }
      ],
      "name": "Transfer",
      "type": "event"
    },
    {
      "inputs": [
        {
          "internalType": "address",
          "name": "to",
          "type": "address"
        },
        {
          "internalType": "uint256",
          "name": "tokenId",
          "type": "uint256"
        }
      ],
      "name": "approve",
      "outputs": [],
      "stateMutability": "nonpayable",
      "type": "function"
    },
    {
      "inputs": [
        {
          "internalType": "address",
          "name": "owner",
          "type": "address"
        }
      ],
      "name": "balanceOf",
      "outputs": [
        {
          "internalType": "uint256",
          "name": "",
          "type": "uint256"
        }
      ],
      "stateMutability": "view",
      "type": "function",
      "constant": true
    },
    {
      "inputs": [
        {
          "internalType": "uint256",
          "name": "tokenId",
          "type": "uint256"
        }
      ],
      "name": "getApproved",
      "outputs": [
        {
          "internalType": "address",
          "name": "",
          "type": "address"
        }
      ],
      "stateMutability": "view",
      "type": "function",
      "constant": true
    },
    {
      "inputs": [
        {
          "internalType": "string",
          "name": "",
          "type": "string"
        }
      ],
      "name": "imageExist",
      "outputs": [
        {
          "internalType": "bool",
          "name": "",
          "type": "bool"
        }
      ],
      "stateMutability": "view",
      "type": "function",
      "constant": true
    },
    {
      "inputs": [
        {
          "internalType": "uint256",
          "name": "",
          "type": "uint256"
        }
      ],
      "name": "imageHashes",
      "outputs": [
        {
          "internalType": "string",
          "name": "",
          "type": "string"
        }
      ],
      "stateMutability": "view",
      "type": "function",
      "constant": true
    },
    {
      "inputs": [],
      "name": "ipfsDataHash",
      "outputs": [
        {
          "internalType": "string",
          "name": "",
          "type": "string"
        }
      ],
      "stateMutability": "view",
      "type": "function",
      "constant": true
    },
    {
      "inputs": [
        {
          "internalType": "address",
          "name": "owner",
          "type": "address"
        },
        {
          "internalType": "address",
          "name": "operator",
          "type": "address"
        }
      ],
      "name": "isApprovedForAll",
      "outputs": [
        {
          "internalType": "bool",
          "name": "",
          "type": "bool"
        }
      ],
      "stateMutability": "view",
      "type": "function",
      "constant": true
    },
    {
      "inputs": [],
      "name": "name",
      "outputs": [
        {
          "internalType": "string",
          "name": "",
          "type": "string"
        }
      ],
      "stateMutability": "view",
      "type": "function",
      "constant": true
    },
    {
      "inputs": [
        {
          "internalType": "uint256",
          "name": "tokenId",
          "type": "uint256"
        }
      ],
      "name": "ownerOf",
      "outputs": [
        {
          "internalType": "address",
          "name": "",
          "type": "address"
        }
      ],
      "stateMutability": "view",
      "type": "function",
      "constant": true
    },
    {
      "inputs": [
        {
          "internalType": "address",
          "name": "from",
          "type": "address"
        },
        {
          "internalType": "address",
          "name": "to",
          "type": "address"
        },
        {
          "internalType": "uint256",
          "name": "tokenId",
          "type": "uint256"
        }
      ],
      "name": "safeTransferFrom",
      "outputs": [],
      "stateMutability": "nonpayable",
      "type": "function"
    },
    {
      "inputs": [
        {
          "internalType": "address",
          "name": "from",
          "type": "address"
        },
        {
          "internalType": "address",
          "name": "to",
          "type": "address"
        },
        {
          "internalType": "uint256",
          "name": "tokenId",
          "type": "uint256"
        },
        {
          "internalType": "bytes",
          "name": "_data",
          "type": "bytes"
        }
      ],
      "name": "safeTransferFrom",
      "outputs": [],
      "stateMutability": "nonpayable",
      "type": "function"
    },
    {
      "inputs": [
        {
          "internalType": "address",
          "name": "operator",
          "type": "address"
        },
        {
          "internalType": "bool",
          "name": "approved",
          "type": "bool"
        }
      ],
      "name": "setApprovalForAll",
      "outputs": [],
      "stateMutability": "nonpayable",
      "type": "function"
    },
    {
      "inputs": [],
      "name": "symbol",
      "outputs": [
        {
          "internalType": "string",
          "name": "",
          "type": "string"
        }
      ],
      "stateMutability": "view",
      "type": "function",
      "constant": true
    },
    {
      "inputs": [
        {
          "internalType": "uint256",
          "name": "index",
          "type": "uint256"
        }
      ],
      "name": "tokenByIndex",
      "outputs": [
        {
          "internalType": "uint256",
          "name": "",
          "type": "uint256"
        }
      ],
      "stateMutability": "view",
      "type": "function",
      "constant": true
    },
    {
      "inputs": [
        {
          "internalType": "address",
          "name": "owner",
          "type": "address"
        },
        {
          "internalType": "uint256",
          "name": "index",
          "type": "uint256"
        }
      ],
      "name": "tokenOfOwnerByIndex",
      "outputs": [
        {
          "internalType": "uint256",
          "name": "",
          "type": "uint256"
        }
      ],
      "stateMutability": "view",
      "type": "function",
      "constant": true
    },
    {
      "inputs": [],
      "name": "totalSupply",
      "outputs": [
        {
          "internalType": "uint256",
          "name": "",
          "type": "uint256"
        }
      ],
      "stateMutability": "view",
      "type": "function",
      "constant": true
    },
    {
      "inputs": [
        {
          "internalType": "address",
          "name": "from",
          "type": "address"
        },
        {
          "internalType": "address",
          "name": "to",
          "type": "address"
        },
        {
          "internalType": "uint256",
          "name": "tokenId",
          "type": "uint256"
        }
      ],
      "name": "transferFrom",
      "outputs": [],
      "stateMutability": "nonpayable",
      "type": "function"
    },
    {
      "inputs": [],
      "name": "wineCount",
      "outputs": [
        {
          "internalType": "uint256",
          "name": "",
          "type": "uint256"
        }
      ],
      "stateMutability": "view",
      "type": "function",
      "constant": true
    },
    {
      "inputs": [
        {
          "internalType": "uint256",
          "name": "",
          "type": "uint256"
        }
      ],
      "name": "wineData",
      "outputs": [
        {
          "internalType": "string",
          "name": "",
          "type": "string"
        }
      ],
      "stateMutability": "view",
      "type": "function",
      "constant": true
    },
    {
      "inputs": [
        {
          "internalType": "string",
          "name": "",
          "type": "string"
        }
      ],
      "name": "wineExist",
      "outputs": [
        {
          "internalType": "bool",
          "name": "",
          "type": "bool"
        }
      ],
      "stateMutability": "view",
      "type": "function",
      "constant": true
    },
    {
      "inputs": [
        {
          "internalType": "uint256",
          "name": "",
          "type": "uint256"
        }
      ],
      "name": "wineHashes",
      "outputs": [
        {
          "internalType": "string",
          "name": "",
          "type": "string"
        }
      ],
      "stateMutability": "view",
      "type": "function",
      "constant": true
    },
    {
      "inputs": [
        {
          "internalType": "bytes4",
          "name": "interfaceId",
          "type": "bytes4"
        }
      ],
      "name": "supportsInterface",
      "outputs": [
        {
          "internalType": "bool",
          "name": "",
          "type": "bool"
        }
      ],
      "stateMutability": "view",
      "type": "function",
      "constant": true
    },
    {
      "inputs": [
        {
          "internalType": "string",
          "name": "_wineHash",
          "type": "string"
        },
        {
          "internalType": "string",
          "name": "_imageHash",
          "type": "string"
        }
      ],
      "name": "mint",
      "outputs": [],
      "stateMutability": "nonpayable",
      "type": "function"
    },
    {
      "inputs": [],
      "name": "getData",
      "outputs": [
        {
          "internalType": "string",
          "name": "",
          "type": "string"
        }
      ],
      "stateMutability": "view",
      "type": "function",
      "constant": true
    },
    {
      "inputs": [],
      "name": "getMintedImages",
      "outputs": [
        {
          "internalType": "string[]",
          "name": "",
          "type": "string[]"
        }
      ],
      "stateMutability": "view",
      "type": "function",
      "constant": true
    },
    {
      "inputs": [
        {
          "internalType": "uint256",
          "name": "tokenId",
          "type": "uint256"
        }
      ],
      "name": "tokenURI",
      "outputs": [
        {
          "internalType": "string",
          "name": "",
          "type": "string"
        }
      ],
      "stateMutability": "view",
      "type": "function",
      "constant": true
    }
  ],
  "bytecode": "0x60806040526000600a556040518060600160405280602e8152602001620036bc602e9139601090805190602001906200003a929190620000ef565b503480156200004857600080fd5b506040518060400160405280600481526020017f57696e65000000000000000000000000000000000000000000000000000000008152506040518060400160405280600481526020017f57494e45000000000000000000000000000000000000000000000000000000008152508160009080519060200190620000cd929190620000ef565b508060019080519060200190620000e6929190620000ef565b50505062000204565b828054620000fd906200019f565b90600052602060002090601f0160209004810192826200012157600085556200016d565b82601f106200013c57805160ff19168380011785556200016d565b828001600101855582156200016d579182015b828111156200016c5782518255916020019190600101906200014f565b5b5090506200017c919062000180565b5090565b5b808211156200019b57600081600090555060010162000181565b5090565b60006002820490506001821680620001b857607f821691505b60208210811415620001cf57620001ce620001d5565b5b50919050565b7f4e487b7100000000000000000000000000000000000000000000000000000000600052602260045260246000fd5b6134a880620002146000396000f3fe608060405234801561001057600080fd5b50600436106101ab576000357c01000000000000000000000000000000000000000000000000000000009004806359b07c26116100fb57806395d89b41116100b4578063b1e4ba9c1161008e578063b1e4ba9c14610500578063b88d4fde1461051e578063c87b56dd1461053a578063e985e9c51461056a576101ab565b806395d89b4114610496578063a22cb465146104b4578063a8d4ab6c146104d0576101ab565b806359b07c261461039c5780636352211e146103cc5780636b9aac96146103fc57806370a082311461041a5780637e8a3dbe1461044a5780638aa0fdad1461047a576101ab565b8063236bfc73116101685780633bc5de30116101425780633bc5de301461030257806342842e0e146103205780634f6ccce71461033c57806357a152411461036c576101ab565b8063236bfc731461029857806323b872dd146102b65780632f745c59146102d2576101ab565b806301ffc9a7146101b057806306fdde03146101e0578063081812fc146101fe578063095ea7b31461022e578063174aafb81461024a57806318160ddd1461027a575b600080fd5b6101ca60048036038101906101c59190612578565b61059a565b6040516101d79190612e67565b60405180910390f35b6101e86105ac565b6040516101f59190612e82565b60405180910390f35b61021860048036038101906102139190612677565b61063e565b6040516102259190612dde565b60405180910390f35b6102486004803603810190610243919061253c565b6106c3565b005b610264600480360381019061025f91906125ca565b6107db565b6040516102719190612e67565b60405180910390f35b610282610811565b60405161028f9190613084565b60405180910390f35b6102a061081e565b6040516102ad9190612e45565b60405180910390f35b6102d060048036038101906102cb9190612436565b6108f7565b005b6102ec60048036038101906102e7919061253c565b610957565b6040516102f99190613084565b60405180910390f35b61030a6109fc565b6040516103179190612e82565b60405180910390f35b61033a60048036038101906103359190612436565b610a8e565b005b61035660048036038101906103519190612677565b610aae565b6040516103639190613084565b60405180910390f35b610386600480360381019061038191906125ca565b610b45565b6040516103939190612e67565b60405180910390f35b6103b660048036038101906103b19190612677565b610b7b565b6040516103c39190612e82565b60405180910390f35b6103e660048036038101906103e19190612677565b610c27565b6040516103f39190612dde565b60405180910390f35b610404610cd9565b6040516104119190613084565b60405180910390f35b610434600480360381019061042f91906123d1565b610cdf565b6040516104419190613084565b60405180910390f35b610464600480360381019061045f9190612677565b610d97565b6040516104719190612e82565b60405180910390f35b610494600480360381019061048f919061260b565b610e37565b005b61049e610e65565b6040516104ab9190612e82565b60405180910390f35b6104ce60048036038101906104c99190612500565b610ef7565b005b6104ea60048036038101906104e59190612677565b611078565b6040516104f79190612e82565b60405180910390f35b610508611124565b6040516105159190612e82565b60405180910390f35b61053860048036038101906105339190612485565b6111b2565b005b610554600480360381019061054f9190612677565b611214565b6040516105619190612e82565b60405180910390f35b610584600480360381019061057f91906123fa565b6112ed565b6040516105919190612e67565b60405180910390f35b60006105a582611381565b9050919050565b6060600080546105bb906132fd565b80601f01602080910402602001604051908101604052809291908181526020018280546105e7906132fd565b80156106345780601f1061060957610100808354040283529160200191610634565b820191906000526020600020905b81548152906001019060200180831161061757829003601f168201915b5050505050905090565b6000610649826113fb565b610688576040517f08c379a000000000000000000000000000000000000000000000000000000000815260040161067f90612fe4565b60405180910390fd5b6004600083815260200190815260200160002060009054906101000a900473ffffffffffffffffffffffffffffffffffffffff169050919050565b60006106ce82610c27565b90508073ffffffffffffffffffffffffffffffffffffffff168373ffffffffffffffffffffffffffffffffffffffff16141561073f576040517f08c379a000000000000000000000000000000000000000000000000000000000815260040161073690613024565b60405180910390fd5b8073ffffffffffffffffffffffffffffffffffffffff1661075e611467565b73ffffffffffffffffffffffffffffffffffffffff16148061078d575061078c81610787611467565b6112ed565b5b6107cc576040517f08c379a00000000000000000000000000000000000000000000000000000000081526004016107c390612f64565b60405180910390fd5b6107d6838361146f565b505050565b600d818051602081018201805184825260208301602085012081835280955050505050506000915054906101000a900460ff1681565b6000600880549050905090565b6060600f805480602002602001604051908101604052809291908181526020016000905b828210156108ee578382906000526020600020018054610861906132fd565b80601f016020809104026020016040519081016040528092919081815260200182805461088d906132fd565b80156108da5780601f106108af576101008083540402835291602001916108da565b820191906000526020600020905b8154815290600101906020018083116108bd57829003601f168201915b505050505081526020019060010190610842565b50505050905090565b610908610902611467565b82611528565b610947576040517f08c379a000000000000000000000000000000000000000000000000000000000815260040161093e90613044565b60405180910390fd5b610952838383611606565b505050565b600061096283610cdf565b82106109a3576040517f08c379a000000000000000000000000000000000000000000000000000000000815260040161099a90612ea4565b60405180910390fd5b600660008473ffffffffffffffffffffffffffffffffffffffff1673ffffffffffffffffffffffffffffffffffffffff168152602001908152602001600020600083815260200190815260200160002054905092915050565b606060108054610a0b906132fd565b80601f0160208091040260200160405190810160405280929190818152602001828054610a37906132fd565b8015610a845780601f10610a5957610100808354040283529160200191610a84565b820191906000526020600020905b815481529060010190602001808311610a6757829003601f168201915b5050505050905090565b610aa9838383604051806020016040528060008152506111b2565b505050565b6000610ab8610811565b8210610af9576040517f08c379a0000000000000000000000000000000000000000000000000000000008152600401610af090613064565b60405180910390fd5b60088281548110610b33577f4e487b7100000000000000000000000000000000000000000000000000000000600052603260045260246000fd5b90600052602060002001549050919050565b600c818051602081018201805184825260208301602085012081835280955050505050506000915054906101000a900460ff1681565b600e8181548110610b8b57600080fd5b906000526020600020016000915090508054610ba6906132fd565b80601f0160208091040260200160405190810160405280929190818152602001828054610bd2906132fd565b8015610c1f5780601f10610bf457610100808354040283529160200191610c1f565b820191906000526020600020905b815481529060010190602001808311610c0257829003601f168201915b505050505081565b6000806002600084815260200190815260200160002060009054906101000a900473ffffffffffffffffffffffffffffffffffffffff169050600073ffffffffffffffffffffffffffffffffffffffff168173ffffffffffffffffffffffffffffffffffffffff161415610cd0576040517f08c379a0000000000000000000000000000000000000000000000000000000008152600401610cc790612fa4565b60405180910390fd5b80915050919050565b600a5481565b60008073ffffffffffffffffffffffffffffffffffffffff168273ffffffffffffffffffffffffffffffffffffffff161415610d50576040517f08c379a0000000000000000000000000000000000000000000000000000000008152600401610d4790612f84565b60405180910390fd5b600360008373ffffffffffffffffffffffffffffffffffffffff1673ffffffffffffffffffffffffffffffffffffffff168152602001908152602001600020549050919050565b600b6020528060005260406000206000915090508054610db6906132fd565b80601f0160208091040260200160405190810160405280929190818152602001828054610de2906132fd565b8015610e2f5780601f10610e0457610100808354040283529160200191610e2f565b820191906000526020600020905b815481529060010190602001808311610e1257829003601f168201915b505050505081565b60005b6006811015610e6057610e4d3382611862565b8080610e589061332f565b915050610e3a565b505050565b606060018054610e74906132fd565b80601f0160208091040260200160405190810160405280929190818152602001828054610ea0906132fd565b8015610eed5780601f10610ec257610100808354040283529160200191610eed565b820191906000526020600020905b815481529060010190602001808311610ed057829003601f168201915b5050505050905090565b610eff611467565b73ffffffffffffffffffffffffffffffffffffffff168273ffffffffffffffffffffffffffffffffffffffff161415610f6d576040517f08c379a0000000000000000000000000000000000000000000000000000000008152600401610f6490612f24565b60405180910390fd5b8060056000610f7a611467565b73ffffffffffffffffffffffffffffffffffffffff1673ffffffffffffffffffffffffffffffffffffffff16815260200190815260200160002060008473ffffffffffffffffffffffffffffffffffffffff1673ffffffffffffffffffffffffffffffffffffffff16815260200190815260200160002060006101000a81548160ff0219169083151502179055508173ffffffffffffffffffffffffffffffffffffffff16611027611467565b73ffffffffffffffffffffffffffffffffffffffff167f17307eab39ab6107e8899845ad3d59bd9653f200f220920489ca2b5937696c318360405161106c9190612e67565b60405180910390a35050565b600f818154811061108857600080fd5b9060005260206000200160009150905080546110a3906132fd565b80601f01602080910402602001604051908101604052809291908181526020018280546110cf906132fd565b801561111c5780601f106110f15761010080835404028352916020019161111c565b820191906000526020600020905b8154815290600101906020018083116110ff57829003601f168201915b505050505081565b60108054611131906132fd565b80601f016020809104026020016040519081016040528092919081815260200182805461115d906132fd565b80156111aa5780601f1061117f576101008083540402835291602001916111aa565b820191906000526020600020905b81548152906001019060200180831161118d57829003601f168201915b505050505081565b6111c36111bd611467565b83611528565b611202576040517f08c379a00000000000000000000000000000000000000000000000000000000081526004016111f990613044565b60405180910390fd5b61120e84848484611a30565b50505050565b60606000611220611a8c565b90506000600b60008581526020019081526020016000208054611242906132fd565b80601f016020809104026020016040519081016040528092919081815260200182805461126e906132fd565b80156112bb5780601f10611290576101008083540402835291602001916112bb565b820191906000526020600020905b81548152906001019060200180831161129e57829003601f168201915b5050505050905081816040516020016112d5929190612dba565b60405160208183030381529060405292505050919050565b6000600560008473ffffffffffffffffffffffffffffffffffffffff1673ffffffffffffffffffffffffffffffffffffffff16815260200190815260200160002060008373ffffffffffffffffffffffffffffffffffffffff1673ffffffffffffffffffffffffffffffffffffffff16815260200190815260200160002060009054906101000a900460ff16905092915050565b60007f780e9d63000000000000000000000000000000000000000000000000000000007bffffffffffffffffffffffffffffffffffffffffffffffffffffffff1916827bffffffffffffffffffffffffffffffffffffffffffffffffffffffff191614806113f457506113f382611ac9565b5b9050919050565b60008073ffffffffffffffffffffffffffffffffffffffff166002600084815260200190815260200160002060009054906101000a900473ffffffffffffffffffffffffffffffffffffffff1673ffffffffffffffffffffffffffffffffffffffff1614159050919050565b600033905090565b816004600083815260200190815260200160002060006101000a81548173ffffffffffffffffffffffffffffffffffffffff021916908373ffffffffffffffffffffffffffffffffffffffff160217905550808273ffffffffffffffffffffffffffffffffffffffff166114e283610c27565b73ffffffffffffffffffffffffffffffffffffffff167f8c5be1e5ebec7d5bd14f71427d1e84f3dd0314c0f7b2291e5b200ac8c7c3b92560405160405180910390a45050565b6000611533826113fb565b611572576040517f08c379a000000000000000000000000000000000000000000000000000000000815260040161156990612f44565b60405180910390fd5b600061157d83610c27565b90508073ffffffffffffffffffffffffffffffffffffffff168473ffffffffffffffffffffffffffffffffffffffff1614806115ec57508373ffffffffffffffffffffffffffffffffffffffff166115d48461063e565b73ffffffffffffffffffffffffffffffffffffffff16145b806115fd57506115fc81856112ed565b5b91505092915050565b8273ffffffffffffffffffffffffffffffffffffffff1661162682610c27565b73ffffffffffffffffffffffffffffffffffffffff161461167c576040517f08c379a000000000000000000000000000000000000000000000000000000000815260040161167390613004565b60405180910390fd5b600073ffffffffffffffffffffffffffffffffffffffff168273ffffffffffffffffffffffffffffffffffffffff1614156116ec576040517f08c379a00000000000000000000000000000000000000000000000000000000081526004016116e390612f04565b60405180910390fd5b6116f7838383611bab565b61170260008261146f565b6001600360008573ffffffffffffffffffffffffffffffffffffffff1673ffffffffffffffffffffffffffffffffffffffff16815260200190815260200160002060008282546117529190613213565b925050819055506001600360008473ffffffffffffffffffffffffffffffffffffffff1673ffffffffffffffffffffffffffffffffffffffff16815260200190815260200160002060008282546117a991906131bd565b92505081905550816002600083815260200190815260200160002060006101000a81548173ffffffffffffffffffffffffffffffffffffffff021916908373ffffffffffffffffffffffffffffffffffffffff160217905550808273ffffffffffffffffffffffffffffffffffffffff168473ffffffffffffffffffffffffffffffffffffffff167fddf252ad1be2c89b69c2b068fc378daa952ba7f163c4a11628f55a4df523b3ef60405160405180910390a4505050565b600073ffffffffffffffffffffffffffffffffffffffff168273ffffffffffffffffffffffffffffffffffffffff1614156118d2576040517f08c379a00000000000000000000000000000000000000000000000000000000081526004016118c990612fc4565b60405180910390fd5b6118db816113fb565b1561191b576040517f08c379a000000000000000000000000000000000000000000000000000000000815260040161191290612ee4565b60405180910390fd5b61192760008383611bab565b6001600360008473ffffffffffffffffffffffffffffffffffffffff1673ffffffffffffffffffffffffffffffffffffffff168152602001908152602001600020600082825461197791906131bd565b92505081905550816002600083815260200190815260200160002060006101000a81548173ffffffffffffffffffffffffffffffffffffffff021916908373ffffffffffffffffffffffffffffffffffffffff160217905550808273ffffffffffffffffffffffffffffffffffffffff16600073ffffffffffffffffffffffffffffffffffffffff167fddf252ad1be2c89b69c2b068fc378daa952ba7f163c4a11628f55a4df523b3ef60405160405180910390a45050565b611a3b848484611606565b611a4784848484611bbb565b611a86576040517f08c379a0000000000000000000000000000000000000000000000000000000008152600401611a7d90612ec4565b60405180910390fd5b50505050565b60606040518060400160405280601581526020017f68747470733a2f2f697066732e696f2f697066732f0000000000000000000000815250905090565b60007f80ac58cd000000000000000000000000000000000000000000000000000000007bffffffffffffffffffffffffffffffffffffffffffffffffffffffff1916827bffffffffffffffffffffffffffffffffffffffffffffffffffffffff19161480611b9457507f5b5e139f000000000000000000000000000000000000000000000000000000007bffffffffffffffffffffffffffffffffffffffffffffffffffffffff1916827bffffffffffffffffffffffffffffffffffffffffffffffffffffffff1916145b80611ba45750611ba382611d8a565b5b9050919050565b611bb6838383611df4565b505050565b6000611bdc8473ffffffffffffffffffffffffffffffffffffffff16611f08565b15611d7d578373ffffffffffffffffffffffffffffffffffffffff1663150b7a02611c05611467565b8786866040518563ffffffff167c0100000000000000000000000000000000000000000000000000000000028152600401611c439493929190612df9565b602060405180830381600087803b158015611c5d57600080fd5b505af1925050508015611c8e57506040513d601f19601f82011682018060405250810190611c8b91906125a1565b60015b611d11573d8060008114611cbe576040519150601f19603f3d011682016040523d82523d6000602084013e611cc3565b606091505b50600081511415611d09576040517f08c379a0000000000000000000000000000000000000000000000000000000008152600401611d0090612ec4565b60405180910390fd5b805181602001fd5b63150b7a027c0100000000000000000000000000000000000000000000000000000000027bffffffffffffffffffffffffffffffffffffffffffffffffffffffff1916817bffffffffffffffffffffffffffffffffffffffffffffffffffffffff191614915050611d82565b600190505b949350505050565b60007f01ffc9a7000000000000000000000000000000000000000000000000000000007bffffffffffffffffffffffffffffffffffffffffffffffffffffffff1916827bffffffffffffffffffffffffffffffffffffffffffffffffffffffff1916149050919050565b611dff838383611f1b565b600073ffffffffffffffffffffffffffffffffffffffff168373ffffffffffffffffffffffffffffffffffffffff161415611e4257611e3d81611f20565b611e81565b8173ffffffffffffffffffffffffffffffffffffffff168373ffffffffffffffffffffffffffffffffffffffff1614611e8057611e7f8382611f69565b5b5b600073ffffffffffffffffffffffffffffffffffffffff168273ffffffffffffffffffffffffffffffffffffffff161415611ec457611ebf816120d6565b611f03565b8273ffffffffffffffffffffffffffffffffffffffff168273ffffffffffffffffffffffffffffffffffffffff1614611f0257611f018282612219565b5b5b505050565b600080823b905060008111915050919050565b505050565b6008805490506009600083815260200190815260200160002081905550600881908060018154018082558091505060019003906000526020600020016000909190919091505550565b60006001611f7684610cdf565b611f809190613213565b9050600060076000848152602001908152602001600020549050818114612065576000600660008673ffffffffffffffffffffffffffffffffffffffff1673ffffffffffffffffffffffffffffffffffffffff168152602001908152602001600020600084815260200190815260200160002054905080600660008773ffffffffffffffffffffffffffffffffffffffff1673ffffffffffffffffffffffffffffffffffffffff168152602001908152602001600020600084815260200190815260200160002081905550816007600083815260200190815260200160002081905550505b6007600084815260200190815260200160002060009055600660008573ffffffffffffffffffffffffffffffffffffffff1673ffffffffffffffffffffffffffffffffffffffff16815260200190815260200160002060008381526020019081526020016000206000905550505050565b600060016008805490506120ea9190613213565b9050600060096000848152602001908152602001600020549050600060088381548110612140577f4e487b7100000000000000000000000000000000000000000000000000000000600052603260045260246000fd5b906000526020600020015490508060088381548110612188577f4e487b7100000000000000000000000000000000000000000000000000000000600052603260045260246000fd5b9060005260206000200181905550816009600083815260200190815260200160002081905550600960008581526020019081526020016000206000905560088054806121fd577f4e487b7100000000000000000000000000000000000000000000000000000000600052603160045260246000fd5b6001900381819060005260206000200160009055905550505050565b600061222483610cdf565b905081600660008573ffffffffffffffffffffffffffffffffffffffff1673ffffffffffffffffffffffffffffffffffffffff168152602001908152602001600020600083815260200190815260200160002081905550806007600084815260200190815260200160002081905550505050565b60006122ab6122a6846130d0565b61309f565b9050828152602081018484840111156122c357600080fd5b6122ce8482856132bb565b509392505050565b60006122e96122e484613100565b61309f565b90508281526020810184848401111561230157600080fd5b61230c8482856132bb565b509392505050565b60008135905061232381613416565b92915050565b6000813590506123388161342d565b92915050565b60008135905061234d81613444565b92915050565b60008151905061236281613444565b92915050565b600082601f83011261237957600080fd5b8135612389848260208601612298565b91505092915050565b600082601f8301126123a357600080fd5b81356123b38482602086016122d6565b91505092915050565b6000813590506123cb8161345b565b92915050565b6000602082840312156123e357600080fd5b60006123f184828501612314565b91505092915050565b6000806040838503121561240d57600080fd5b600061241b85828601612314565b925050602061242c85828601612314565b9150509250929050565b60008060006060848603121561244b57600080fd5b600061245986828701612314565b935050602061246a86828701612314565b925050604061247b868287016123bc565b9150509250925092565b6000806000806080858703121561249b57600080fd5b60006124a987828801612314565b94505060206124ba87828801612314565b93505060406124cb878288016123bc565b925050606085013567ffffffffffffffff8111156124e857600080fd5b6124f487828801612368565b91505092959194509250565b6000806040838503121561251357600080fd5b600061252185828601612314565b925050602061253285828601612329565b9150509250929050565b6000806040838503121561254f57600080fd5b600061255d85828601612314565b925050602061256e858286016123bc565b9150509250929050565b60006020828403121561258a57600080fd5b60006125988482850161233e565b91505092915050565b6000602082840312156125b357600080fd5b60006125c184828501612353565b91505092915050565b6000602082840312156125dc57600080fd5b600082013567ffffffffffffffff8111156125f657600080fd5b61260284828501612392565b91505092915050565b6000806040838503121561261e57600080fd5b600083013567ffffffffffffffff81111561263857600080fd5b61264485828601612392565b925050602083013567ffffffffffffffff81111561266157600080fd5b61266d85828601612392565b9150509250929050565b60006020828403121561268957600080fd5b6000612697848285016123bc565b91505092915050565b60006126ac8383612780565b905092915050565b6126bd81613247565b82525050565b60006126ce82613140565b6126d8818561316e565b9350836020820285016126ea85613130565b8060005b85811015612726578484038952815161270785826126a0565b945061271283613161565b925060208a019950506001810190506126ee565b50829750879550505050505092915050565b61274181613259565b82525050565b60006127528261314b565b61275c818561317f565b935061276c8185602086016132ca565b61277581613405565b840191505092915050565b600061278b82613156565b6127958185613190565b93506127a58185602086016132ca565b6127ae81613405565b840191505092915050565b60006127c482613156565b6127ce81856131a1565b93506127de8185602086016132ca565b6127e781613405565b840191505092915050565b60006127fd82613156565b61280781856131b2565b93506128178185602086016132ca565b80840191505092915050565b6000612830602b836131a1565b91507f455243373231456e756d657261626c653a206f776e657220696e646578206f7560008301527f74206f6620626f756e64730000000000000000000000000000000000000000006020830152604082019050919050565b60006128966032836131a1565b91507f4552433732313a207472616e7366657220746f206e6f6e20455243373231526560008301527f63656976657220696d706c656d656e74657200000000000000000000000000006020830152604082019050919050565b60006128fc601c836131a1565b91507f4552433732313a20746f6b656e20616c7265616479206d696e746564000000006000830152602082019050919050565b600061293c6024836131a1565b91507f4552433732313a207472616e7366657220746f20746865207a65726f2061646460008301527f72657373000000000000000000000000000000000000000000000000000000006020830152604082019050919050565b60006129a26019836131a1565b91507f4552433732313a20617070726f766520746f2063616c6c6572000000000000006000830152602082019050919050565b60006129e2602c836131a1565b91507f4552433732313a206f70657261746f7220717565727920666f72206e6f6e657860008301527f697374656e7420746f6b656e00000000000000000000000000000000000000006020830152604082019050919050565b6000612a486038836131a1565b91507f4552433732313a20617070726f76652063616c6c6572206973206e6f74206f7760008301527f6e6572206e6f7220617070726f76656420666f7220616c6c00000000000000006020830152604082019050919050565b6000612aae602a836131a1565b91507f4552433732313a2062616c616e636520717565727920666f7220746865207a6560008301527f726f2061646472657373000000000000000000000000000000000000000000006020830152604082019050919050565b6000612b146029836131a1565b91507f4552433732313a206f776e657220717565727920666f72206e6f6e657869737460008301527f656e7420746f6b656e00000000000000000000000000000000000000000000006020830152604082019050919050565b6000612b7a6020836131a1565b91507f4552433732313a206d696e7420746f20746865207a65726f20616464726573736000830152602082019050919050565b6000612bba602c836131a1565b91507f4552433732313a20617070726f76656420717565727920666f72206e6f6e657860008301527f697374656e7420746f6b656e00000000000000000000000000000000000000006020830152604082019050919050565b6000612c206029836131a1565b91507f4552433732313a207472616e73666572206f6620746f6b656e2074686174206960008301527f73206e6f74206f776e00000000000000000000000000000000000000000000006020830152604082019050919050565b6000612c866021836131a1565b91507f4552433732313a20617070726f76616c20746f2063757272656e74206f776e6560008301527f72000000000000000000000000000000000000000000000000000000000000006020830152604082019050919050565b6000612cec6031836131a1565b91507f4552433732313a207472616e736665722063616c6c6572206973206e6f74206f60008301527f776e6572206e6f7220617070726f7665640000000000000000000000000000006020830152604082019050919050565b6000612d52602c836131a1565b91507f455243373231456e756d657261626c653a20676c6f62616c20696e646578206f60008301527f7574206f6620626f756e647300000000000000000000000000000000000000006020830152604082019050919050565b612db4816132b1565b82525050565b6000612dc682856127f2565b9150612dd282846127f2565b91508190509392505050565b6000602082019050612df360008301846126b4565b92915050565b6000608082019050612e0e60008301876126b4565b612e1b60208301866126b4565b612e286040830185612dab565b8181036060830152612e3a8184612747565b905095945050505050565b60006020820190508181036000830152612e5f81846126c3565b905092915050565b6000602082019050612e7c6000830184612738565b92915050565b60006020820190508181036000830152612e9c81846127b9565b905092915050565b60006020820190508181036000830152612ebd81612823565b9050919050565b60006020820190508181036000830152612edd81612889565b9050919050565b60006020820190508181036000830152612efd816128ef565b9050919050565b60006020820190508181036000830152612f1d8161292f565b9050919050565b60006020820190508181036000830152612f3d81612995565b9050919050565b60006020820190508181036000830152612f5d816129d5565b9050919050565b60006020820190508181036000830152612f7d81612a3b565b9050919050565b60006020820190508181036000830152612f9d81612aa1565b9050919050565b60006020820190508181036000830152612fbd81612b07565b9050919050565b60006020820190508181036000830152612fdd81612b6d565b9050919050565b60006020820190508181036000830152612ffd81612bad565b9050919050565b6000602082019050818103600083015261301d81612c13565b9050919050565b6000602082019050818103600083015261303d81612c79565b9050919050565b6000602082019050818103600083015261305d81612cdf565b9050919050565b6000602082019050818103600083015261307d81612d45565b9050919050565b60006020820190506130996000830184612dab565b92915050565b6000604051905081810181811067ffffffffffffffff821117156130c6576130c56133d6565b5b8060405250919050565b600067ffffffffffffffff8211156130eb576130ea6133d6565b5b601f19601f8301169050602081019050919050565b600067ffffffffffffffff82111561311b5761311a6133d6565b5b601f19601f8301169050602081019050919050565b6000819050602082019050919050565b600081519050919050565b600081519050919050565b600081519050919050565b6000602082019050919050565b600082825260208201905092915050565b600082825260208201905092915050565b600082825260208201905092915050565b600082825260208201905092915050565b600081905092915050565b60006131c8826132b1565b91506131d3836132b1565b9250827fffffffffffffffffffffffffffffffffffffffffffffffffffffffffffffffff0382111561320857613207613378565b5b828201905092915050565b600061321e826132b1565b9150613229836132b1565b92508282101561323c5761323b613378565b5b828203905092915050565b600061325282613291565b9050919050565b60008115159050919050565b60007fffffffff0000000000000000000000000000000000000000000000000000000082169050919050565b600073ffffffffffffffffffffffffffffffffffffffff82169050919050565b6000819050919050565b82818337600083830152505050565b60005b838110156132e85780820151818401526020810190506132cd565b838111156132f7576000848401525b50505050565b6000600282049050600182168061331557607f821691505b60208210811415613329576133286133a7565b5b50919050565b600061333a826132b1565b91507fffffffffffffffffffffffffffffffffffffffffffffffffffffffffffffffff82141561336d5761336c613378565b5b600182019050919050565b7f4e487b7100000000000000000000000000000000000000000000000000000000600052601160045260246000fd5b7f4e487b7100000000000000000000000000000000000000000000000000000000600052602260045260246000fd5b7f4e487b7100000000000000000000000000000000000000000000000000000000600052604160045260246000fd5b6000601f19601f8301169050919050565b61341f81613247565b811461342a57600080fd5b50565b61343681613259565b811461344157600080fd5b50565b61344d81613265565b811461345857600080fd5b50565b613464816132b1565b811461346f57600080fd5b5056fea26469706673582212204f57e8d040970d81ad2d19f81764c548e5bb0ba80b4ce769f425155c2266e44364736f6c63430008000033516d5a313853793361766358796a6532513758345238365844366f435232546a38355855376653715443675a4268",
  "immutableReferences": {},
  "source": "pragma solidity ^0.8.0;\n\nimport \"@openzeppelin/contracts/token/ERC721/ERC721.sol\";\nimport \"@openzeppelin/contracts/token/ERC721/extensions/ERC721Enumerable.sol\";\n\nimport \"@openzeppelin/contracts/token/ERC20/IERC20.sol\";\n\n\n\n// import \"./ERC721Full.sol\";\n\ncontract Wine is ERC721, ERC721Enumerable {\n\n    // to keep the wine count\n    uint public wineCount = 0;\n    \n\n    // to keep the track of ipfshash with data\n    mapping(uint => string) public wineData;\n    \n    // to keep check if the wine exists or not\n    mapping(string => bool) public wineExist;\n\n     // to keep check if the same images is getting used\n    mapping(string => bool) public imageExist;\n\n    // array to store all the ipfs hashes\n\n    string[] public wineHashes;\n    string[] public imageHashes;\n\n\n    string public ipfsDataHash = \"QmZ18Sy3avcXyje2Q7X4R86XD6oCR2Tj85XU7fSqTCgZBh\";\n\n        constructor() ERC721(\"Wine\", \"WINE\") public {\n        }\n\n    function _beforeTokenTransfer(address from, address to, uint256 tokenId)\n    internal\n    override(ERC721, ERC721Enumerable)\n    {\n        super._beforeTokenTransfer(from, to, tokenId);\n    }\n\n    function supportsInterface(bytes4 interfaceId)\n    public\n    view\n    override(ERC721, ERC721Enumerable)\n    returns (bool)\n    {\n        return super.supportsInterface(interfaceId);\n    }\n\n    function mint(string memory _wineHash, string memory _imageHash) public {\n        // require(!wineExist[_wineHash],\"Wine already exists\");\n        // require(!imageExist[_imageHash],\"Image is getting used twices\");\n        //     wineHashes.push(_wineHash);\n        //     imageHashes.push(_imageHash);\n        //     uint _id = imageHashes.length - 1;\n        //     _mint(msg.sender,_id);\n        //     wineData[_id] = _wineHash;\n        //     imageExist[_imageHash] = true;\n        //     wineExist[_wineHash] = true;\n        //     wineCount ++; \n        for(uint i=0;i<6;i++){\n            _mint(msg.sender,i);\n        }\n\n    }\n\n    function _baseURI() internal view virtual override returns (string memory) {\n        return \"https://ipfs.io/ipfs/\";\n    }\n\n    function getData() public view returns (string memory) {\n        return ipfsDataHash;\n    }\n\n    function getMintedImages() public view returns(string[] memory) {\n        return imageHashes;\n        }\n\n    function tokenURI(uint256 tokenId) public view virtual override returns (string memory) {\n        // require(_exists(tokenId), \"ERC721Metadata: URI query for nonexistent token\");\n\n        string memory baseURI = _baseURI();\n        string memory tokenHash = wineData[tokenId];\n        return string(abi.encodePacked(baseURI, tokenHash));\n        // return bytes(baseURI).length > 0 ? string(abi.encodePacked(baseURI, tokenId.toString())) : \"\";\n    }\n  \n}\n\n",
  "sourcePath": "/home/abhishek/Desktop/Code/BoredPhase2/contracts/Wine.sol",
  "compiler": {
    "name": "solc",
    "version": "0.8.0+commit.c7dfd78e.Linux.g++"
  },
  "schemaVersion": "3.4.3",
  "updatedAt": "2021-12-07T19:06:27.501Z",
  "networkType": "ethereum",
  "devdoc": {
    "kind": "dev",
    "methods": {
      "approve(address,uint256)": {
        "details": "See {IERC721-approve}."
      },
      "balanceOf(address)": {
        "details": "See {IERC721-balanceOf}."
      },
      "getApproved(uint256)": {
        "details": "See {IERC721-getApproved}."
      },
      "isApprovedForAll(address,address)": {
        "details": "See {IERC721-isApprovedForAll}."
      },
      "name()": {
        "details": "See {IERC721Metadata-name}."
      },
      "ownerOf(uint256)": {
        "details": "See {IERC721-ownerOf}."
      },
      "safeTransferFrom(address,address,uint256)": {
        "details": "See {IERC721-safeTransferFrom}."
      },
      "safeTransferFrom(address,address,uint256,bytes)": {
        "details": "See {IERC721-safeTransferFrom}."
      },
      "setApprovalForAll(address,bool)": {
        "details": "See {IERC721-setApprovalForAll}."
      },
      "symbol()": {
        "details": "See {IERC721Metadata-symbol}."
      },
      "tokenByIndex(uint256)": {
        "details": "See {IERC721Enumerable-tokenByIndex}."
      },
      "tokenOfOwnerByIndex(address,uint256)": {
        "details": "See {IERC721Enumerable-tokenOfOwnerByIndex}."
      },
      "tokenURI(uint256)": {
        "details": "See {IERC721Metadata-tokenURI}."
      },
      "totalSupply()": {
        "details": "See {IERC721Enumerable-totalSupply}."
      },
      "transferFrom(address,address,uint256)": {
        "details": "See {IERC721-transferFrom}."
      }
    },
    "version": 1
  },
  "userdoc": {
    "kind": "user",
    "methods": {},
    "version": 1
  }
}