{
  "contractName": "Wine",
  "abi": [
    {
      "inputs": [],
      "stateMutability": "nonpayable",
      "type": "constructor"
    },
    {
      "anonymous": false,
      "inputs": [
        {
          "indexed": true,
          "internalType": "address",
          "name": "owner",
          "type": "address"
        },
        {
          "indexed": true,
          "internalType": "address",
          "name": "approved",
          "type": "address"
        },
        {
          "indexed": true,
          "internalType": "uint256",
          "name": "tokenId",
          "type": "uint256"
        }
      ],
      "name": "Approval",
      "type": "event"
    },
    {
      "anonymous": false,
      "inputs": [
        {
          "indexed": true,
          "internalType": "address",
          "name": "owner",
          "type": "address"
        },
        {
          "indexed": true,
          "internalType": "address",
          "name": "operator",
          "type": "address"
        },
        {
          "indexed": false,
          "internalType": "bool",
          "name": "approved",
          "type": "bool"
        }
      ],
      "name": "ApprovalForAll",
      "type": "event"
    },
    {
      "anonymous": false,
      "inputs": [
        {
          "indexed": true,
          "internalType": "address",
          "name": "from",
          "type": "address"
        },
        {
          "indexed": true,
          "internalType": "address",
          "name": "to",
          "type": "address"
        },
        {
          "indexed": true,
          "internalType": "uint256",
          "name": "tokenId",
          "type": "uint256"
        }
      ],
      "name": "Transfer",
      "type": "event"
    },
    {
      "inputs": [
        {
          "internalType": "address",
          "name": "to",
          "type": "address"
        },
        {
          "internalType": "uint256",
          "name": "tokenId",
          "type": "uint256"
        }
      ],
      "name": "approve",
      "outputs": [],
      "stateMutability": "nonpayable",
      "type": "function"
    },
    {
      "inputs": [
        {
          "internalType": "address",
          "name": "owner",
          "type": "address"
        }
      ],
      "name": "balanceOf",
      "outputs": [
        {
          "internalType": "uint256",
          "name": "",
          "type": "uint256"
        }
      ],
      "stateMutability": "view",
      "type": "function",
      "constant": true
    },
    {
      "inputs": [
        {
          "internalType": "uint256",
          "name": "tokenId",
          "type": "uint256"
        }
      ],
      "name": "getApproved",
      "outputs": [
        {
          "internalType": "address",
          "name": "",
          "type": "address"
        }
      ],
      "stateMutability": "view",
      "type": "function",
      "constant": true
    },
    {
      "inputs": [
        {
          "internalType": "address",
          "name": "owner",
          "type": "address"
        },
        {
          "internalType": "address",
          "name": "operator",
          "type": "address"
        }
      ],
      "name": "isApprovedForAll",
      "outputs": [
        {
          "internalType": "bool",
          "name": "",
          "type": "bool"
        }
      ],
      "stateMutability": "view",
      "type": "function",
      "constant": true
    },
    {
      "inputs": [],
      "name": "name",
      "outputs": [
        {
          "internalType": "string",
          "name": "",
          "type": "string"
        }
      ],
      "stateMutability": "view",
      "type": "function",
      "constant": true
    },
    {
      "inputs": [
        {
          "internalType": "uint256",
          "name": "tokenId",
          "type": "uint256"
        }
      ],
      "name": "ownerOf",
      "outputs": [
        {
          "internalType": "address",
          "name": "",
          "type": "address"
        }
      ],
      "stateMutability": "view",
      "type": "function",
      "constant": true
    },
    {
      "inputs": [
        {
          "internalType": "address",
          "name": "from",
          "type": "address"
        },
        {
          "internalType": "address",
          "name": "to",
          "type": "address"
        },
        {
          "internalType": "uint256",
          "name": "tokenId",
          "type": "uint256"
        }
      ],
      "name": "safeTransferFrom",
      "outputs": [],
      "stateMutability": "nonpayable",
      "type": "function"
    },
    {
      "inputs": [
        {
          "internalType": "address",
          "name": "from",
          "type": "address"
        },
        {
          "internalType": "address",
          "name": "to",
          "type": "address"
        },
        {
          "internalType": "uint256",
          "name": "tokenId",
          "type": "uint256"
        },
        {
          "internalType": "bytes",
          "name": "_data",
          "type": "bytes"
        }
      ],
      "name": "safeTransferFrom",
      "outputs": [],
      "stateMutability": "nonpayable",
      "type": "function"
    },
    {
      "inputs": [
        {
          "internalType": "address",
          "name": "operator",
          "type": "address"
        },
        {
          "internalType": "bool",
          "name": "approved",
          "type": "bool"
        }
      ],
      "name": "setApprovalForAll",
      "outputs": [],
      "stateMutability": "nonpayable",
      "type": "function"
    },
    {
      "inputs": [],
      "name": "symbol",
      "outputs": [
        {
          "internalType": "string",
          "name": "",
          "type": "string"
        }
      ],
      "stateMutability": "view",
      "type": "function",
      "constant": true
    },
    {
      "inputs": [
        {
          "internalType": "uint256",
          "name": "index",
          "type": "uint256"
        }
      ],
      "name": "tokenByIndex",
      "outputs": [
        {
          "internalType": "uint256",
          "name": "",
          "type": "uint256"
        }
      ],
      "stateMutability": "view",
      "type": "function",
      "constant": true
    },
    {
      "inputs": [
        {
          "internalType": "address",
          "name": "owner",
          "type": "address"
        },
        {
          "internalType": "uint256",
          "name": "index",
          "type": "uint256"
        }
      ],
      "name": "tokenOfOwnerByIndex",
      "outputs": [
        {
          "internalType": "uint256",
          "name": "",
          "type": "uint256"
        }
      ],
      "stateMutability": "view",
      "type": "function",
      "constant": true
    },
    {
      "inputs": [
        {
          "internalType": "uint256",
          "name": "tokenId",
          "type": "uint256"
        }
      ],
      "name": "tokenURI",
      "outputs": [
        {
          "internalType": "string",
          "name": "",
          "type": "string"
        }
      ],
      "stateMutability": "view",
      "type": "function",
      "constant": true
    },
    {
      "inputs": [],
      "name": "totalSupply",
      "outputs": [
        {
          "internalType": "uint256",
          "name": "",
          "type": "uint256"
        }
      ],
      "stateMutability": "view",
      "type": "function",
      "constant": true
    },
    {
      "inputs": [
        {
          "internalType": "address",
          "name": "from",
          "type": "address"
        },
        {
          "internalType": "address",
          "name": "to",
          "type": "address"
        },
        {
          "internalType": "uint256",
          "name": "tokenId",
          "type": "uint256"
        }
      ],
      "name": "transferFrom",
      "outputs": [],
      "stateMutability": "nonpayable",
      "type": "function"
    },
    {
      "inputs": [],
      "name": "wineCount",
      "outputs": [
        {
          "internalType": "uint256",
          "name": "",
          "type": "uint256"
        }
      ],
      "stateMutability": "view",
      "type": "function",
      "constant": true
    },
    {
      "inputs": [
        {
          "internalType": "uint256",
          "name": "",
          "type": "uint256"
        }
      ],
      "name": "wineData",
      "outputs": [
        {
          "internalType": "string",
          "name": "",
          "type": "string"
        }
      ],
      "stateMutability": "view",
      "type": "function",
      "constant": true
    },
    {
      "inputs": [
        {
          "internalType": "string",
          "name": "",
          "type": "string"
        }
      ],
      "name": "wineExist",
      "outputs": [
        {
          "internalType": "bool",
          "name": "",
          "type": "bool"
        }
      ],
      "stateMutability": "view",
      "type": "function",
      "constant": true
    },
    {
      "inputs": [
        {
          "internalType": "uint256",
          "name": "",
          "type": "uint256"
        }
      ],
      "name": "wineHashes",
      "outputs": [
        {
          "internalType": "string",
          "name": "",
          "type": "string"
        }
      ],
      "stateMutability": "view",
      "type": "function",
      "constant": true
    },
    {
      "inputs": [
        {
          "internalType": "bytes4",
          "name": "interfaceId",
          "type": "bytes4"
        }
      ],
      "name": "supportsInterface",
      "outputs": [
        {
          "internalType": "bool",
          "name": "",
          "type": "bool"
        }
      ],
      "stateMutability": "view",
      "type": "function",
      "constant": true
    },
    {
      "inputs": [
        {
          "internalType": "string",
          "name": "_wineHash",
          "type": "string"
        }
      ],
      "name": "mint",
      "outputs": [],
      "stateMutability": "payable",
      "type": "function",
      "payable": true
    },
    {
      "inputs": [],
      "name": "getContractBalance",
      "outputs": [
        {
          "internalType": "uint256",
          "name": "",
          "type": "uint256"
        }
      ],
      "stateMutability": "nonpayable",
      "type": "function"
    }
  ],
  "bytecode": "0x60806040526000600a553480156200001657600080fd5b506040518060400160405280600481526020017f57696e65000000000000000000000000000000000000000000000000000000008152506040518060400160405280600481526020017f57494e450000000000000000000000000000000000000000000000000000000081525081600090805190602001906200009b929190620000bd565b508060019080519060200190620000b4929190620000bd565b505050620001d2565b828054620000cb906200016d565b90600052602060002090601f016020900481019282620000ef57600085556200013b565b82601f106200010a57805160ff19168380011785556200013b565b828001600101855582156200013b579182015b828111156200013a5782518255916020019190600101906200011d565b5b5090506200014a91906200014e565b5090565b5b80821115620001695760008160009055506001016200014f565b5090565b600060028204905060018216806200018657607f821691505b602082108114156200019d576200019c620001a3565b5b50919050565b7f4e487b7100000000000000000000000000000000000000000000000000000000600052602260045260246000fd5b6135f880620001e26000396000f3fe608060405260043610610152576000357c0100000000000000000000000000000000000000000000000000000000900480636352211e116100c857806395d89b411161008c57806395d89b41146104a3578063a22cb465146104ce578063b88d4fde146104f7578063c87b56dd14610520578063d85d3d271461055d578063e985e9c51461057957610152565b80636352211e146103965780636b9aac96146103d35780636f9fb98a146103fe57806370a08231146104295780637e8a3dbe1461046657610152565b806323b872dd1161011a57806323b872dd146102505780632f745c591461027957806342842e0e146102b65780634f6ccce7146102df57806357a152411461031c57806359b07c261461035957610152565b806301ffc9a71461015757806306fdde0314610194578063081812fc146101bf578063095ea7b3146101fc57806318160ddd14610225575b600080fd5b34801561016357600080fd5b5061017e6004803603810190610179919061264e565b6105b6565b60405161018b9190612f10565b60405180910390f35b3480156101a057600080fd5b506101a96105c8565b6040516101b69190612f2b565b60405180910390f35b3480156101cb57600080fd5b506101e660048036038101906101e191906126e1565b61065a565b6040516101f39190612ea9565b60405180910390f35b34801561020857600080fd5b50610223600480360381019061021e9190612612565b6106df565b005b34801561023157600080fd5b5061023a6107f7565b604051610247919061318d565b60405180910390f35b34801561025c57600080fd5b506102776004803603810190610272919061250c565b610804565b005b34801561028557600080fd5b506102a0600480360381019061029b9190612612565b610864565b6040516102ad919061318d565b60405180910390f35b3480156102c257600080fd5b506102dd60048036038101906102d8919061250c565b610909565b005b3480156102eb57600080fd5b50610306600480360381019061030191906126e1565b610929565b604051610313919061318d565b60405180910390f35b34801561032857600080fd5b50610343600480360381019061033e91906126a0565b6109c0565b6040516103509190612f10565b60405180910390f35b34801561036557600080fd5b50610380600480360381019061037b91906126e1565b6109f6565b60405161038d9190612f2b565b60405180910390f35b3480156103a257600080fd5b506103bd60048036038101906103b891906126e1565b610aa2565b6040516103ca9190612ea9565b60405180910390f35b3480156103df57600080fd5b506103e8610b54565b6040516103f5919061318d565b60405180910390f35b34801561040a57600080fd5b50610413610b5a565b604051610420919061318d565b60405180910390f35b34801561043557600080fd5b50610450600480360381019061044b91906124a7565b610b79565b60405161045d919061318d565b60405180910390f35b34801561047257600080fd5b5061048d600480360381019061048891906126e1565b610c31565b60405161049a9190612f2b565b60405180910390f35b3480156104af57600080fd5b506104b8610cd1565b6040516104c59190612f2b565b60405180910390f35b3480156104da57600080fd5b506104f560048036038101906104f091906125d6565b610d63565b005b34801561050357600080fd5b5061051e6004803603810190610519919061255b565b610ee4565b005b34801561052c57600080fd5b50610547600480360381019061054291906126e1565b610f46565b6040516105549190612f2b565b60405180910390f35b610577600480360381019061057291906126a0565b610fed565b005b34801561058557600080fd5b506105a0600480360381019061059b91906124d0565b61117a565b6040516105ad9190612f10565b60405180910390f35b60006105c18261120e565b9050919050565b6060600080546105d7906133ed565b80601f0160208091040260200160405190810160405280929190818152602001828054610603906133ed565b80156106505780601f1061062557610100808354040283529160200191610650565b820191906000526020600020905b81548152906001019060200180831161063357829003601f168201915b5050505050905090565b600061066582611288565b6106a4576040517f08c379a000000000000000000000000000000000000000000000000000000000815260040161069b9061308d565b60405180910390fd5b6004600083815260200190815260200160002060009054906101000a900473ffffffffffffffffffffffffffffffffffffffff169050919050565b60006106ea82610aa2565b90508073ffffffffffffffffffffffffffffffffffffffff168373ffffffffffffffffffffffffffffffffffffffff16141561075b576040517f08c379a0000000000000000000000000000000000000000000000000000000008152600401610752906130ed565b60405180910390fd5b8073ffffffffffffffffffffffffffffffffffffffff1661077a6112f4565b73ffffffffffffffffffffffffffffffffffffffff1614806107a957506107a8816107a36112f4565b61117a565b5b6107e8576040517f08c379a00000000000000000000000000000000000000000000000000000000081526004016107df9061300d565b60405180910390fd5b6107f283836112fc565b505050565b6000600880549050905090565b61081561080f6112f4565b826113b5565b610854576040517f08c379a000000000000000000000000000000000000000000000000000000000815260040161084b9061310d565b60405180910390fd5b61085f838383611493565b505050565b600061086f83610b79565b82106108b0576040517f08c379a00000000000000000000000000000000000000000000000000000000081526004016108a790612f4d565b60405180910390fd5b600660008473ffffffffffffffffffffffffffffffffffffffff1673ffffffffffffffffffffffffffffffffffffffff168152602001908152602001600020600083815260200190815260200160002054905092915050565b61092483838360405180602001604052806000815250610ee4565b505050565b60006109336107f7565b8210610974576040517f08c379a000000000000000000000000000000000000000000000000000000000815260040161096b9061312d565b60405180910390fd5b600882815481106109ae577f4e487b7100000000000000000000000000000000000000000000000000000000600052603260045260246000fd5b90600052602060002001549050919050565b600c818051602081018201805184825260208301602085012081835280955050505050506000915054906101000a900460ff1681565b600d8181548110610a0657600080fd5b906000526020600020016000915090508054610a21906133ed565b80601f0160208091040260200160405190810160405280929190818152602001828054610a4d906133ed565b8015610a9a5780601f10610a6f57610100808354040283529160200191610a9a565b820191906000526020600020905b815481529060010190602001808311610a7d57829003601f168201915b505050505081565b6000806002600084815260200190815260200160002060009054906101000a900473ffffffffffffffffffffffffffffffffffffffff169050600073ffffffffffffffffffffffffffffffffffffffff168173ffffffffffffffffffffffffffffffffffffffff161415610b4b576040517f08c379a0000000000000000000000000000000000000000000000000000000008152600401610b429061304d565b60405180910390fd5b80915050919050565b600a5481565b60003073ffffffffffffffffffffffffffffffffffffffff1631905090565b60008073ffffffffffffffffffffffffffffffffffffffff168273ffffffffffffffffffffffffffffffffffffffff161415610bea576040517f08c379a0000000000000000000000000000000000000000000000000000000008152600401610be19061302d565b60405180910390fd5b600360008373ffffffffffffffffffffffffffffffffffffffff1673ffffffffffffffffffffffffffffffffffffffff168152602001908152602001600020549050919050565b600b6020528060005260406000206000915090508054610c50906133ed565b80601f0160208091040260200160405190810160405280929190818152602001828054610c7c906133ed565b8015610cc95780601f10610c9e57610100808354040283529160200191610cc9565b820191906000526020600020905b815481529060010190602001808311610cac57829003601f168201915b505050505081565b606060018054610ce0906133ed565b80601f0160208091040260200160405190810160405280929190818152602001828054610d0c906133ed565b8015610d595780601f10610d2e57610100808354040283529160200191610d59565b820191906000526020600020905b815481529060010190602001808311610d3c57829003601f168201915b5050505050905090565b610d6b6112f4565b73ffffffffffffffffffffffffffffffffffffffff168273ffffffffffffffffffffffffffffffffffffffff161415610dd9576040517f08c379a0000000000000000000000000000000000000000000000000000000008152600401610dd090612fcd565b60405180910390fd5b8060056000610de66112f4565b73ffffffffffffffffffffffffffffffffffffffff1673ffffffffffffffffffffffffffffffffffffffff16815260200190815260200160002060008473ffffffffffffffffffffffffffffffffffffffff1673ffffffffffffffffffffffffffffffffffffffff16815260200190815260200160002060006101000a81548160ff0219169083151502179055508173ffffffffffffffffffffffffffffffffffffffff16610e936112f4565b73ffffffffffffffffffffffffffffffffffffffff167f17307eab39ab6107e8899845ad3d59bd9653f200f220920489ca2b5937696c3183604051610ed89190612f10565b60405180910390a35050565b610ef5610eef6112f4565b836113b5565b610f34576040517f08c379a0000000000000000000000000000000000000000000000000000000008152600401610f2b9061310d565b60405180910390fd5b610f40848484846116ef565b50505050565b6060610f5182611288565b610f90576040517f08c379a0000000000000000000000000000000000000000000000000000000008152600401610f87906130cd565b60405180910390fd5b6000610f9a61174b565b90506000815111610fba5760405180602001604052806000815250610fe5565b80610fc484611762565b604051602001610fd5929190612e85565b6040516020818303038152906040525b915050919050565b66470de4df820000341015611037576040517f08c379a000000000000000000000000000000000000000000000000000000000815260040161102e9061314d565b60405180910390fd5b600c816040516110479190612e6e565b908152602001604051809103902060009054906101000a900460ff16156110a3576040517f08c379a000000000000000000000000000000000000000000000000000000000815260040161109a9061316d565b60405180910390fd5b600d819080600181540180825580915050600190039060005260206000200160009091909190915090805190602001906110de9291906122cb565b5060006001600d805490506110f39190613303565b90506110ff338261192e565b81600b600083815260200190815260200160002090805190602001906111269291906122cb565b506001600c836040516111399190612e6e565b908152602001604051809103902060006101000a81548160ff021916908315150217905550600a60008154809291906111719061341f565b91905055505050565b6000600560008473ffffffffffffffffffffffffffffffffffffffff1673ffffffffffffffffffffffffffffffffffffffff16815260200190815260200160002060008373ffffffffffffffffffffffffffffffffffffffff1673ffffffffffffffffffffffffffffffffffffffff16815260200190815260200160002060009054906101000a900460ff16905092915050565b60007f780e9d63000000000000000000000000000000000000000000000000000000007bffffffffffffffffffffffffffffffffffffffffffffffffffffffff1916827bffffffffffffffffffffffffffffffffffffffffffffffffffffffff19161480611281575061128082611afc565b5b9050919050565b60008073ffffffffffffffffffffffffffffffffffffffff166002600084815260200190815260200160002060009054906101000a900473ffffffffffffffffffffffffffffffffffffffff1673ffffffffffffffffffffffffffffffffffffffff1614159050919050565b600033905090565b816004600083815260200190815260200160002060006101000a81548173ffffffffffffffffffffffffffffffffffffffff021916908373ffffffffffffffffffffffffffffffffffffffff160217905550808273ffffffffffffffffffffffffffffffffffffffff1661136f83610aa2565b73ffffffffffffffffffffffffffffffffffffffff167f8c5be1e5ebec7d5bd14f71427d1e84f3dd0314c0f7b2291e5b200ac8c7c3b92560405160405180910390a45050565b60006113c082611288565b6113ff576040517f08c379a00000000000000000000000000000000000000000000000000000000081526004016113f690612fed565b60405180910390fd5b600061140a83610aa2565b90508073ffffffffffffffffffffffffffffffffffffffff168473ffffffffffffffffffffffffffffffffffffffff16148061147957508373ffffffffffffffffffffffffffffffffffffffff166114618461065a565b73ffffffffffffffffffffffffffffffffffffffff16145b8061148a5750611489818561117a565b5b91505092915050565b8273ffffffffffffffffffffffffffffffffffffffff166114b382610aa2565b73ffffffffffffffffffffffffffffffffffffffff1614611509576040517f08c379a0000000000000000000000000000000000000000000000000000000008152600401611500906130ad565b60405180910390fd5b600073ffffffffffffffffffffffffffffffffffffffff168273ffffffffffffffffffffffffffffffffffffffff161415611579576040517f08c379a000000000000000000000000000000000000000000000000000000000815260040161157090612fad565b60405180910390fd5b611584838383611bde565b61158f6000826112fc565b6001600360008573ffffffffffffffffffffffffffffffffffffffff1673ffffffffffffffffffffffffffffffffffffffff16815260200190815260200160002060008282546115df9190613303565b925050819055506001600360008473ffffffffffffffffffffffffffffffffffffffff1673ffffffffffffffffffffffffffffffffffffffff1681526020019081526020016000206000828254611636919061327c565b92505081905550816002600083815260200190815260200160002060006101000a81548173ffffffffffffffffffffffffffffffffffffffff021916908373ffffffffffffffffffffffffffffffffffffffff160217905550808273ffffffffffffffffffffffffffffffffffffffff168473ffffffffffffffffffffffffffffffffffffffff167fddf252ad1be2c89b69c2b068fc378daa952ba7f163c4a11628f55a4df523b3ef60405160405180910390a4505050565b6116fa848484611493565b61170684848484611bee565b611745576040517f08c379a000000000000000000000000000000000000000000000000000000000815260040161173c90612f6d565b60405180910390fd5b50505050565b606060405180602001604052806000815250905090565b606060008214156117aa576040518060400160405280600181526020017f30000000000000000000000000000000000000000000000000000000000000008152509050611929565b600082905060005b600082146117dc5780806117c59061341f565b915050600a826117d591906132d2565b91506117b2565b60008167ffffffffffffffff81111561181e577f4e487b7100000000000000000000000000000000000000000000000000000000600052604160045260246000fd5b6040519080825280601f01601f1916602001820160405280156118505781602001600182028036833780820191505090505b5090505b60008514611922576001826118699190613303565b9150600a856118789190613468565b6030611884919061327c565b7f0100000000000000000000000000000000000000000000000000000000000000028183815181106118df577f4e487b7100000000000000000000000000000000000000000000000000000000600052603260045260246000fd5b60200101907effffffffffffffffffffffffffffffffffffffffffffffffffffffffffffff1916908160001a905350600a8561191b91906132d2565b9450611854565b8093505050505b919050565b600073ffffffffffffffffffffffffffffffffffffffff168273ffffffffffffffffffffffffffffffffffffffff16141561199e576040517f08c379a00000000000000000000000000000000000000000000000000000000081526004016119959061306d565b60405180910390fd5b6119a781611288565b156119e7576040517f08c379a00000000000000000000000000000000000000000000000000000000081526004016119de90612f8d565b60405180910390fd5b6119f360008383611bde565b6001600360008473ffffffffffffffffffffffffffffffffffffffff1673ffffffffffffffffffffffffffffffffffffffff1681526020019081526020016000206000828254611a43919061327c565b92505081905550816002600083815260200190815260200160002060006101000a81548173ffffffffffffffffffffffffffffffffffffffff021916908373ffffffffffffffffffffffffffffffffffffffff160217905550808273ffffffffffffffffffffffffffffffffffffffff16600073ffffffffffffffffffffffffffffffffffffffff167fddf252ad1be2c89b69c2b068fc378daa952ba7f163c4a11628f55a4df523b3ef60405160405180910390a45050565b60007f80ac58cd000000000000000000000000000000000000000000000000000000007bffffffffffffffffffffffffffffffffffffffffffffffffffffffff1916827bffffffffffffffffffffffffffffffffffffffffffffffffffffffff19161480611bc757507f5b5e139f000000000000000000000000000000000000000000000000000000007bffffffffffffffffffffffffffffffffffffffffffffffffffffffff1916827bffffffffffffffffffffffffffffffffffffffffffffffffffffffff1916145b80611bd75750611bd682611dbd565b5b9050919050565b611be9838383611e27565b505050565b6000611c0f8473ffffffffffffffffffffffffffffffffffffffff16611f3b565b15611db0578373ffffffffffffffffffffffffffffffffffffffff1663150b7a02611c386112f4565b8786866040518563ffffffff167c0100000000000000000000000000000000000000000000000000000000028152600401611c769493929190612ec4565b602060405180830381600087803b158015611c9057600080fd5b505af1925050508015611cc157506040513d601f19601f82011682018060405250810190611cbe9190612677565b60015b611d44573d8060008114611cf1576040519150601f19603f3d011682016040523d82523d6000602084013e611cf6565b606091505b50600081511415611d3c576040517f08c379a0000000000000000000000000000000000000000000000000000000008152600401611d3390612f6d565b60405180910390fd5b805181602001fd5b63150b7a027c0100000000000000000000000000000000000000000000000000000000027bffffffffffffffffffffffffffffffffffffffffffffffffffffffff1916817bffffffffffffffffffffffffffffffffffffffffffffffffffffffff191614915050611db5565b600190505b949350505050565b60007f01ffc9a7000000000000000000000000000000000000000000000000000000007bffffffffffffffffffffffffffffffffffffffffffffffffffffffff1916827bffffffffffffffffffffffffffffffffffffffffffffffffffffffff1916149050919050565b611e32838383611f4e565b600073ffffffffffffffffffffffffffffffffffffffff168373ffffffffffffffffffffffffffffffffffffffff161415611e7557611e7081611f53565b611eb4565b8173ffffffffffffffffffffffffffffffffffffffff168373ffffffffffffffffffffffffffffffffffffffff1614611eb357611eb28382611f9c565b5b5b600073ffffffffffffffffffffffffffffffffffffffff168273ffffffffffffffffffffffffffffffffffffffff161415611ef757611ef281612109565b611f36565b8273ffffffffffffffffffffffffffffffffffffffff168273ffffffffffffffffffffffffffffffffffffffff1614611f3557611f34828261224c565b5b5b505050565b600080823b905060008111915050919050565b505050565b6008805490506009600083815260200190815260200160002081905550600881908060018154018082558091505060019003906000526020600020016000909190919091505550565b60006001611fa984610b79565b611fb39190613303565b9050600060076000848152602001908152602001600020549050818114612098576000600660008673ffffffffffffffffffffffffffffffffffffffff1673ffffffffffffffffffffffffffffffffffffffff168152602001908152602001600020600084815260200190815260200160002054905080600660008773ffffffffffffffffffffffffffffffffffffffff1673ffffffffffffffffffffffffffffffffffffffff168152602001908152602001600020600084815260200190815260200160002081905550816007600083815260200190815260200160002081905550505b6007600084815260200190815260200160002060009055600660008573ffffffffffffffffffffffffffffffffffffffff1673ffffffffffffffffffffffffffffffffffffffff16815260200190815260200160002060008381526020019081526020016000206000905550505050565b6000600160088054905061211d9190613303565b9050600060096000848152602001908152602001600020549050600060088381548110612173577f4e487b7100000000000000000000000000000000000000000000000000000000600052603260045260246000fd5b9060005260206000200154905080600883815481106121bb577f4e487b7100000000000000000000000000000000000000000000000000000000600052603260045260246000fd5b906000526020600020018190555081600960008381526020019081526020016000208190555060096000858152602001908152602001600020600090556008805480612230577f4e487b7100000000000000000000000000000000000000000000000000000000600052603160045260246000fd5b6001900381819060005260206000200160009055905550505050565b600061225783610b79565b905081600660008573ffffffffffffffffffffffffffffffffffffffff1673ffffffffffffffffffffffffffffffffffffffff168152602001908152602001600020600083815260200190815260200160002081905550806007600084815260200190815260200160002081905550505050565b8280546122d7906133ed565b90600052602060002090601f0160209004810192826122f95760008555612340565b82601f1061231257805160ff1916838001178555612340565b82800160010185558215612340579182015b8281111561233f578251825591602001919060010190612324565b5b50905061234d9190612351565b5090565b5b8082111561236a576000816000905550600101612352565b5090565b600061238161237c846131d9565b6131a8565b90508281526020810184848401111561239957600080fd5b6123a48482856133ab565b509392505050565b60006123bf6123ba84613209565b6131a8565b9050828152602081018484840111156123d757600080fd5b6123e28482856133ab565b509392505050565b6000813590506123f981613566565b92915050565b60008135905061240e8161357d565b92915050565b60008135905061242381613594565b92915050565b60008151905061243881613594565b92915050565b600082601f83011261244f57600080fd5b813561245f84826020860161236e565b91505092915050565b600082601f83011261247957600080fd5b81356124898482602086016123ac565b91505092915050565b6000813590506124a1816135ab565b92915050565b6000602082840312156124b957600080fd5b60006124c7848285016123ea565b91505092915050565b600080604083850312156124e357600080fd5b60006124f1858286016123ea565b9250506020612502858286016123ea565b9150509250929050565b60008060006060848603121561252157600080fd5b600061252f868287016123ea565b9350506020612540868287016123ea565b925050604061255186828701612492565b9150509250925092565b6000806000806080858703121561257157600080fd5b600061257f878288016123ea565b9450506020612590878288016123ea565b93505060406125a187828801612492565b925050606085013567ffffffffffffffff8111156125be57600080fd5b6125ca8782880161243e565b91505092959194509250565b600080604083850312156125e957600080fd5b60006125f7858286016123ea565b9250506020612608858286016123ff565b9150509250929050565b6000806040838503121561262557600080fd5b6000612633858286016123ea565b925050602061264485828601612492565b9150509250929050565b60006020828403121561266057600080fd5b600061266e84828501612414565b91505092915050565b60006020828403121561268957600080fd5b600061269784828501612429565b91505092915050565b6000602082840312156126b257600080fd5b600082013567ffffffffffffffff8111156126cc57600080fd5b6126d884828501612468565b91505092915050565b6000602082840312156126f357600080fd5b600061270184828501612492565b91505092915050565b61271381613337565b82525050565b61272281613349565b82525050565b600061273382613239565b61273d818561324f565b935061274d8185602086016133ba565b61275681613555565b840191505092915050565b600061276c82613244565b6127768185613260565b93506127868185602086016133ba565b61278f81613555565b840191505092915050565b60006127a582613244565b6127af8185613271565b93506127bf8185602086016133ba565b80840191505092915050565b60006127d8602b83613260565b91507f455243373231456e756d657261626c653a206f776e657220696e646578206f7560008301527f74206f6620626f756e64730000000000000000000000000000000000000000006020830152604082019050919050565b600061283e603283613260565b91507f4552433732313a207472616e7366657220746f206e6f6e20455243373231526560008301527f63656976657220696d706c656d656e74657200000000000000000000000000006020830152604082019050919050565b60006128a4601c83613260565b91507f4552433732313a20746f6b656e20616c7265616479206d696e746564000000006000830152602082019050919050565b60006128e4602483613260565b91507f4552433732313a207472616e7366657220746f20746865207a65726f2061646460008301527f72657373000000000000000000000000000000000000000000000000000000006020830152604082019050919050565b600061294a601983613260565b91507f4552433732313a20617070726f766520746f2063616c6c6572000000000000006000830152602082019050919050565b600061298a602c83613260565b91507f4552433732313a206f70657261746f7220717565727920666f72206e6f6e657860008301527f697374656e7420746f6b656e00000000000000000000000000000000000000006020830152604082019050919050565b60006129f0603883613260565b91507f4552433732313a20617070726f76652063616c6c6572206973206e6f74206f7760008301527f6e6572206e6f7220617070726f76656420666f7220616c6c00000000000000006020830152604082019050919050565b6000612a56602a83613260565b91507f4552433732313a2062616c616e636520717565727920666f7220746865207a6560008301527f726f2061646472657373000000000000000000000000000000000000000000006020830152604082019050919050565b6000612abc602983613260565b91507f4552433732313a206f776e657220717565727920666f72206e6f6e657869737460008301527f656e7420746f6b656e00000000000000000000000000000000000000000000006020830152604082019050919050565b6000612b22602083613260565b91507f4552433732313a206d696e7420746f20746865207a65726f20616464726573736000830152602082019050919050565b6000612b62602c83613260565b91507f4552433732313a20617070726f76656420717565727920666f72206e6f6e657860008301527f697374656e7420746f6b656e00000000000000000000000000000000000000006020830152604082019050919050565b6000612bc8602983613260565b91507f4552433732313a207472616e73666572206f6620746f6b656e2074686174206960008301527f73206e6f74206f776e00000000000000000000000000000000000000000000006020830152604082019050919050565b6000612c2e602f83613260565b91507f4552433732314d657461646174613a2055524920717565727920666f72206e6f60008301527f6e6578697374656e7420746f6b656e00000000000000000000000000000000006020830152604082019050919050565b6000612c94602183613260565b91507f4552433732313a20617070726f76616c20746f2063757272656e74206f776e6560008301527f72000000000000000000000000000000000000000000000000000000000000006020830152604082019050919050565b6000612cfa603183613260565b91507f4552433732313a207472616e736665722063616c6c6572206973206e6f74206f60008301527f776e6572206e6f7220617070726f7665640000000000000000000000000000006020830152604082019050919050565b6000612d60602c83613260565b91507f455243373231456e756d657261626c653a20676c6f62616c20696e646578206f60008301527f7574206f6620626f756e647300000000000000000000000000000000000000006020830152604082019050919050565b6000612dc6602183613260565b91507f4e6f7420656e6f756768204554482073656e743b20636865636b20707269636560008301527f21000000000000000000000000000000000000000000000000000000000000006020830152604082019050919050565b6000612e2c601383613260565b91507f57696e6520616c726561647920657869737473000000000000000000000000006000830152602082019050919050565b612e68816133a1565b82525050565b6000612e7a828461279a565b915081905092915050565b6000612e91828561279a565b9150612e9d828461279a565b91508190509392505050565b6000602082019050612ebe600083018461270a565b92915050565b6000608082019050612ed9600083018761270a565b612ee6602083018661270a565b612ef36040830185612e5f565b8181036060830152612f058184612728565b905095945050505050565b6000602082019050612f256000830184612719565b92915050565b60006020820190508181036000830152612f458184612761565b905092915050565b60006020820190508181036000830152612f66816127cb565b9050919050565b60006020820190508181036000830152612f8681612831565b9050919050565b60006020820190508181036000830152612fa681612897565b9050919050565b60006020820190508181036000830152612fc6816128d7565b9050919050565b60006020820190508181036000830152612fe68161293d565b9050919050565b600060208201905081810360008301526130068161297d565b9050919050565b60006020820190508181036000830152613026816129e3565b9050919050565b6000602082019050818103600083015261304681612a49565b9050919050565b6000602082019050818103600083015261306681612aaf565b9050919050565b6000602082019050818103600083015261308681612b15565b9050919050565b600060208201905081810360008301526130a681612b55565b9050919050565b600060208201905081810360008301526130c681612bbb565b9050919050565b600060208201905081810360008301526130e681612c21565b9050919050565b6000602082019050818103600083015261310681612c87565b9050919050565b6000602082019050818103600083015261312681612ced565b9050919050565b6000602082019050818103600083015261314681612d53565b9050919050565b6000602082019050818103600083015261316681612db9565b9050919050565b6000602082019050818103600083015261318681612e1f565b9050919050565b60006020820190506131a26000830184612e5f565b92915050565b6000604051905081810181811067ffffffffffffffff821117156131cf576131ce613526565b5b8060405250919050565b600067ffffffffffffffff8211156131f4576131f3613526565b5b601f19601f8301169050602081019050919050565b600067ffffffffffffffff82111561322457613223613526565b5b601f19601f8301169050602081019050919050565b600081519050919050565b600081519050919050565b600082825260208201905092915050565b600082825260208201905092915050565b600081905092915050565b6000613287826133a1565b9150613292836133a1565b9250827fffffffffffffffffffffffffffffffffffffffffffffffffffffffffffffffff038211156132c7576132c6613499565b5b828201905092915050565b60006132dd826133a1565b91506132e8836133a1565b9250826132f8576132f76134c8565b5b828204905092915050565b600061330e826133a1565b9150613319836133a1565b92508282101561332c5761332b613499565b5b828203905092915050565b600061334282613381565b9050919050565b60008115159050919050565b60007fffffffff0000000000000000000000000000000000000000000000000000000082169050919050565b600073ffffffffffffffffffffffffffffffffffffffff82169050919050565b6000819050919050565b82818337600083830152505050565b60005b838110156133d85780820151818401526020810190506133bd565b838111156133e7576000848401525b50505050565b6000600282049050600182168061340557607f821691505b60208210811415613419576134186134f7565b5b50919050565b600061342a826133a1565b91507fffffffffffffffffffffffffffffffffffffffffffffffffffffffffffffffff82141561345d5761345c613499565b5b600182019050919050565b6000613473826133a1565b915061347e836133a1565b92508261348e5761348d6134c8565b5b828206905092915050565b7f4e487b7100000000000000000000000000000000000000000000000000000000600052601160045260246000fd5b7f4e487b7100000000000000000000000000000000000000000000000000000000600052601260045260246000fd5b7f4e487b7100000000000000000000000000000000000000000000000000000000600052602260045260246000fd5b7f4e487b7100000000000000000000000000000000000000000000000000000000600052604160045260246000fd5b6000601f19601f8301169050919050565b61356f81613337565b811461357a57600080fd5b50565b61358681613349565b811461359157600080fd5b50565b61359d81613355565b81146135a857600080fd5b50565b6135b4816133a1565b81146135bf57600080fd5b5056fea2646970667358221220c52d076c20ccfff61c04544b1972b23c47df23ab0fa6f16be1bfcf7380337fbc64736f6c63430008000033",
  "immutableReferences": {},
  "source": "pragma solidity ^0.8.0;\r\n\r\nimport \"@openzeppelin/contracts/token/ERC721/ERC721.sol\";\r\nimport \"@openzeppelin/contracts/token/ERC721/extensions/ERC721Enumerable.sol\";\r\n\r\n\r\n// import \"./ERC721Full.sol\";\r\n\r\ncontract Wine is ERC721, ERC721Enumerable {\r\n\r\n    // to keep the wine count\r\n    uint public wineCount = 0;\r\n\r\n    // to keep the track of ipfshash with data\r\n    mapping(uint => string) public wineData;\r\n    \r\n    // to keep check if the wine exists or not\r\n    mapping(string => bool) public wineExist;\r\n\r\n    // array to store all the ipfs hashes\r\n\r\n    string[] public wineHashes;\r\n\r\n    constructor() ERC721(\"Wine\", \"WINE\") public {\r\n    }\r\n\r\n    function _beforeTokenTransfer(address from, address to, uint256 tokenId)\r\n    internal\r\n    override(ERC721, ERC721Enumerable)\r\n    {\r\n        super._beforeTokenTransfer(from, to, tokenId);\r\n    }\r\n\r\n    function supportsInterface(bytes4 interfaceId)\r\n    public\r\n    view\r\n    override(ERC721, ERC721Enumerable)\r\n    returns (bool)\r\n    {\r\n        return super.supportsInterface(interfaceId);\r\n    }\r\n\r\n    function mint(string memory _wineHash) public payable {\r\n        require(msg.value >= 20000000000000000, \"Not enough ETH sent; check price!\");\r\n        require(!wineExist[_wineHash],\"Wine already exists\");\r\n            wineHashes.push(_wineHash);\r\n            uint _id = wineHashes.length - 1;\r\n            _mint(msg.sender,_id);\r\n            wineData[_id] = _wineHash;\r\n            wineExist[_wineHash] = true;\r\n            wineCount ++;\r\n    }\r\n\r\n    function getContractBalance() public returns(uint){\r\n\r\n    return address(this).balance;\r\n\r\n\r\n    }\r\n}\r\n\r\n// make an array so that we can fetch the object on UI part.\r\n// make a mapping to keep track of the ipfs hash\r\n",
  "sourcePath": "C:\\Users\\work\\Desktop\\Code\\BoredPhase2\\contracts\\Wine.sol",
  "compiler": {
    "name": "solc",
    "version": "0.8.0+commit.c7dfd78e.Linux.g++"
  },
  "schemaVersion": "3.4.3",
  "updatedAt": "2021-11-24T19:42:05.907Z",
  "networkType": "ethereum",
  "devdoc": {
    "kind": "dev",
    "methods": {
      "approve(address,uint256)": {
        "details": "See {IERC721-approve}."
      },
      "balanceOf(address)": {
        "details": "See {IERC721-balanceOf}."
      },
      "getApproved(uint256)": {
        "details": "See {IERC721-getApproved}."
      },
      "isApprovedForAll(address,address)": {
        "details": "See {IERC721-isApprovedForAll}."
      },
      "name()": {
        "details": "See {IERC721Metadata-name}."
      },
      "ownerOf(uint256)": {
        "details": "See {IERC721-ownerOf}."
      },
      "safeTransferFrom(address,address,uint256)": {
        "details": "See {IERC721-safeTransferFrom}."
      },
      "safeTransferFrom(address,address,uint256,bytes)": {
        "details": "See {IERC721-safeTransferFrom}."
      },
      "setApprovalForAll(address,bool)": {
        "details": "See {IERC721-setApprovalForAll}."
      },
      "symbol()": {
        "details": "See {IERC721Metadata-symbol}."
      },
      "tokenByIndex(uint256)": {
        "details": "See {IERC721Enumerable-tokenByIndex}."
      },
      "tokenOfOwnerByIndex(address,uint256)": {
        "details": "See {IERC721Enumerable-tokenOfOwnerByIndex}."
      },
      "tokenURI(uint256)": {
        "details": "See {IERC721Metadata-tokenURI}."
      },
      "totalSupply()": {
        "details": "See {IERC721Enumerable-totalSupply}."
      },
      "transferFrom(address,address,uint256)": {
        "details": "See {IERC721-transferFrom}."
      }
    },
    "version": 1
  },
  "userdoc": {
    "kind": "user",
    "methods": {},
    "version": 1
  }
}