{
  "contractName": "Wine",
  "abi": [
    {
      "inputs": [],
      "stateMutability": "nonpayable",
      "type": "constructor"
    },
    {
      "anonymous": false,
      "inputs": [
        {
          "indexed": true,
          "internalType": "address",
          "name": "owner",
          "type": "address"
        },
        {
          "indexed": true,
          "internalType": "address",
          "name": "approved",
          "type": "address"
        },
        {
          "indexed": true,
          "internalType": "uint256",
          "name": "tokenId",
          "type": "uint256"
        }
      ],
      "name": "Approval",
      "type": "event"
    },
    {
      "anonymous": false,
      "inputs": [
        {
          "indexed": true,
          "internalType": "address",
          "name": "owner",
          "type": "address"
        },
        {
          "indexed": true,
          "internalType": "address",
          "name": "operator",
          "type": "address"
        },
        {
          "indexed": false,
          "internalType": "bool",
          "name": "approved",
          "type": "bool"
        }
      ],
      "name": "ApprovalForAll",
      "type": "event"
    },
    {
      "anonymous": false,
      "inputs": [
        {
          "indexed": true,
          "internalType": "address",
          "name": "from",
          "type": "address"
        },
        {
          "indexed": true,
          "internalType": "address",
          "name": "to",
          "type": "address"
        },
        {
          "indexed": true,
          "internalType": "uint256",
          "name": "tokenId",
          "type": "uint256"
        }
      ],
      "name": "Transfer",
      "type": "event"
    },
    {
      "inputs": [
        {
          "internalType": "address",
          "name": "to",
          "type": "address"
        },
        {
          "internalType": "uint256",
          "name": "tokenId",
          "type": "uint256"
        }
      ],
      "name": "approve",
      "outputs": [],
      "stateMutability": "nonpayable",
      "type": "function"
    },
    {
      "inputs": [
        {
          "internalType": "address",
          "name": "owner",
          "type": "address"
        }
      ],
      "name": "balanceOf",
      "outputs": [
        {
          "internalType": "uint256",
          "name": "",
          "type": "uint256"
        }
      ],
      "stateMutability": "view",
      "type": "function",
      "constant": true
    },
    {
      "inputs": [
        {
          "internalType": "uint256",
          "name": "tokenId",
          "type": "uint256"
        }
      ],
      "name": "getApproved",
      "outputs": [
        {
          "internalType": "address",
          "name": "",
          "type": "address"
        }
      ],
      "stateMutability": "view",
      "type": "function",
      "constant": true
    },
    {
      "inputs": [
        {
          "internalType": "address",
          "name": "owner",
          "type": "address"
        },
        {
          "internalType": "address",
          "name": "operator",
          "type": "address"
        }
      ],
      "name": "isApprovedForAll",
      "outputs": [
        {
          "internalType": "bool",
          "name": "",
          "type": "bool"
        }
      ],
      "stateMutability": "view",
      "type": "function",
      "constant": true
    },
    {
      "inputs": [],
      "name": "name",
      "outputs": [
        {
          "internalType": "string",
          "name": "",
          "type": "string"
        }
      ],
      "stateMutability": "view",
      "type": "function",
      "constant": true
    },
    {
      "inputs": [
        {
          "internalType": "uint256",
          "name": "tokenId",
          "type": "uint256"
        }
      ],
      "name": "ownerOf",
      "outputs": [
        {
          "internalType": "address",
          "name": "",
          "type": "address"
        }
      ],
      "stateMutability": "view",
      "type": "function",
      "constant": true
    },
    {
      "inputs": [
        {
          "internalType": "address",
          "name": "from",
          "type": "address"
        },
        {
          "internalType": "address",
          "name": "to",
          "type": "address"
        },
        {
          "internalType": "uint256",
          "name": "tokenId",
          "type": "uint256"
        }
      ],
      "name": "safeTransferFrom",
      "outputs": [],
      "stateMutability": "nonpayable",
      "type": "function"
    },
    {
      "inputs": [
        {
          "internalType": "address",
          "name": "from",
          "type": "address"
        },
        {
          "internalType": "address",
          "name": "to",
          "type": "address"
        },
        {
          "internalType": "uint256",
          "name": "tokenId",
          "type": "uint256"
        },
        {
          "internalType": "bytes",
          "name": "_data",
          "type": "bytes"
        }
      ],
      "name": "safeTransferFrom",
      "outputs": [],
      "stateMutability": "nonpayable",
      "type": "function"
    },
    {
      "inputs": [
        {
          "internalType": "address",
          "name": "operator",
          "type": "address"
        },
        {
          "internalType": "bool",
          "name": "approved",
          "type": "bool"
        }
      ],
      "name": "setApprovalForAll",
      "outputs": [],
      "stateMutability": "nonpayable",
      "type": "function"
    },
    {
      "inputs": [],
      "name": "symbol",
      "outputs": [
        {
          "internalType": "string",
          "name": "",
          "type": "string"
        }
      ],
      "stateMutability": "view",
      "type": "function",
      "constant": true
    },
    {
      "inputs": [
        {
          "internalType": "uint256",
          "name": "index",
          "type": "uint256"
        }
      ],
      "name": "tokenByIndex",
      "outputs": [
        {
          "internalType": "uint256",
          "name": "",
          "type": "uint256"
        }
      ],
      "stateMutability": "view",
      "type": "function",
      "constant": true
    },
    {
      "inputs": [
        {
          "internalType": "address",
          "name": "owner",
          "type": "address"
        },
        {
          "internalType": "uint256",
          "name": "index",
          "type": "uint256"
        }
      ],
      "name": "tokenOfOwnerByIndex",
      "outputs": [
        {
          "internalType": "uint256",
          "name": "",
          "type": "uint256"
        }
      ],
      "stateMutability": "view",
      "type": "function",
      "constant": true
    },
    {
      "inputs": [],
      "name": "totalSupply",
      "outputs": [
        {
          "internalType": "uint256",
          "name": "",
          "type": "uint256"
        }
      ],
      "stateMutability": "view",
      "type": "function",
      "constant": true
    },
    {
      "inputs": [
        {
          "internalType": "address",
          "name": "from",
          "type": "address"
        },
        {
          "internalType": "address",
          "name": "to",
          "type": "address"
        },
        {
          "internalType": "uint256",
          "name": "tokenId",
          "type": "uint256"
        }
      ],
      "name": "transferFrom",
      "outputs": [],
      "stateMutability": "nonpayable",
      "type": "function"
    },
    {
      "inputs": [],
      "name": "wineCount",
      "outputs": [
        {
          "internalType": "uint256",
          "name": "",
          "type": "uint256"
        }
      ],
      "stateMutability": "view",
      "type": "function",
      "constant": true
    },
    {
      "inputs": [
        {
          "internalType": "uint256",
          "name": "",
          "type": "uint256"
        }
      ],
      "name": "wineData",
      "outputs": [
        {
          "internalType": "string",
          "name": "",
          "type": "string"
        }
      ],
      "stateMutability": "view",
      "type": "function",
      "constant": true
    },
    {
      "inputs": [
        {
          "internalType": "string",
          "name": "",
          "type": "string"
        }
      ],
      "name": "wineExist",
      "outputs": [
        {
          "internalType": "bool",
          "name": "",
          "type": "bool"
        }
      ],
      "stateMutability": "view",
      "type": "function",
      "constant": true
    },
    {
      "inputs": [
        {
          "internalType": "uint256",
          "name": "",
          "type": "uint256"
        }
      ],
      "name": "wineHashes",
      "outputs": [
        {
          "internalType": "string",
          "name": "",
          "type": "string"
        }
      ],
      "stateMutability": "view",
      "type": "function",
      "constant": true
    },
    {
      "inputs": [
        {
          "internalType": "bytes4",
          "name": "interfaceId",
          "type": "bytes4"
        }
      ],
      "name": "supportsInterface",
      "outputs": [
        {
          "internalType": "bool",
          "name": "",
          "type": "bool"
        }
      ],
      "stateMutability": "view",
      "type": "function",
      "constant": true
    },
    {
      "inputs": [
        {
          "internalType": "string",
          "name": "_wineHash",
          "type": "string"
        }
      ],
      "name": "mint",
      "outputs": [],
      "stateMutability": "payable",
      "type": "function",
      "payable": true
    },
    {
      "inputs": [
        {
          "internalType": "uint256",
          "name": "tokenId",
          "type": "uint256"
        }
      ],
      "name": "tokenURI",
      "outputs": [
        {
          "internalType": "string",
          "name": "",
          "type": "string"
        }
      ],
      "stateMutability": "view",
      "type": "function",
      "constant": true
    }
  ],
  "bytecode": "0x60806040526000600a553480156200001657600080fd5b506040518060400160405280600481526020017f57696e65000000000000000000000000000000000000000000000000000000008152506040518060400160405280600481526020017f57494e450000000000000000000000000000000000000000000000000000000081525081600090805190602001906200009b929190620000bd565b508060019080519060200190620000b4929190620000bd565b505050620001d2565b828054620000cb906200016d565b90600052602060002090601f016020900481019282620000ef57600085556200013b565b82601f106200010a57805160ff19168380011785556200013b565b828001600101855582156200013b579182015b828111156200013a5782518255916020019190600101906200011d565b5b5090506200014a91906200014e565b5090565b5b80821115620001695760008160009055506001016200014f565b5090565b600060028204905060018216806200018657607f821691505b602082108114156200019d576200019c620001a3565b5b50919050565b7f4e487b7100000000000000000000000000000000000000000000000000000000600052602260045260246000fd5b61331880620001e26000396000f3fe608060405260043610610147576000357c01000000000000000000000000000000000000000000000000000000009004806359b07c26116100c857806395d89b411161008c57806395d89b411461046d578063a22cb46514610498578063b88d4fde146104c1578063c87b56dd146104ea578063d85d3d2714610527578063e985e9c51461054357610147565b806359b07c261461034e5780636352211e1461038b5780636b9aac96146103c857806370a08231146103f35780637e8a3dbe1461043057610147565b806323b872dd1161010f57806323b872dd146102455780632f745c591461026e57806342842e0e146102ab5780634f6ccce7146102d457806357a152411461031157610147565b806301ffc9a71461014c57806306fdde0314610189578063081812fc146101b4578063095ea7b3146101f157806318160ddd1461021a575b600080fd5b34801561015857600080fd5b50610173600480360381019061016e9190612485565b610580565b6040516101809190612ce1565b60405180910390f35b34801561019557600080fd5b5061019e610592565b6040516101ab9190612cfc565b60405180910390f35b3480156101c057600080fd5b506101db60048036038101906101d69190612518565b610624565b6040516101e89190612c7a565b60405180910390f35b3480156101fd57600080fd5b5061021860048036038101906102139190612449565b6106a9565b005b34801561022657600080fd5b5061022f6107c1565b60405161023c9190612f3e565b60405180910390f35b34801561025157600080fd5b5061026c60048036038101906102679190612343565b6107ce565b005b34801561027a57600080fd5b5061029560048036038101906102909190612449565b61082e565b6040516102a29190612f3e565b60405180910390f35b3480156102b757600080fd5b506102d260048036038101906102cd9190612343565b6108d3565b005b3480156102e057600080fd5b506102fb60048036038101906102f69190612518565b6108f3565b6040516103089190612f3e565b60405180910390f35b34801561031d57600080fd5b50610338600480360381019061033391906124d7565b61098a565b6040516103459190612ce1565b60405180910390f35b34801561035a57600080fd5b5061037560048036038101906103709190612518565b6109c0565b6040516103829190612cfc565b60405180910390f35b34801561039757600080fd5b506103b260048036038101906103ad9190612518565b610a6c565b6040516103bf9190612c7a565b60405180910390f35b3480156103d457600080fd5b506103dd610b1e565b6040516103ea9190612f3e565b60405180910390f35b3480156103ff57600080fd5b5061041a600480360381019061041591906122de565b610b24565b6040516104279190612f3e565b60405180910390f35b34801561043c57600080fd5b5061045760048036038101906104529190612518565b610bdc565b6040516104649190612cfc565b60405180910390f35b34801561047957600080fd5b50610482610c7c565b60405161048f9190612cfc565b60405180910390f35b3480156104a457600080fd5b506104bf60048036038101906104ba919061240d565b610d0e565b005b3480156104cd57600080fd5b506104e860048036038101906104e39190612392565b610e8f565b005b3480156104f657600080fd5b50610511600480360381019061050c9190612518565b610ef1565b60405161051e9190612cfc565b60405180910390f35b610541600480360381019061053c91906124d7565b610fca565b005b34801561054f57600080fd5b5061056a60048036038101906105659190612307565b611157565b6040516105779190612ce1565b60405180910390f35b600061058b826111eb565b9050919050565b6060600080546105a19061316d565b80601f01602080910402602001604051908101604052809291908181526020018280546105cd9061316d565b801561061a5780601f106105ef5761010080835404028352916020019161061a565b820191906000526020600020905b8154815290600101906020018083116105fd57829003601f168201915b5050505050905090565b600061062f82611265565b61066e576040517f08c379a000000000000000000000000000000000000000000000000000000000815260040161066590612e5e565b60405180910390fd5b6004600083815260200190815260200160002060009054906101000a900473ffffffffffffffffffffffffffffffffffffffff169050919050565b60006106b482610a6c565b90508073ffffffffffffffffffffffffffffffffffffffff168373ffffffffffffffffffffffffffffffffffffffff161415610725576040517f08c379a000000000000000000000000000000000000000000000000000000000815260040161071c90612e9e565b60405180910390fd5b8073ffffffffffffffffffffffffffffffffffffffff166107446112d1565b73ffffffffffffffffffffffffffffffffffffffff16148061077357506107728161076d6112d1565b611157565b5b6107b2576040517f08c379a00000000000000000000000000000000000000000000000000000000081526004016107a990612dde565b60405180910390fd5b6107bc83836112d9565b505050565b6000600880549050905090565b6107df6107d96112d1565b82611392565b61081e576040517f08c379a000000000000000000000000000000000000000000000000000000000815260040161081590612ebe565b60405180910390fd5b610829838383611470565b505050565b600061083983610b24565b821061087a576040517f08c379a000000000000000000000000000000000000000000000000000000000815260040161087190612d1e565b60405180910390fd5b600660008473ffffffffffffffffffffffffffffffffffffffff1673ffffffffffffffffffffffffffffffffffffffff168152602001908152602001600020600083815260200190815260200160002054905092915050565b6108ee83838360405180602001604052806000815250610e8f565b505050565b60006108fd6107c1565b821061093e576040517f08c379a000000000000000000000000000000000000000000000000000000000815260040161093590612ede565b60405180910390fd5b60088281548110610978577f4e487b7100000000000000000000000000000000000000000000000000000000600052603260045260246000fd5b90600052602060002001549050919050565b600c818051602081018201805184825260208301602085012081835280955050505050506000915054906101000a900460ff1681565b600d81815481106109d057600080fd5b9060005260206000200160009150905080546109eb9061316d565b80601f0160208091040260200160405190810160405280929190818152602001828054610a179061316d565b8015610a645780601f10610a3957610100808354040283529160200191610a64565b820191906000526020600020905b815481529060010190602001808311610a4757829003601f168201915b505050505081565b6000806002600084815260200190815260200160002060009054906101000a900473ffffffffffffffffffffffffffffffffffffffff169050600073ffffffffffffffffffffffffffffffffffffffff168173ffffffffffffffffffffffffffffffffffffffff161415610b15576040517f08c379a0000000000000000000000000000000000000000000000000000000008152600401610b0c90612e1e565b60405180910390fd5b80915050919050565b600a5481565b60008073ffffffffffffffffffffffffffffffffffffffff168273ffffffffffffffffffffffffffffffffffffffff161415610b95576040517f08c379a0000000000000000000000000000000000000000000000000000000008152600401610b8c90612dfe565b60405180910390fd5b600360008373ffffffffffffffffffffffffffffffffffffffff1673ffffffffffffffffffffffffffffffffffffffff168152602001908152602001600020549050919050565b600b6020528060005260406000206000915090508054610bfb9061316d565b80601f0160208091040260200160405190810160405280929190818152602001828054610c279061316d565b8015610c745780601f10610c4957610100808354040283529160200191610c74565b820191906000526020600020905b815481529060010190602001808311610c5757829003601f168201915b505050505081565b606060018054610c8b9061316d565b80601f0160208091040260200160405190810160405280929190818152602001828054610cb79061316d565b8015610d045780601f10610cd957610100808354040283529160200191610d04565b820191906000526020600020905b815481529060010190602001808311610ce757829003601f168201915b5050505050905090565b610d166112d1565b73ffffffffffffffffffffffffffffffffffffffff168273ffffffffffffffffffffffffffffffffffffffff161415610d84576040517f08c379a0000000000000000000000000000000000000000000000000000000008152600401610d7b90612d9e565b60405180910390fd5b8060056000610d916112d1565b73ffffffffffffffffffffffffffffffffffffffff1673ffffffffffffffffffffffffffffffffffffffff16815260200190815260200160002060008473ffffffffffffffffffffffffffffffffffffffff1673ffffffffffffffffffffffffffffffffffffffff16815260200190815260200160002060006101000a81548160ff0219169083151502179055508173ffffffffffffffffffffffffffffffffffffffff16610e3e6112d1565b73ffffffffffffffffffffffffffffffffffffffff167f17307eab39ab6107e8899845ad3d59bd9653f200f220920489ca2b5937696c3183604051610e839190612ce1565b60405180910390a35050565b610ea0610e9a6112d1565b83611392565b610edf576040517f08c379a0000000000000000000000000000000000000000000000000000000008152600401610ed690612ebe565b60405180910390fd5b610eeb848484846116cc565b50505050565b60606000610efd611728565b90506000600b60008581526020019081526020016000208054610f1f9061316d565b80601f0160208091040260200160405190810160405280929190818152602001828054610f4b9061316d565b8015610f985780601f10610f6d57610100808354040283529160200191610f98565b820191906000526020600020905b815481529060010190602001808311610f7b57829003601f168201915b505050505090508181604051602001610fb2929190612c56565b60405160208183030381529060405292505050919050565b66470de4df820000341015611014576040517f08c379a000000000000000000000000000000000000000000000000000000000815260040161100b90612efe565b60405180910390fd5b600c816040516110249190612c3f565b908152602001604051809103902060009054906101000a900460ff1615611080576040517f08c379a000000000000000000000000000000000000000000000000000000000815260040161107790612f1e565b60405180910390fd5b600d819080600181540180825580915050600190039060005260206000200160009091909190915090805190602001906110bb929190612102565b5060006001600d805490506110d09190613083565b90506110dc3382611765565b81600b60008381526020019081526020016000209080519060200190611103929190612102565b506001600c836040516111169190612c3f565b908152602001604051809103902060006101000a81548160ff021916908315150217905550600a600081548092919061114e9061319f565b91905055505050565b6000600560008473ffffffffffffffffffffffffffffffffffffffff1673ffffffffffffffffffffffffffffffffffffffff16815260200190815260200160002060008373ffffffffffffffffffffffffffffffffffffffff1673ffffffffffffffffffffffffffffffffffffffff16815260200190815260200160002060009054906101000a900460ff16905092915050565b60007f780e9d63000000000000000000000000000000000000000000000000000000007bffffffffffffffffffffffffffffffffffffffffffffffffffffffff1916827bffffffffffffffffffffffffffffffffffffffffffffffffffffffff1916148061125e575061125d82611933565b5b9050919050565b60008073ffffffffffffffffffffffffffffffffffffffff166002600084815260200190815260200160002060009054906101000a900473ffffffffffffffffffffffffffffffffffffffff1673ffffffffffffffffffffffffffffffffffffffff1614159050919050565b600033905090565b816004600083815260200190815260200160002060006101000a81548173ffffffffffffffffffffffffffffffffffffffff021916908373ffffffffffffffffffffffffffffffffffffffff160217905550808273ffffffffffffffffffffffffffffffffffffffff1661134c83610a6c565b73ffffffffffffffffffffffffffffffffffffffff167f8c5be1e5ebec7d5bd14f71427d1e84f3dd0314c0f7b2291e5b200ac8c7c3b92560405160405180910390a45050565b600061139d82611265565b6113dc576040517f08c379a00000000000000000000000000000000000000000000000000000000081526004016113d390612dbe565b60405180910390fd5b60006113e783610a6c565b90508073ffffffffffffffffffffffffffffffffffffffff168473ffffffffffffffffffffffffffffffffffffffff16148061145657508373ffffffffffffffffffffffffffffffffffffffff1661143e84610624565b73ffffffffffffffffffffffffffffffffffffffff16145b8061146757506114668185611157565b5b91505092915050565b8273ffffffffffffffffffffffffffffffffffffffff1661149082610a6c565b73ffffffffffffffffffffffffffffffffffffffff16146114e6576040517f08c379a00000000000000000000000000000000000000000000000000000000081526004016114dd90612e7e565b60405180910390fd5b600073ffffffffffffffffffffffffffffffffffffffff168273ffffffffffffffffffffffffffffffffffffffff161415611556576040517f08c379a000000000000000000000000000000000000000000000000000000000815260040161154d90612d7e565b60405180910390fd5b611561838383611a15565b61156c6000826112d9565b6001600360008573ffffffffffffffffffffffffffffffffffffffff1673ffffffffffffffffffffffffffffffffffffffff16815260200190815260200160002060008282546115bc9190613083565b925050819055506001600360008473ffffffffffffffffffffffffffffffffffffffff1673ffffffffffffffffffffffffffffffffffffffff1681526020019081526020016000206000828254611613919061302d565b92505081905550816002600083815260200190815260200160002060006101000a81548173ffffffffffffffffffffffffffffffffffffffff021916908373ffffffffffffffffffffffffffffffffffffffff160217905550808273ffffffffffffffffffffffffffffffffffffffff168473ffffffffffffffffffffffffffffffffffffffff167fddf252ad1be2c89b69c2b068fc378daa952ba7f163c4a11628f55a4df523b3ef60405160405180910390a4505050565b6116d7848484611470565b6116e384848484611a25565b611722576040517f08c379a000000000000000000000000000000000000000000000000000000000815260040161171990612d3e565b60405180910390fd5b50505050565b60606040518060400160405280601581526020017f68747470733a2f2f697066732e696f2f697066732f0000000000000000000000815250905090565b600073ffffffffffffffffffffffffffffffffffffffff168273ffffffffffffffffffffffffffffffffffffffff1614156117d5576040517f08c379a00000000000000000000000000000000000000000000000000000000081526004016117cc90612e3e565b60405180910390fd5b6117de81611265565b1561181e576040517f08c379a000000000000000000000000000000000000000000000000000000000815260040161181590612d5e565b60405180910390fd5b61182a60008383611a15565b6001600360008473ffffffffffffffffffffffffffffffffffffffff1673ffffffffffffffffffffffffffffffffffffffff168152602001908152602001600020600082825461187a919061302d565b92505081905550816002600083815260200190815260200160002060006101000a81548173ffffffffffffffffffffffffffffffffffffffff021916908373ffffffffffffffffffffffffffffffffffffffff160217905550808273ffffffffffffffffffffffffffffffffffffffff16600073ffffffffffffffffffffffffffffffffffffffff167fddf252ad1be2c89b69c2b068fc378daa952ba7f163c4a11628f55a4df523b3ef60405160405180910390a45050565b60007f80ac58cd000000000000000000000000000000000000000000000000000000007bffffffffffffffffffffffffffffffffffffffffffffffffffffffff1916827bffffffffffffffffffffffffffffffffffffffffffffffffffffffff191614806119fe57507f5b5e139f000000000000000000000000000000000000000000000000000000007bffffffffffffffffffffffffffffffffffffffffffffffffffffffff1916827bffffffffffffffffffffffffffffffffffffffffffffffffffffffff1916145b80611a0e5750611a0d82611bf4565b5b9050919050565b611a20838383611c5e565b505050565b6000611a468473ffffffffffffffffffffffffffffffffffffffff16611d72565b15611be7578373ffffffffffffffffffffffffffffffffffffffff1663150b7a02611a6f6112d1565b8786866040518563ffffffff167c0100000000000000000000000000000000000000000000000000000000028152600401611aad9493929190612c95565b602060405180830381600087803b158015611ac757600080fd5b505af1925050508015611af857506040513d601f19601f82011682018060405250810190611af591906124ae565b60015b611b7b573d8060008114611b28576040519150601f19603f3d011682016040523d82523d6000602084013e611b2d565b606091505b50600081511415611b73576040517f08c379a0000000000000000000000000000000000000000000000000000000008152600401611b6a90612d3e565b60405180910390fd5b805181602001fd5b63150b7a027c0100000000000000000000000000000000000000000000000000000000027bffffffffffffffffffffffffffffffffffffffffffffffffffffffff1916817bffffffffffffffffffffffffffffffffffffffffffffffffffffffff191614915050611bec565b600190505b949350505050565b60007f01ffc9a7000000000000000000000000000000000000000000000000000000007bffffffffffffffffffffffffffffffffffffffffffffffffffffffff1916827bffffffffffffffffffffffffffffffffffffffffffffffffffffffff1916149050919050565b611c69838383611d85565b600073ffffffffffffffffffffffffffffffffffffffff168373ffffffffffffffffffffffffffffffffffffffff161415611cac57611ca781611d8a565b611ceb565b8173ffffffffffffffffffffffffffffffffffffffff168373ffffffffffffffffffffffffffffffffffffffff1614611cea57611ce98382611dd3565b5b5b600073ffffffffffffffffffffffffffffffffffffffff168273ffffffffffffffffffffffffffffffffffffffff161415611d2e57611d2981611f40565b611d6d565b8273ffffffffffffffffffffffffffffffffffffffff168273ffffffffffffffffffffffffffffffffffffffff1614611d6c57611d6b8282612083565b5b5b505050565b600080823b905060008111915050919050565b505050565b6008805490506009600083815260200190815260200160002081905550600881908060018154018082558091505060019003906000526020600020016000909190919091505550565b60006001611de084610b24565b611dea9190613083565b9050600060076000848152602001908152602001600020549050818114611ecf576000600660008673ffffffffffffffffffffffffffffffffffffffff1673ffffffffffffffffffffffffffffffffffffffff168152602001908152602001600020600084815260200190815260200160002054905080600660008773ffffffffffffffffffffffffffffffffffffffff1673ffffffffffffffffffffffffffffffffffffffff168152602001908152602001600020600084815260200190815260200160002081905550816007600083815260200190815260200160002081905550505b6007600084815260200190815260200160002060009055600660008573ffffffffffffffffffffffffffffffffffffffff1673ffffffffffffffffffffffffffffffffffffffff16815260200190815260200160002060008381526020019081526020016000206000905550505050565b60006001600880549050611f549190613083565b9050600060096000848152602001908152602001600020549050600060088381548110611faa577f4e487b7100000000000000000000000000000000000000000000000000000000600052603260045260246000fd5b906000526020600020015490508060088381548110611ff2577f4e487b7100000000000000000000000000000000000000000000000000000000600052603260045260246000fd5b906000526020600020018190555081600960008381526020019081526020016000208190555060096000858152602001908152602001600020600090556008805480612067577f4e487b7100000000000000000000000000000000000000000000000000000000600052603160045260246000fd5b6001900381819060005260206000200160009055905550505050565b600061208e83610b24565b905081600660008573ffffffffffffffffffffffffffffffffffffffff1673ffffffffffffffffffffffffffffffffffffffff168152602001908152602001600020600083815260200190815260200160002081905550806007600084815260200190815260200160002081905550505050565b82805461210e9061316d565b90600052602060002090601f0160209004810192826121305760008555612177565b82601f1061214957805160ff1916838001178555612177565b82800160010185558215612177579182015b8281111561217657825182559160200191906001019061215b565b5b5090506121849190612188565b5090565b5b808211156121a1576000816000905550600101612189565b5090565b60006121b86121b384612f8a565b612f59565b9050828152602081018484840111156121d057600080fd5b6121db84828561312b565b509392505050565b60006121f66121f184612fba565b612f59565b90508281526020810184848401111561220e57600080fd5b61221984828561312b565b509392505050565b60008135905061223081613286565b92915050565b6000813590506122458161329d565b92915050565b60008135905061225a816132b4565b92915050565b60008151905061226f816132b4565b92915050565b600082601f83011261228657600080fd5b81356122968482602086016121a5565b91505092915050565b600082601f8301126122b057600080fd5b81356122c08482602086016121e3565b91505092915050565b6000813590506122d8816132cb565b92915050565b6000602082840312156122f057600080fd5b60006122fe84828501612221565b91505092915050565b6000806040838503121561231a57600080fd5b600061232885828601612221565b925050602061233985828601612221565b9150509250929050565b60008060006060848603121561235857600080fd5b600061236686828701612221565b935050602061237786828701612221565b9250506040612388868287016122c9565b9150509250925092565b600080600080608085870312156123a857600080fd5b60006123b687828801612221565b94505060206123c787828801612221565b93505060406123d8878288016122c9565b925050606085013567ffffffffffffffff8111156123f557600080fd5b61240187828801612275565b91505092959194509250565b6000806040838503121561242057600080fd5b600061242e85828601612221565b925050602061243f85828601612236565b9150509250929050565b6000806040838503121561245c57600080fd5b600061246a85828601612221565b925050602061247b858286016122c9565b9150509250929050565b60006020828403121561249757600080fd5b60006124a58482850161224b565b91505092915050565b6000602082840312156124c057600080fd5b60006124ce84828501612260565b91505092915050565b6000602082840312156124e957600080fd5b600082013567ffffffffffffffff81111561250357600080fd5b61250f8482850161229f565b91505092915050565b60006020828403121561252a57600080fd5b6000612538848285016122c9565b91505092915050565b61254a816130b7565b82525050565b612559816130c9565b82525050565b600061256a82612fea565b6125748185613000565b935061258481856020860161313a565b61258d81613275565b840191505092915050565b60006125a382612ff5565b6125ad8185613011565b93506125bd81856020860161313a565b6125c681613275565b840191505092915050565b60006125dc82612ff5565b6125e68185613022565b93506125f681856020860161313a565b80840191505092915050565b600061260f602b83613011565b91507f455243373231456e756d657261626c653a206f776e657220696e646578206f7560008301527f74206f6620626f756e64730000000000000000000000000000000000000000006020830152604082019050919050565b6000612675603283613011565b91507f4552433732313a207472616e7366657220746f206e6f6e20455243373231526560008301527f63656976657220696d706c656d656e74657200000000000000000000000000006020830152604082019050919050565b60006126db601c83613011565b91507f4552433732313a20746f6b656e20616c7265616479206d696e746564000000006000830152602082019050919050565b600061271b602483613011565b91507f4552433732313a207472616e7366657220746f20746865207a65726f2061646460008301527f72657373000000000000000000000000000000000000000000000000000000006020830152604082019050919050565b6000612781601983613011565b91507f4552433732313a20617070726f766520746f2063616c6c6572000000000000006000830152602082019050919050565b60006127c1602c83613011565b91507f4552433732313a206f70657261746f7220717565727920666f72206e6f6e657860008301527f697374656e7420746f6b656e00000000000000000000000000000000000000006020830152604082019050919050565b6000612827603883613011565b91507f4552433732313a20617070726f76652063616c6c6572206973206e6f74206f7760008301527f6e6572206e6f7220617070726f76656420666f7220616c6c00000000000000006020830152604082019050919050565b600061288d602a83613011565b91507f4552433732313a2062616c616e636520717565727920666f7220746865207a6560008301527f726f2061646472657373000000000000000000000000000000000000000000006020830152604082019050919050565b60006128f3602983613011565b91507f4552433732313a206f776e657220717565727920666f72206e6f6e657869737460008301527f656e7420746f6b656e00000000000000000000000000000000000000000000006020830152604082019050919050565b6000612959602083613011565b91507f4552433732313a206d696e7420746f20746865207a65726f20616464726573736000830152602082019050919050565b6000612999602c83613011565b91507f4552433732313a20617070726f76656420717565727920666f72206e6f6e657860008301527f697374656e7420746f6b656e00000000000000000000000000000000000000006020830152604082019050919050565b60006129ff602983613011565b91507f4552433732313a207472616e73666572206f6620746f6b656e2074686174206960008301527f73206e6f74206f776e00000000000000000000000000000000000000000000006020830152604082019050919050565b6000612a65602183613011565b91507f4552433732313a20617070726f76616c20746f2063757272656e74206f776e6560008301527f72000000000000000000000000000000000000000000000000000000000000006020830152604082019050919050565b6000612acb603183613011565b91507f4552433732313a207472616e736665722063616c6c6572206973206e6f74206f60008301527f776e6572206e6f7220617070726f7665640000000000000000000000000000006020830152604082019050919050565b6000612b31602c83613011565b91507f455243373231456e756d657261626c653a20676c6f62616c20696e646578206f60008301527f7574206f6620626f756e647300000000000000000000000000000000000000006020830152604082019050919050565b6000612b97602183613011565b91507f4e6f7420656e6f756768204554482073656e743b20636865636b20707269636560008301527f21000000000000000000000000000000000000000000000000000000000000006020830152604082019050919050565b6000612bfd601383613011565b91507f57696e6520616c726561647920657869737473000000000000000000000000006000830152602082019050919050565b612c3981613121565b82525050565b6000612c4b82846125d1565b915081905092915050565b6000612c6282856125d1565b9150612c6e82846125d1565b91508190509392505050565b6000602082019050612c8f6000830184612541565b92915050565b6000608082019050612caa6000830187612541565b612cb76020830186612541565b612cc46040830185612c30565b8181036060830152612cd6818461255f565b905095945050505050565b6000602082019050612cf66000830184612550565b92915050565b60006020820190508181036000830152612d168184612598565b905092915050565b60006020820190508181036000830152612d3781612602565b9050919050565b60006020820190508181036000830152612d5781612668565b9050919050565b60006020820190508181036000830152612d77816126ce565b9050919050565b60006020820190508181036000830152612d978161270e565b9050919050565b60006020820190508181036000830152612db781612774565b9050919050565b60006020820190508181036000830152612dd7816127b4565b9050919050565b60006020820190508181036000830152612df78161281a565b9050919050565b60006020820190508181036000830152612e1781612880565b9050919050565b60006020820190508181036000830152612e37816128e6565b9050919050565b60006020820190508181036000830152612e578161294c565b9050919050565b60006020820190508181036000830152612e778161298c565b9050919050565b60006020820190508181036000830152612e97816129f2565b9050919050565b60006020820190508181036000830152612eb781612a58565b9050919050565b60006020820190508181036000830152612ed781612abe565b9050919050565b60006020820190508181036000830152612ef781612b24565b9050919050565b60006020820190508181036000830152612f1781612b8a565b9050919050565b60006020820190508181036000830152612f3781612bf0565b9050919050565b6000602082019050612f536000830184612c30565b92915050565b6000604051905081810181811067ffffffffffffffff82111715612f8057612f7f613246565b5b8060405250919050565b600067ffffffffffffffff821115612fa557612fa4613246565b5b601f19601f8301169050602081019050919050565b600067ffffffffffffffff821115612fd557612fd4613246565b5b601f19601f8301169050602081019050919050565b600081519050919050565b600081519050919050565b600082825260208201905092915050565b600082825260208201905092915050565b600081905092915050565b600061303882613121565b915061304383613121565b9250827fffffffffffffffffffffffffffffffffffffffffffffffffffffffffffffffff03821115613078576130776131e8565b5b828201905092915050565b600061308e82613121565b915061309983613121565b9250828210156130ac576130ab6131e8565b5b828203905092915050565b60006130c282613101565b9050919050565b60008115159050919050565b60007fffffffff0000000000000000000000000000000000000000000000000000000082169050919050565b600073ffffffffffffffffffffffffffffffffffffffff82169050919050565b6000819050919050565b82818337600083830152505050565b60005b8381101561315857808201518184015260208101905061313d565b83811115613167576000848401525b50505050565b6000600282049050600182168061318557607f821691505b6020821081141561319957613198613217565b5b50919050565b60006131aa82613121565b91507fffffffffffffffffffffffffffffffffffffffffffffffffffffffffffffffff8214156131dd576131dc6131e8565b5b600182019050919050565b7f4e487b7100000000000000000000000000000000000000000000000000000000600052601160045260246000fd5b7f4e487b7100000000000000000000000000000000000000000000000000000000600052602260045260246000fd5b7f4e487b7100000000000000000000000000000000000000000000000000000000600052604160045260246000fd5b6000601f19601f8301169050919050565b61328f816130b7565b811461329a57600080fd5b50565b6132a6816130c9565b81146132b157600080fd5b50565b6132bd816130d5565b81146132c857600080fd5b50565b6132d481613121565b81146132df57600080fd5b5056fea26469706673582212200099344362e494b4c28db7118c1de1b78f6ad6c4e82477f4cd3b764a01032b6164736f6c63430008000033",
  "immutableReferences": {},
  "source": "pragma solidity ^0.8.0;\r\n\r\nimport \"@openzeppelin/contracts/token/ERC721/ERC721.sol\";\r\nimport \"@openzeppelin/contracts/token/ERC721/extensions/ERC721Enumerable.sol\";\r\n\r\n\r\n// import \"./ERC721Full.sol\";\r\n\r\ncontract Wine is ERC721, ERC721Enumerable {\r\n\r\n    // to keep the wine count\r\n    uint public wineCount = 0;\r\n    \r\n\r\n    // to keep the track of ipfshash with data\r\n    mapping(uint => string) public wineData;\r\n    \r\n    // to keep check if the wine exists or not\r\n    mapping(string => bool) public wineExist;\r\n\r\n    // array to store all the ipfs hashes\r\n\r\n    string[] public wineHashes;\r\n\r\n    constructor() ERC721(\"Wine\", \"WINE\") public {\r\n    }\r\n\r\n    function _beforeTokenTransfer(address from, address to, uint256 tokenId)\r\n    internal\r\n    override(ERC721, ERC721Enumerable)\r\n    {\r\n        super._beforeTokenTransfer(from, to, tokenId);\r\n    }\r\n\r\n    function supportsInterface(bytes4 interfaceId)\r\n    public\r\n    view\r\n    override(ERC721, ERC721Enumerable)\r\n    returns (bool)\r\n    {\r\n        return super.supportsInterface(interfaceId);\r\n    }\r\n\r\n    function mint(string memory _wineHash) public payable {\r\n        require(msg.value >= 20000000000000000, \"Not enough ETH sent; check price!\");\r\n        require(!wineExist[_wineHash],\"Wine already exists\");\r\n            wineHashes.push(_wineHash);\r\n            uint _id = wineHashes.length - 1;\r\n            _mint(msg.sender,_id);\r\n            wineData[_id] = _wineHash;\r\n            wineExist[_wineHash] = true;\r\n            wineCount ++;\r\n    }\r\n\r\n    function _baseURI() internal view virtual override returns (string memory) {\r\n        return \"https://ipfs.io/ipfs/\";\r\n    }\r\n\r\n    function tokenURI(uint256 tokenId) public view virtual override returns (string memory) {\r\n        // require(_exists(tokenId), \"ERC721Metadata: URI query for nonexistent token\");\r\n\r\n        string memory baseURI = _baseURI();\r\n        string memory tokenHash = wineData[tokenId];\r\n        return string(abi.encodePacked(baseURI, tokenHash));\r\n        // return bytes(baseURI).length > 0 ? string(abi.encodePacked(baseURI, tokenId.toString())) : \"\";\r\n    }\r\n\r\n    \r\n\r\n  \r\n}\r\n\r\n// make an array so that we can fetch the object on UI part.\r\n// make a mapping to keep track of the ipfs hash\r\n",
  "sourcePath": "C:\\Users\\work\\Desktop\\Code\\BoredPhase2\\contracts\\Wine.sol",
  "compiler": {
    "name": "solc",
    "version": "0.8.0+commit.c7dfd78e.Linux.g++"
  },
  "schemaVersion": "3.4.3",
  "updatedAt": "2021-11-25T20:36:03.414Z",
  "networkType": "ethereum",
  "devdoc": {
    "kind": "dev",
    "methods": {
      "approve(address,uint256)": {
        "details": "See {IERC721-approve}."
      },
      "balanceOf(address)": {
        "details": "See {IERC721-balanceOf}."
      },
      "getApproved(uint256)": {
        "details": "See {IERC721-getApproved}."
      },
      "isApprovedForAll(address,address)": {
        "details": "See {IERC721-isApprovedForAll}."
      },
      "name()": {
        "details": "See {IERC721Metadata-name}."
      },
      "ownerOf(uint256)": {
        "details": "See {IERC721-ownerOf}."
      },
      "safeTransferFrom(address,address,uint256)": {
        "details": "See {IERC721-safeTransferFrom}."
      },
      "safeTransferFrom(address,address,uint256,bytes)": {
        "details": "See {IERC721-safeTransferFrom}."
      },
      "setApprovalForAll(address,bool)": {
        "details": "See {IERC721-setApprovalForAll}."
      },
      "symbol()": {
        "details": "See {IERC721Metadata-symbol}."
      },
      "tokenByIndex(uint256)": {
        "details": "See {IERC721Enumerable-tokenByIndex}."
      },
      "tokenOfOwnerByIndex(address,uint256)": {
        "details": "See {IERC721Enumerable-tokenOfOwnerByIndex}."
      },
      "tokenURI(uint256)": {
        "details": "See {IERC721Metadata-tokenURI}."
      },
      "totalSupply()": {
        "details": "See {IERC721Enumerable-totalSupply}."
      },
      "transferFrom(address,address,uint256)": {
        "details": "See {IERC721-transferFrom}."
      }
    },
    "version": 1
  },
  "userdoc": {
    "kind": "user",
    "methods": {},
    "version": 1
  }
}