{
  "contractName": "Wine",
  "abi": [
    {
      "inputs": [],
      "stateMutability": "nonpayable",
      "type": "constructor"
    },
    {
      "anonymous": false,
      "inputs": [
        {
          "indexed": true,
          "internalType": "address",
          "name": "owner",
          "type": "address"
        },
        {
          "indexed": true,
          "internalType": "address",
          "name": "approved",
          "type": "address"
        },
        {
          "indexed": true,
          "internalType": "uint256",
          "name": "tokenId",
          "type": "uint256"
        }
      ],
      "name": "Approval",
      "type": "event"
    },
    {
      "anonymous": false,
      "inputs": [
        {
          "indexed": true,
          "internalType": "address",
          "name": "owner",
          "type": "address"
        },
        {
          "indexed": true,
          "internalType": "address",
          "name": "operator",
          "type": "address"
        },
        {
          "indexed": false,
          "internalType": "bool",
          "name": "approved",
          "type": "bool"
        }
      ],
      "name": "ApprovalForAll",
      "type": "event"
    },
    {
      "anonymous": false,
      "inputs": [
        {
          "indexed": true,
          "internalType": "address",
          "name": "from",
          "type": "address"
        },
        {
          "indexed": true,
          "internalType": "address",
          "name": "to",
          "type": "address"
        },
        {
          "indexed": true,
          "internalType": "uint256",
          "name": "tokenId",
          "type": "uint256"
        }
      ],
      "name": "Transfer",
      "type": "event"
    },
    {
      "inputs": [
        {
          "internalType": "address",
          "name": "to",
          "type": "address"
        },
        {
          "internalType": "uint256",
          "name": "tokenId",
          "type": "uint256"
        }
      ],
      "name": "approve",
      "outputs": [],
      "stateMutability": "nonpayable",
      "type": "function"
    },
    {
      "inputs": [
        {
          "internalType": "address",
          "name": "owner",
          "type": "address"
        }
      ],
      "name": "balanceOf",
      "outputs": [
        {
          "internalType": "uint256",
          "name": "",
          "type": "uint256"
        }
      ],
      "stateMutability": "view",
      "type": "function",
      "constant": true
    },
    {
      "inputs": [
        {
          "internalType": "uint256",
          "name": "tokenId",
          "type": "uint256"
        }
      ],
      "name": "getApproved",
      "outputs": [
        {
          "internalType": "address",
          "name": "",
          "type": "address"
        }
      ],
      "stateMutability": "view",
      "type": "function",
      "constant": true
    },
    {
      "inputs": [
        {
          "internalType": "uint256",
          "name": "",
          "type": "uint256"
        }
      ],
      "name": "imageHashes",
      "outputs": [
        {
          "internalType": "string",
          "name": "",
          "type": "string"
        }
      ],
      "stateMutability": "view",
      "type": "function",
      "constant": true
    },
    {
      "inputs": [
        {
          "internalType": "address",
          "name": "owner",
          "type": "address"
        },
        {
          "internalType": "address",
          "name": "operator",
          "type": "address"
        }
      ],
      "name": "isApprovedForAll",
      "outputs": [
        {
          "internalType": "bool",
          "name": "",
          "type": "bool"
        }
      ],
      "stateMutability": "view",
      "type": "function",
      "constant": true
    },
    {
      "inputs": [],
      "name": "lastMintCount",
      "outputs": [
        {
          "internalType": "uint256",
          "name": "",
          "type": "uint256"
        }
      ],
      "stateMutability": "view",
      "type": "function",
      "constant": true
    },
    {
      "inputs": [],
      "name": "name",
      "outputs": [
        {
          "internalType": "string",
          "name": "",
          "type": "string"
        }
      ],
      "stateMutability": "view",
      "type": "function",
      "constant": true
    },
    {
      "inputs": [
        {
          "internalType": "uint256",
          "name": "tokenId",
          "type": "uint256"
        }
      ],
      "name": "ownerOf",
      "outputs": [
        {
          "internalType": "address",
          "name": "",
          "type": "address"
        }
      ],
      "stateMutability": "view",
      "type": "function",
      "constant": true
    },
    {
      "inputs": [
        {
          "internalType": "address",
          "name": "from",
          "type": "address"
        },
        {
          "internalType": "address",
          "name": "to",
          "type": "address"
        },
        {
          "internalType": "uint256",
          "name": "tokenId",
          "type": "uint256"
        }
      ],
      "name": "safeTransferFrom",
      "outputs": [],
      "stateMutability": "nonpayable",
      "type": "function"
    },
    {
      "inputs": [
        {
          "internalType": "address",
          "name": "from",
          "type": "address"
        },
        {
          "internalType": "address",
          "name": "to",
          "type": "address"
        },
        {
          "internalType": "uint256",
          "name": "tokenId",
          "type": "uint256"
        },
        {
          "internalType": "bytes",
          "name": "_data",
          "type": "bytes"
        }
      ],
      "name": "safeTransferFrom",
      "outputs": [],
      "stateMutability": "nonpayable",
      "type": "function"
    },
    {
      "inputs": [
        {
          "internalType": "address",
          "name": "operator",
          "type": "address"
        },
        {
          "internalType": "bool",
          "name": "approved",
          "type": "bool"
        }
      ],
      "name": "setApprovalForAll",
      "outputs": [],
      "stateMutability": "nonpayable",
      "type": "function"
    },
    {
      "inputs": [],
      "name": "symbol",
      "outputs": [
        {
          "internalType": "string",
          "name": "",
          "type": "string"
        }
      ],
      "stateMutability": "view",
      "type": "function",
      "constant": true
    },
    {
      "inputs": [
        {
          "internalType": "uint256",
          "name": "index",
          "type": "uint256"
        }
      ],
      "name": "tokenByIndex",
      "outputs": [
        {
          "internalType": "uint256",
          "name": "",
          "type": "uint256"
        }
      ],
      "stateMutability": "view",
      "type": "function",
      "constant": true
    },
    {
      "inputs": [
        {
          "internalType": "address",
          "name": "owner",
          "type": "address"
        },
        {
          "internalType": "uint256",
          "name": "index",
          "type": "uint256"
        }
      ],
      "name": "tokenOfOwnerByIndex",
      "outputs": [
        {
          "internalType": "uint256",
          "name": "",
          "type": "uint256"
        }
      ],
      "stateMutability": "view",
      "type": "function",
      "constant": true
    },
    {
      "inputs": [],
      "name": "totalSupply",
      "outputs": [
        {
          "internalType": "uint256",
          "name": "",
          "type": "uint256"
        }
      ],
      "stateMutability": "view",
      "type": "function",
      "constant": true
    },
    {
      "inputs": [
        {
          "internalType": "address",
          "name": "from",
          "type": "address"
        },
        {
          "internalType": "address",
          "name": "to",
          "type": "address"
        },
        {
          "internalType": "uint256",
          "name": "tokenId",
          "type": "uint256"
        }
      ],
      "name": "transferFrom",
      "outputs": [],
      "stateMutability": "nonpayable",
      "type": "function"
    },
    {
      "inputs": [
        {
          "internalType": "uint256",
          "name": "",
          "type": "uint256"
        }
      ],
      "name": "wineData",
      "outputs": [
        {
          "internalType": "string",
          "name": "",
          "type": "string"
        }
      ],
      "stateMutability": "view",
      "type": "function",
      "constant": true
    },
    {
      "inputs": [
        {
          "internalType": "string",
          "name": "",
          "type": "string"
        }
      ],
      "name": "wineExist",
      "outputs": [
        {
          "internalType": "bool",
          "name": "",
          "type": "bool"
        }
      ],
      "stateMutability": "view",
      "type": "function",
      "constant": true
    },
    {
      "inputs": [
        {
          "internalType": "uint256",
          "name": "",
          "type": "uint256"
        }
      ],
      "name": "wineHashes",
      "outputs": [
        {
          "internalType": "string",
          "name": "",
          "type": "string"
        }
      ],
      "stateMutability": "view",
      "type": "function",
      "constant": true
    },
    {
      "inputs": [
        {
          "internalType": "bytes4",
          "name": "interfaceId",
          "type": "bytes4"
        }
      ],
      "name": "supportsInterface",
      "outputs": [
        {
          "internalType": "bool",
          "name": "",
          "type": "bool"
        }
      ],
      "stateMutability": "view",
      "type": "function",
      "constant": true
    },
    {
      "inputs": [
        {
          "internalType": "string[]",
          "name": "_wineHash",
          "type": "string[]"
        },
        {
          "internalType": "uint256",
          "name": "wineAmount",
          "type": "uint256"
        }
      ],
      "name": "mint",
      "outputs": [],
      "stateMutability": "nonpayable",
      "type": "function"
    },
    {
      "inputs": [],
      "name": "getMintedImages",
      "outputs": [
        {
          "internalType": "uint256",
          "name": "",
          "type": "uint256"
        }
      ],
      "stateMutability": "view",
      "type": "function",
      "constant": true
    },
    {
      "inputs": [
        {
          "internalType": "uint256",
          "name": "tokenId",
          "type": "uint256"
        }
      ],
      "name": "tokenURI",
      "outputs": [
        {
          "internalType": "string",
          "name": "",
          "type": "string"
        }
      ],
      "stateMutability": "view",
      "type": "function",
      "constant": true
    },
    {
      "inputs": [
        {
          "internalType": "uint256",
          "name": "tokenId",
          "type": "uint256"
        }
      ],
      "name": "burn",
      "outputs": [],
      "stateMutability": "nonpayable",
      "type": "function"
    }
  ],
  "bytecode": "0x60806040526000600c553480156200001657600080fd5b506040518060400160405280600481526020017f57696e65000000000000000000000000000000000000000000000000000000008152506040518060400160405280600481526020017f57494e450000000000000000000000000000000000000000000000000000000081525081600090805190602001906200009b929190620000bd565b508060019080519060200190620000b4929190620000bd565b505050620001d2565b828054620000cb906200016d565b90600052602060002090601f016020900481019282620000ef57600085556200013b565b82601f106200010a57805160ff19168380011785556200013b565b828001600101855582156200013b579182015b828111156200013a5782518255916020019190600101906200011d565b5b5090506200014a91906200014e565b5090565b5b80821115620001695760008160009055506001016200014f565b5090565b600060028204905060018216806200018657607f821691505b602082108114156200019d576200019c620001a3565b5b50919050565b7f4e487b7100000000000000000000000000000000000000000000000000000000600052602260045260246000fd5b61361180620001e26000396000f3fe608060405234801561001057600080fd5b5060043610610175576000357c01000000000000000000000000000000000000000000000000000000009004806359b07c26116100e0578063a22cb46511610099578063a22cb46514610430578063a8d4ab6c1461044c578063b88d4fde1461047c578063bd7c27e014610498578063c87b56dd146104b4578063e985e9c5146104e457610175565b806359b07c26146103345780636352211e1461036457806370a08231146103945780637e8a3dbe146103c4578063891c05ce146103f457806395d89b411461041257610175565b806323b872dd1161013257806323b872dd146102505780632f745c591461026c57806342842e0e1461029c57806342966c68146102b85780634f6ccce7146102d457806357a152411461030457610175565b806301ffc9a71461017a57806306fdde03146101aa578063081812fc146101c8578063095ea7b3146101f857806318160ddd14610214578063236bfc7314610232575b600080fd5b610194600480360381019061018f9190612786565b610514565b6040516101a19190612fa3565b60405180910390f35b6101b2610526565b6040516101bf9190612fbe565b60405180910390f35b6101e260048036038101906101dd9190612819565b6105b8565b6040516101ef9190612f3c565b60405180910390f35b610212600480360381019061020d91906126f2565b61063d565b005b61021c610755565b60405161022991906131e0565b60405180910390f35b61023a610762565b60405161024791906131e0565b60405180910390f35b61026a600480360381019061026591906125ec565b61076c565b005b610286600480360381019061028191906126f2565b6107cc565b60405161029391906131e0565b60405180910390f35b6102b660048036038101906102b191906125ec565b610871565b005b6102d260048036038101906102cd9190612819565b610891565b005b6102ee60048036038101906102e99190612819565b61089d565b6040516102fb91906131e0565b60405180910390f35b61031e600480360381019061031991906127d8565b610934565b60405161032b9190612fa3565b60405180910390f35b61034e60048036038101906103499190612819565b61096a565b60405161035b9190612fbe565b60405180910390f35b61037e60048036038101906103799190612819565b610a16565b60405161038b9190612f3c565b60405180910390f35b6103ae60048036038101906103a99190612587565b610ac8565b6040516103bb91906131e0565b60405180910390f35b6103de60048036038101906103d99190612819565b610b80565b6040516103eb9190612fbe565b60405180910390f35b6103fc610c20565b60405161040991906131e0565b60405180910390f35b61041a610c26565b6040516104279190612fbe565b60405180910390f35b61044a600480360381019061044591906126b6565b610cb8565b005b61046660048036038101906104619190612819565b610e39565b6040516104739190612fbe565b60405180910390f35b6104966004803603810190610491919061263b565b610ee5565b005b6104b260048036038101906104ad919061272e565b610f47565b005b6104ce60048036038101906104c99190612819565b6111cc565b6040516104db9190612fbe565b60405180910390f35b6104fe60048036038101906104f991906125b0565b6112a5565b60405161050b9190612fa3565b60405180910390f35b600061051f82611339565b9050919050565b60606000805461053590613466565b80601f016020809104026020016040519081016040528092919081815260200182805461056190613466565b80156105ae5780601f10610583576101008083540402835291602001916105ae565b820191906000526020600020905b81548152906001019060200180831161059157829003601f168201915b5050505050905090565b60006105c3826113b3565b610602576040517f08c379a00000000000000000000000000000000000000000000000000000000081526004016105f990613120565b60405180910390fd5b6004600083815260200190815260200160002060009054906101000a900473ffffffffffffffffffffffffffffffffffffffff169050919050565b600061064882610a16565b90508073ffffffffffffffffffffffffffffffffffffffff168373ffffffffffffffffffffffffffffffffffffffff1614156106b9576040517f08c379a00000000000000000000000000000000000000000000000000000000081526004016106b090613160565b60405180910390fd5b8073ffffffffffffffffffffffffffffffffffffffff166106d861141f565b73ffffffffffffffffffffffffffffffffffffffff16148061070757506107068161070161141f565b6112a5565b5b610746576040517f08c379a000000000000000000000000000000000000000000000000000000000815260040161073d906130a0565b60405180910390fd5b6107508383611427565b505050565b6000600880549050905090565b6000600c54905090565b61077d61077761141f565b826114e0565b6107bc576040517f08c379a00000000000000000000000000000000000000000000000000000000081526004016107b390613180565b60405180910390fd5b6107c78383836115be565b505050565b60006107d783610ac8565b8210610818576040517f08c379a000000000000000000000000000000000000000000000000000000000815260040161080f90612fe0565b60405180910390fd5b600660008473ffffffffffffffffffffffffffffffffffffffff1673ffffffffffffffffffffffffffffffffffffffff168152602001908152602001600020600083815260200190815260200160002054905092915050565b61088c83838360405180602001604052806000815250610ee5565b505050565b61089a8161181a565b50565b60006108a7610755565b82106108e8576040517f08c379a00000000000000000000000000000000000000000000000000000000081526004016108df906131a0565b60405180910390fd5b60088281548110610922577f4e487b7100000000000000000000000000000000000000000000000000000000600052603260045260246000fd5b90600052602060002001549050919050565b600b818051602081018201805184825260208301602085012081835280955050505050506000915054906101000a900460ff1681565b600d818154811061097a57600080fd5b90600052602060002001600091509050805461099590613466565b80601f01602080910402602001604051908101604052809291908181526020018280546109c190613466565b8015610a0e5780601f106109e357610100808354040283529160200191610a0e565b820191906000526020600020905b8154815290600101906020018083116109f157829003601f168201915b505050505081565b6000806002600084815260200190815260200160002060009054906101000a900473ffffffffffffffffffffffffffffffffffffffff169050600073ffffffffffffffffffffffffffffffffffffffff168173ffffffffffffffffffffffffffffffffffffffff161415610abf576040517f08c379a0000000000000000000000000000000000000000000000000000000008152600401610ab6906130e0565b60405180910390fd5b80915050919050565b60008073ffffffffffffffffffffffffffffffffffffffff168273ffffffffffffffffffffffffffffffffffffffff161415610b39576040517f08c379a0000000000000000000000000000000000000000000000000000000008152600401610b30906130c0565b60405180910390fd5b600360008373ffffffffffffffffffffffffffffffffffffffff1673ffffffffffffffffffffffffffffffffffffffff168152602001908152602001600020549050919050565b600a6020528060005260406000206000915090508054610b9f90613466565b80601f0160208091040260200160405190810160405280929190818152602001828054610bcb90613466565b8015610c185780601f10610bed57610100808354040283529160200191610c18565b820191906000526020600020905b815481529060010190602001808311610bfb57829003601f168201915b505050505081565b600c5481565b606060018054610c3590613466565b80601f0160208091040260200160405190810160405280929190818152602001828054610c6190613466565b8015610cae5780601f10610c8357610100808354040283529160200191610cae565b820191906000526020600020905b815481529060010190602001808311610c9157829003601f168201915b5050505050905090565b610cc061141f565b73ffffffffffffffffffffffffffffffffffffffff168273ffffffffffffffffffffffffffffffffffffffff161415610d2e576040517f08c379a0000000000000000000000000000000000000000000000000000000008152600401610d2590613060565b60405180910390fd5b8060056000610d3b61141f565b73ffffffffffffffffffffffffffffffffffffffff1673ffffffffffffffffffffffffffffffffffffffff16815260200190815260200160002060008473ffffffffffffffffffffffffffffffffffffffff1673ffffffffffffffffffffffffffffffffffffffff16815260200190815260200160002060006101000a81548160ff0219169083151502179055508173ffffffffffffffffffffffffffffffffffffffff16610de861141f565b73ffffffffffffffffffffffffffffffffffffffff167f17307eab39ab6107e8899845ad3d59bd9653f200f220920489ca2b5937696c3183604051610e2d9190612fa3565b60405180910390a35050565b600e8181548110610e4957600080fd5b906000526020600020016000915090508054610e6490613466565b80601f0160208091040260200160405190810160405280929190818152602001828054610e9090613466565b8015610edd5780601f10610eb257610100808354040283529160200191610edd565b820191906000526020600020905b815481529060010190602001808311610ec057829003601f168201915b505050505081565b610ef6610ef061141f565b836114e0565b610f35576040517f08c379a0000000000000000000000000000000000000000000000000000000008152600401610f2c90613180565b60405180910390fd5b610f418484848461192b565b50505050565b60005b818110156111b257600b848483818110610f8d577f4e487b7100000000000000000000000000000000000000000000000000000000600052603260045260246000fd5b9050602002810190610f9f91906131fb565b604051610fad929190612eff565b908152602001604051809103902060009054906101000a900460ff1615611009576040517f08c379a0000000000000000000000000000000000000000000000000000000008152600401611000906131c0565b60405180910390fd5b600d848483818110611044577f4e487b7100000000000000000000000000000000000000000000000000000000600052603260045260246000fd5b905060200281019061105691906131fb565b9091806001815401808255809150506001900390600052602060002001600090919290919290919290919250919061108f929190612361565b5060006001600d805490506110a4919061337c565b90506110b03382611987565b8484838181106110e9577f4e487b7100000000000000000000000000000000000000000000000000000000600052603260045260246000fd5b90506020028101906110fb91906131fb565b600a6000848152602001908152602001600020919061111b929190612361565b506001600b868685818110611159577f4e487b7100000000000000000000000000000000000000000000000000000000600052603260045260246000fd5b905060200281019061116b91906131fb565b604051611179929190612eff565b908152602001604051809103902060006101000a81548160ff0219169083151502179055505080806111aa90613498565b915050610f4a565b50600c54816111c19190613326565b600c81905550505050565b606060006111d8611b55565b90506000600a600085815260200190815260200160002080546111fa90613466565b80601f016020809104026020016040519081016040528092919081815260200182805461122690613466565b80156112735780601f1061124857610100808354040283529160200191611273565b820191906000526020600020905b81548152906001019060200180831161125657829003601f168201915b50505050509050818160405160200161128d929190612f18565b60405160208183030381529060405292505050919050565b6000600560008473ffffffffffffffffffffffffffffffffffffffff1673ffffffffffffffffffffffffffffffffffffffff16815260200190815260200160002060008373ffffffffffffffffffffffffffffffffffffffff1673ffffffffffffffffffffffffffffffffffffffff16815260200190815260200160002060009054906101000a900460ff16905092915050565b60007f780e9d63000000000000000000000000000000000000000000000000000000007bffffffffffffffffffffffffffffffffffffffffffffffffffffffff1916827bffffffffffffffffffffffffffffffffffffffffffffffffffffffff191614806113ac57506113ab82611b92565b5b9050919050565b60008073ffffffffffffffffffffffffffffffffffffffff166002600084815260200190815260200160002060009054906101000a900473ffffffffffffffffffffffffffffffffffffffff1673ffffffffffffffffffffffffffffffffffffffff1614159050919050565b600033905090565b816004600083815260200190815260200160002060006101000a81548173ffffffffffffffffffffffffffffffffffffffff021916908373ffffffffffffffffffffffffffffffffffffffff160217905550808273ffffffffffffffffffffffffffffffffffffffff1661149a83610a16565b73ffffffffffffffffffffffffffffffffffffffff167f8c5be1e5ebec7d5bd14f71427d1e84f3dd0314c0f7b2291e5b200ac8c7c3b92560405160405180910390a45050565b60006114eb826113b3565b61152a576040517f08c379a000000000000000000000000000000000000000000000000000000000815260040161152190613080565b60405180910390fd5b600061153583610a16565b90508073ffffffffffffffffffffffffffffffffffffffff168473ffffffffffffffffffffffffffffffffffffffff1614806115a457508373ffffffffffffffffffffffffffffffffffffffff1661158c846105b8565b73ffffffffffffffffffffffffffffffffffffffff16145b806115b557506115b481856112a5565b5b91505092915050565b8273ffffffffffffffffffffffffffffffffffffffff166115de82610a16565b73ffffffffffffffffffffffffffffffffffffffff1614611634576040517f08c379a000000000000000000000000000000000000000000000000000000000815260040161162b90613140565b60405180910390fd5b600073ffffffffffffffffffffffffffffffffffffffff168273ffffffffffffffffffffffffffffffffffffffff1614156116a4576040517f08c379a000000000000000000000000000000000000000000000000000000000815260040161169b90613040565b60405180910390fd5b6116af838383611c74565b6116ba600082611427565b6001600360008573ffffffffffffffffffffffffffffffffffffffff1673ffffffffffffffffffffffffffffffffffffffff168152602001908152602001600020600082825461170a919061337c565b925050819055506001600360008473ffffffffffffffffffffffffffffffffffffffff1673ffffffffffffffffffffffffffffffffffffffff16815260200190815260200160002060008282546117619190613326565b92505081905550816002600083815260200190815260200160002060006101000a81548173ffffffffffffffffffffffffffffffffffffffff021916908373ffffffffffffffffffffffffffffffffffffffff160217905550808273ffffffffffffffffffffffffffffffffffffffff168473ffffffffffffffffffffffffffffffffffffffff167fddf252ad1be2c89b69c2b068fc378daa952ba7f163c4a11628f55a4df523b3ef60405160405180910390a4505050565b600061182582610a16565b905061183381600084611c74565b61183e600083611427565b6001600360008373ffffffffffffffffffffffffffffffffffffffff1673ffffffffffffffffffffffffffffffffffffffff168152602001908152602001600020600082825461188e919061337c565b925050819055506002600083815260200190815260200160002060006101000a81549073ffffffffffffffffffffffffffffffffffffffff021916905581600073ffffffffffffffffffffffffffffffffffffffff168273ffffffffffffffffffffffffffffffffffffffff167fddf252ad1be2c89b69c2b068fc378daa952ba7f163c4a11628f55a4df523b3ef60405160405180910390a45050565b6119368484846115be565b61194284848484611c84565b611981576040517f08c379a000000000000000000000000000000000000000000000000000000000815260040161197890613000565b60405180910390fd5b50505050565b600073ffffffffffffffffffffffffffffffffffffffff168273ffffffffffffffffffffffffffffffffffffffff1614156119f7576040517f08c379a00000000000000000000000000000000000000000000000000000000081526004016119ee90613100565b60405180910390fd5b611a00816113b3565b15611a40576040517f08c379a0000000000000000000000000000000000000000000000000000000008152600401611a3790613020565b60405180910390fd5b611a4c60008383611c74565b6001600360008473ffffffffffffffffffffffffffffffffffffffff1673ffffffffffffffffffffffffffffffffffffffff1681526020019081526020016000206000828254611a9c9190613326565b92505081905550816002600083815260200190815260200160002060006101000a81548173ffffffffffffffffffffffffffffffffffffffff021916908373ffffffffffffffffffffffffffffffffffffffff160217905550808273ffffffffffffffffffffffffffffffffffffffff16600073ffffffffffffffffffffffffffffffffffffffff167fddf252ad1be2c89b69c2b068fc378daa952ba7f163c4a11628f55a4df523b3ef60405160405180910390a45050565b60606040518060400160405280601581526020017f68747470733a2f2f697066732e696f2f697066732f0000000000000000000000815250905090565b60007f80ac58cd000000000000000000000000000000000000000000000000000000007bffffffffffffffffffffffffffffffffffffffffffffffffffffffff1916827bffffffffffffffffffffffffffffffffffffffffffffffffffffffff19161480611c5d57507f5b5e139f000000000000000000000000000000000000000000000000000000007bffffffffffffffffffffffffffffffffffffffffffffffffffffffff1916827bffffffffffffffffffffffffffffffffffffffffffffffffffffffff1916145b80611c6d5750611c6c82611e53565b5b9050919050565b611c7f838383611ebd565b505050565b6000611ca58473ffffffffffffffffffffffffffffffffffffffff16611fd1565b15611e46578373ffffffffffffffffffffffffffffffffffffffff1663150b7a02611cce61141f565b8786866040518563ffffffff167c0100000000000000000000000000000000000000000000000000000000028152600401611d0c9493929190612f57565b602060405180830381600087803b158015611d2657600080fd5b505af1925050508015611d5757506040513d601f19601f82011682018060405250810190611d5491906127af565b60015b611dda573d8060008114611d87576040519150601f19603f3d011682016040523d82523d6000602084013e611d8c565b606091505b50600081511415611dd2576040517f08c379a0000000000000000000000000000000000000000000000000000000008152600401611dc990613000565b60405180910390fd5b805181602001fd5b63150b7a027c0100000000000000000000000000000000000000000000000000000000027bffffffffffffffffffffffffffffffffffffffffffffffffffffffff1916817bffffffffffffffffffffffffffffffffffffffffffffffffffffffff191614915050611e4b565b600190505b949350505050565b60007f01ffc9a7000000000000000000000000000000000000000000000000000000007bffffffffffffffffffffffffffffffffffffffffffffffffffffffff1916827bffffffffffffffffffffffffffffffffffffffffffffffffffffffff1916149050919050565b611ec8838383611fe4565b600073ffffffffffffffffffffffffffffffffffffffff168373ffffffffffffffffffffffffffffffffffffffff161415611f0b57611f0681611fe9565b611f4a565b8173ffffffffffffffffffffffffffffffffffffffff168373ffffffffffffffffffffffffffffffffffffffff1614611f4957611f488382612032565b5b5b600073ffffffffffffffffffffffffffffffffffffffff168273ffffffffffffffffffffffffffffffffffffffff161415611f8d57611f888161219f565b611fcc565b8273ffffffffffffffffffffffffffffffffffffffff168273ffffffffffffffffffffffffffffffffffffffff1614611fcb57611fca82826122e2565b5b5b505050565b600080823b905060008111915050919050565b505050565b6008805490506009600083815260200190815260200160002081905550600881908060018154018082558091505060019003906000526020600020016000909190919091505550565b6000600161203f84610ac8565b612049919061337c565b905060006007600084815260200190815260200160002054905081811461212e576000600660008673ffffffffffffffffffffffffffffffffffffffff1673ffffffffffffffffffffffffffffffffffffffff168152602001908152602001600020600084815260200190815260200160002054905080600660008773ffffffffffffffffffffffffffffffffffffffff1673ffffffffffffffffffffffffffffffffffffffff168152602001908152602001600020600084815260200190815260200160002081905550816007600083815260200190815260200160002081905550505b6007600084815260200190815260200160002060009055600660008573ffffffffffffffffffffffffffffffffffffffff1673ffffffffffffffffffffffffffffffffffffffff16815260200190815260200160002060008381526020019081526020016000206000905550505050565b600060016008805490506121b3919061337c565b9050600060096000848152602001908152602001600020549050600060088381548110612209577f4e487b7100000000000000000000000000000000000000000000000000000000600052603260045260246000fd5b906000526020600020015490508060088381548110612251577f4e487b7100000000000000000000000000000000000000000000000000000000600052603260045260246000fd5b9060005260206000200181905550816009600083815260200190815260200160002081905550600960008581526020019081526020016000206000905560088054806122c6577f4e487b7100000000000000000000000000000000000000000000000000000000600052603160045260246000fd5b6001900381819060005260206000200160009055905550505050565b60006122ed83610ac8565b905081600660008573ffffffffffffffffffffffffffffffffffffffff1673ffffffffffffffffffffffffffffffffffffffff168152602001908152602001600020600083815260200190815260200160002081905550806007600084815260200190815260200160002081905550505050565b82805461236d90613466565b90600052602060002090601f01602090048101928261238f57600085556123d6565b82601f106123a857803560ff19168380011785556123d6565b828001600101855582156123d6579182015b828111156123d55782358255916020019190600101906123ba565b5b5090506123e391906123e7565b5090565b5b808211156124005760008160009055506001016123e8565b5090565b600061241761241284613283565b613252565b90508281526020810184848401111561242f57600080fd5b61243a848285613424565b509392505050565b6000612455612450846132b3565b613252565b90508281526020810184848401111561246d57600080fd5b612478848285613424565b509392505050565b60008135905061248f8161357f565b92915050565b60008083601f8401126124a757600080fd5b8235905067ffffffffffffffff8111156124c057600080fd5b6020830191508360208202830111156124d857600080fd5b9250929050565b6000813590506124ee81613596565b92915050565b600081359050612503816135ad565b92915050565b600081519050612518816135ad565b92915050565b600082601f83011261252f57600080fd5b813561253f848260208601612404565b91505092915050565b600082601f83011261255957600080fd5b8135612569848260208601612442565b91505092915050565b600081359050612581816135c4565b92915050565b60006020828403121561259957600080fd5b60006125a784828501612480565b91505092915050565b600080604083850312156125c357600080fd5b60006125d185828601612480565b92505060206125e285828601612480565b9150509250929050565b60008060006060848603121561260157600080fd5b600061260f86828701612480565b935050602061262086828701612480565b925050604061263186828701612572565b9150509250925092565b6000806000806080858703121561265157600080fd5b600061265f87828801612480565b945050602061267087828801612480565b935050604061268187828801612572565b925050606085013567ffffffffffffffff81111561269e57600080fd5b6126aa8782880161251e565b91505092959194509250565b600080604083850312156126c957600080fd5b60006126d785828601612480565b92505060206126e8858286016124df565b9150509250929050565b6000806040838503121561270557600080fd5b600061271385828601612480565b925050602061272485828601612572565b9150509250929050565b60008060006040848603121561274357600080fd5b600084013567ffffffffffffffff81111561275d57600080fd5b61276986828701612495565b9350935050602061277c86828701612572565b9150509250925092565b60006020828403121561279857600080fd5b60006127a6848285016124f4565b91505092915050565b6000602082840312156127c157600080fd5b60006127cf84828501612509565b91505092915050565b6000602082840312156127ea57600080fd5b600082013567ffffffffffffffff81111561280457600080fd5b61281084828501612548565b91505092915050565b60006020828403121561282b57600080fd5b600061283984828501612572565b91505092915050565b61284b816133b0565b82525050565b61285a816133c2565b82525050565b600061286b826132e3565b61287581856132f9565b9350612885818560208601613433565b61288e8161356e565b840191505092915050565b60006128a5838561331b565b93506128b2838584613424565b82840190509392505050565b60006128c9826132ee565b6128d3818561330a565b93506128e3818560208601613433565b6128ec8161356e565b840191505092915050565b6000612902826132ee565b61290c818561331b565b935061291c818560208601613433565b80840191505092915050565b6000612935602b8361330a565b91507f455243373231456e756d657261626c653a206f776e657220696e646578206f7560008301527f74206f6620626f756e64730000000000000000000000000000000000000000006020830152604082019050919050565b600061299b60328361330a565b91507f4552433732313a207472616e7366657220746f206e6f6e20455243373231526560008301527f63656976657220696d706c656d656e74657200000000000000000000000000006020830152604082019050919050565b6000612a01601c8361330a565b91507f4552433732313a20746f6b656e20616c7265616479206d696e746564000000006000830152602082019050919050565b6000612a4160248361330a565b91507f4552433732313a207472616e7366657220746f20746865207a65726f2061646460008301527f72657373000000000000000000000000000000000000000000000000000000006020830152604082019050919050565b6000612aa760198361330a565b91507f4552433732313a20617070726f766520746f2063616c6c6572000000000000006000830152602082019050919050565b6000612ae7602c8361330a565b91507f4552433732313a206f70657261746f7220717565727920666f72206e6f6e657860008301527f697374656e7420746f6b656e00000000000000000000000000000000000000006020830152604082019050919050565b6000612b4d60388361330a565b91507f4552433732313a20617070726f76652063616c6c6572206973206e6f74206f7760008301527f6e6572206e6f7220617070726f76656420666f7220616c6c00000000000000006020830152604082019050919050565b6000612bb3602a8361330a565b91507f4552433732313a2062616c616e636520717565727920666f7220746865207a6560008301527f726f2061646472657373000000000000000000000000000000000000000000006020830152604082019050919050565b6000612c1960298361330a565b91507f4552433732313a206f776e657220717565727920666f72206e6f6e657869737460008301527f656e7420746f6b656e00000000000000000000000000000000000000000000006020830152604082019050919050565b6000612c7f60208361330a565b91507f4552433732313a206d696e7420746f20746865207a65726f20616464726573736000830152602082019050919050565b6000612cbf602c8361330a565b91507f4552433732313a20617070726f76656420717565727920666f72206e6f6e657860008301527f697374656e7420746f6b656e00000000000000000000000000000000000000006020830152604082019050919050565b6000612d2560298361330a565b91507f4552433732313a207472616e73666572206f6620746f6b656e2074686174206960008301527f73206e6f74206f776e00000000000000000000000000000000000000000000006020830152604082019050919050565b6000612d8b60218361330a565b91507f4552433732313a20617070726f76616c20746f2063757272656e74206f776e6560008301527f72000000000000000000000000000000000000000000000000000000000000006020830152604082019050919050565b6000612df160318361330a565b91507f4552433732313a207472616e736665722063616c6c6572206973206e6f74206f60008301527f776e6572206e6f7220617070726f7665640000000000000000000000000000006020830152604082019050919050565b6000612e57602c8361330a565b91507f455243373231456e756d657261626c653a20676c6f62616c20696e646578206f60008301527f7574206f6620626f756e647300000000000000000000000000000000000000006020830152604082019050919050565b6000612ebd60138361330a565b91507f57696e6520616c726561647920657869737473000000000000000000000000006000830152602082019050919050565b612ef98161341a565b82525050565b6000612f0c828486612899565b91508190509392505050565b6000612f2482856128f7565b9150612f3082846128f7565b91508190509392505050565b6000602082019050612f516000830184612842565b92915050565b6000608082019050612f6c6000830187612842565b612f796020830186612842565b612f866040830185612ef0565b8181036060830152612f988184612860565b905095945050505050565b6000602082019050612fb86000830184612851565b92915050565b60006020820190508181036000830152612fd881846128be565b905092915050565b60006020820190508181036000830152612ff981612928565b9050919050565b600060208201905081810360008301526130198161298e565b9050919050565b60006020820190508181036000830152613039816129f4565b9050919050565b6000602082019050818103600083015261305981612a34565b9050919050565b6000602082019050818103600083015261307981612a9a565b9050919050565b6000602082019050818103600083015261309981612ada565b9050919050565b600060208201905081810360008301526130b981612b40565b9050919050565b600060208201905081810360008301526130d981612ba6565b9050919050565b600060208201905081810360008301526130f981612c0c565b9050919050565b6000602082019050818103600083015261311981612c72565b9050919050565b6000602082019050818103600083015261313981612cb2565b9050919050565b6000602082019050818103600083015261315981612d18565b9050919050565b6000602082019050818103600083015261317981612d7e565b9050919050565b6000602082019050818103600083015261319981612de4565b9050919050565b600060208201905081810360008301526131b981612e4a565b9050919050565b600060208201905081810360008301526131d981612eb0565b9050919050565b60006020820190506131f56000830184612ef0565b92915050565b6000808335600160200384360303811261321457600080fd5b80840192508235915067ffffffffffffffff82111561323257600080fd5b60208301925060018202360383131561324a57600080fd5b509250929050565b6000604051905081810181811067ffffffffffffffff821117156132795761327861353f565b5b8060405250919050565b600067ffffffffffffffff82111561329e5761329d61353f565b5b601f19601f8301169050602081019050919050565b600067ffffffffffffffff8211156132ce576132cd61353f565b5b601f19601f8301169050602081019050919050565b600081519050919050565b600081519050919050565b600082825260208201905092915050565b600082825260208201905092915050565b600081905092915050565b60006133318261341a565b915061333c8361341a565b9250827fffffffffffffffffffffffffffffffffffffffffffffffffffffffffffffffff03821115613371576133706134e1565b5b828201905092915050565b60006133878261341a565b91506133928361341a565b9250828210156133a5576133a46134e1565b5b828203905092915050565b60006133bb826133fa565b9050919050565b60008115159050919050565b60007fffffffff0000000000000000000000000000000000000000000000000000000082169050919050565b600073ffffffffffffffffffffffffffffffffffffffff82169050919050565b6000819050919050565b82818337600083830152505050565b60005b83811015613451578082015181840152602081019050613436565b83811115613460576000848401525b50505050565b6000600282049050600182168061347e57607f821691505b6020821081141561349257613491613510565b5b50919050565b60006134a38261341a565b91507fffffffffffffffffffffffffffffffffffffffffffffffffffffffffffffffff8214156134d6576134d56134e1565b5b600182019050919050565b7f4e487b7100000000000000000000000000000000000000000000000000000000600052601160045260246000fd5b7f4e487b7100000000000000000000000000000000000000000000000000000000600052602260045260246000fd5b7f4e487b7100000000000000000000000000000000000000000000000000000000600052604160045260246000fd5b6000601f19601f8301169050919050565b613588816133b0565b811461359357600080fd5b50565b61359f816133c2565b81146135aa57600080fd5b50565b6135b6816133ce565b81146135c157600080fd5b50565b6135cd8161341a565b81146135d857600080fd5b5056fea26469706673582212207a3c7de161413f3b6a36349683df50e14063f99405a73bb655836d5fb775dd9464736f6c63430008000033",
  "immutableReferences": {},
  "source": "pragma solidity ^0.8.0;\n\nimport \"@openzeppelin/contracts/token/ERC721/ERC721.sol\";\nimport \"@openzeppelin/contracts/token/ERC721/extensions/ERC721Enumerable.sol\";\n\nimport \"@openzeppelin/contracts/token/ERC20/IERC20.sol\";\n\n\n\n// import \"./ERC721Full.sol\";\n\ncontract Wine is ERC721, ERC721Enumerable {\n\n       // to keep the track of ipfshash with data\n    mapping(uint => string) public wineData;\n    \n    // to keep check if the wine exists or not\n    mapping(string => bool) public wineExist;\n\n\n\n    uint public lastMintCount = 0;\n    // to keep track of the last Minted Wine\n\n    string[] public wineHashes;\n    string[] public imageHashes;\n\n\n        constructor() ERC721(\"Wine\", \"WINE\") public {\n        }\n\n    function _beforeTokenTransfer(address from, address to, uint256 tokenId)\n    internal\n    override(ERC721, ERC721Enumerable)\n    {\n        super._beforeTokenTransfer(from, to, tokenId);\n    }\n\n    function supportsInterface(bytes4 interfaceId)\n    public\n    view\n    override(ERC721, ERC721Enumerable)\n    returns (bool)\n    {\n        return super.supportsInterface(interfaceId);\n    }\n\n    function mint(string[] calldata _wineHash, uint wineAmount) public {\n        for(uint i=0;i<wineAmount;i++){\n            require(!wineExist[_wineHash[i]],\"Wine already exists\");\n            // require(!imageExist[_imageHash[i]],\"Image is getting used twices\");\n            wineHashes.push(_wineHash[i]);\n            // imageHashes.push(_imageHash[i]);\n            uint _id = wineHashes.length - 1;\n            _mint(msg.sender,_id);\n            wineData[_id] = _wineHash[i];\n            // imageExist[_imageHash[i]] = true;\n            wineExist[_wineHash[i]] = true;\n        }\n        lastMintCount  = wineAmount + lastMintCount;\n\n    }\n\n    function _baseURI() internal view virtual override returns (string memory) {\n        return \"https://ipfs.io/ipfs/\";\n    }\n\n    function getMintedImages() public view returns(uint) {\n        return lastMintCount;\n        }\n\n    function tokenURI(uint256 tokenId) public view virtual override returns (string memory) {\n        // require(_exists(tokenId), \"ERC721Metadata: URI query for nonexistent token\");\n\n        string memory baseURI = _baseURI();\n        string memory tokenHash = wineData[tokenId];\n        return string(abi.encodePacked(baseURI, tokenHash));\n        // return bytes(baseURI).length > 0 ? string(abi.encodePacked(baseURI, tokenId.toString())) : \"\";\n    }\n\n     function burn(uint256 tokenId) public{\n        _burn(tokenId);\n    }\n\n  \n}\n\n",
  "sourcePath": "/home/abhishek/Desktop/Code/BoredPhase2/contracts/Wine.sol",
  "compiler": {
    "name": "solc",
    "version": "0.8.0+commit.c7dfd78e.Linux.g++"
  },
  "schemaVersion": "3.4.3",
  "updatedAt": "2021-12-11T21:04:44.106Z",
  "networkType": "ethereum",
  "devdoc": {
    "kind": "dev",
    "methods": {
      "approve(address,uint256)": {
        "details": "See {IERC721-approve}."
      },
      "balanceOf(address)": {
        "details": "See {IERC721-balanceOf}."
      },
      "getApproved(uint256)": {
        "details": "See {IERC721-getApproved}."
      },
      "isApprovedForAll(address,address)": {
        "details": "See {IERC721-isApprovedForAll}."
      },
      "name()": {
        "details": "See {IERC721Metadata-name}."
      },
      "ownerOf(uint256)": {
        "details": "See {IERC721-ownerOf}."
      },
      "safeTransferFrom(address,address,uint256)": {
        "details": "See {IERC721-safeTransferFrom}."
      },
      "safeTransferFrom(address,address,uint256,bytes)": {
        "details": "See {IERC721-safeTransferFrom}."
      },
      "setApprovalForAll(address,bool)": {
        "details": "See {IERC721-setApprovalForAll}."
      },
      "symbol()": {
        "details": "See {IERC721Metadata-symbol}."
      },
      "tokenByIndex(uint256)": {
        "details": "See {IERC721Enumerable-tokenByIndex}."
      },
      "tokenOfOwnerByIndex(address,uint256)": {
        "details": "See {IERC721Enumerable-tokenOfOwnerByIndex}."
      },
      "tokenURI(uint256)": {
        "details": "See {IERC721Metadata-tokenURI}."
      },
      "totalSupply()": {
        "details": "See {IERC721Enumerable-totalSupply}."
      },
      "transferFrom(address,address,uint256)": {
        "details": "See {IERC721-transferFrom}."
      }
    },
    "version": 1
  },
  "userdoc": {
    "kind": "user",
    "methods": {},
    "version": 1
  }
}